{
	"Lab5_SmartContract/RPS.sol": {
		"RPS": {
			"abi": [
				{
					"inputs": [],
					"name": "addPlayer",
					"outputs": [],
					"stateMutability": "payable",
					"type": "function"
				},
				{
					"inputs": [
						{
							"internalType": "bytes32",
							"name": "hashedMove",
							"type": "bytes32"
						}
					],
					"name": "commitMove",
					"outputs": [],
					"stateMutability": "nonpayable",
					"type": "function"
				},
				{
					"inputs": [
						{
							"internalType": "address",
							"name": "",
							"type": "address"
						}
					],
					"name": "commits",
					"outputs": [
						{
							"internalType": "bytes32",
							"name": "",
							"type": "bytes32"
						}
					],
					"stateMutability": "view",
					"type": "function"
				},
				{
					"inputs": [],
					"name": "gameActive",
					"outputs": [
						{
							"internalType": "bool",
							"name": "",
							"type": "bool"
						}
					],
					"stateMutability": "view",
					"type": "function"
				},
				{
					"inputs": [],
					"name": "numPlayer",
					"outputs": [
						{
							"internalType": "uint256",
							"name": "",
							"type": "uint256"
						}
					],
					"stateMutability": "view",
					"type": "function"
				},
				{
					"inputs": [
						{
							"internalType": "address",
							"name": "",
							"type": "address"
						}
					],
					"name": "player_choices",
					"outputs": [
						{
							"internalType": "uint256",
							"name": "",
							"type": "uint256"
						}
					],
					"stateMutability": "view",
					"type": "function"
				},
				{
					"inputs": [
						{
							"internalType": "uint256",
							"name": "",
							"type": "uint256"
						}
					],
					"name": "players",
					"outputs": [
						{
							"internalType": "address",
							"name": "",
							"type": "address"
						}
					],
					"stateMutability": "view",
					"type": "function"
				},
				{
					"inputs": [
						{
							"internalType": "uint256",
							"name": "choice",
							"type": "uint256"
						},
						{
							"internalType": "string",
							"name": "nonce",
							"type": "string"
						}
					],
					"name": "revealMove",
					"outputs": [],
					"stateMutability": "nonpayable",
					"type": "function"
				},
				{
					"inputs": [
						{
							"internalType": "address",
							"name": "",
							"type": "address"
						}
					],
					"name": "revealed",
					"outputs": [
						{
							"internalType": "bool",
							"name": "",
							"type": "bool"
						}
					],
					"stateMutability": "view",
					"type": "function"
				},
				{
					"inputs": [],
					"name": "reward",
					"outputs": [
						{
							"internalType": "uint256",
							"name": "",
							"type": "uint256"
						}
					],
					"stateMutability": "view",
					"type": "function"
				},
				{
					"inputs": [],
					"name": "startTime",
					"outputs": [
						{
							"internalType": "uint256",
							"name": "",
							"type": "uint256"
						}
					],
					"stateMutability": "view",
					"type": "function"
				},
				{
					"inputs": [],
					"name": "withdrawIfTimeout",
					"outputs": [],
					"stateMutability": "nonpayable",
					"type": "function"
				}
			],
			"devdoc": {
				"kind": "dev",
				"methods": {},
				"version": 1
			},
			"evm": {
				"assembly": "    /* \"Lab5_SmartContract/RPS.sol\":134:4467  contract RPS {... */\n  mstore(0x40, 0x80)\n    /* \"Lab5_SmartContract/RPS.sol\":178:179  0 */\n  0x00\n    /* \"Lab5_SmartContract/RPS.sol\":154:179  uint public numPlayer = 0 */\n  dup1\n  sstore\n    /* \"Lab5_SmartContract/RPS.sol\":207:208  0 */\n  0x00\n    /* \"Lab5_SmartContract/RPS.sol\":186:208  uint public reward = 0 */\n  0x01\n  sstore\n    /* \"Lab5_SmartContract/RPS.sol\":268:273  false */\n  0x00\n    /* \"Lab5_SmartContract/RPS.sol\":243:273  bool public gameActive = false */\n  0x03\n  exp(0x0100, 0x00)\n  dup2\n  sload\n  dup2\n  0xff\n  mul\n  not\n  and\n  swap1\n  dup4\n  iszero\n  iszero\n  mul\n  or\n  swap1\n  sstore\n  pop\n    /* \"Lab5_SmartContract/RPS.sol\":534:790  address[] private allowedAddresses = [... */\n  mload(0x40)\n  dup1\n  0x80\n  add\n  0x40\n  mstore\n  dup1\n    /* \"Lab5_SmartContract/RPS.sol\":582:624  0x5B38Da6a701c568545dCfcB03FcB875f56beddC4 */\n  0x5b38da6a701c568545dcfcb03fcb875f56beddc4\n    /* \"Lab5_SmartContract/RPS.sol\":534:790  address[] private allowedAddresses = [... */\n  0xffffffffffffffffffffffffffffffffffffffff\n  and\n  0xffffffffffffffffffffffffffffffffffffffff\n  and\n  dup2\n  mstore\n  0x20\n  add\n    /* \"Lab5_SmartContract/RPS.sol\":635:677  0xAb8483F64d9C6d1EcF9b849Ae677dD3315835cb2 */\n  0xab8483f64d9c6d1ecf9b849ae677dd3315835cb2\n    /* \"Lab5_SmartContract/RPS.sol\":534:790  address[] private allowedAddresses = [... */\n  0xffffffffffffffffffffffffffffffffffffffff\n  and\n  0xffffffffffffffffffffffffffffffffffffffff\n  and\n  dup2\n  mstore\n  0x20\n  add\n    /* \"Lab5_SmartContract/RPS.sol\":688:730  0x4B20993Bc481177ec7E8f571ceCaE8A9e22C02db */\n  0x4b20993bc481177ec7e8f571cecae8a9e22c02db\n    /* \"Lab5_SmartContract/RPS.sol\":534:790  address[] private allowedAddresses = [... */\n  0xffffffffffffffffffffffffffffffffffffffff\n  and\n  0xffffffffffffffffffffffffffffffffffffffff\n  and\n  dup2\n  mstore\n  0x20\n  add\n    /* \"Lab5_SmartContract/RPS.sol\":741:783  0x78731D3Ca6b7E34aC0F824c42a7cC18A495cabaB */\n  0x78731d3ca6b7e34ac0f824c42a7cc18a495cabab\n    /* \"Lab5_SmartContract/RPS.sol\":534:790  address[] private allowedAddresses = [... */\n  0xffffffffffffffffffffffffffffffffffffffff\n  and\n  0xffffffffffffffffffffffffffffffffffffffff\n  and\n  dup2\n  mstore\n  pop\n  0x08\n  swap1\n  0x04\n  tag_1\n  swap3\n  swap2\n  swap1\n  tag_2\n  jump\t// in\ntag_1:\n  pop\n    /* \"Lab5_SmartContract/RPS.sol\":134:4467  contract RPS {... */\n  callvalue\n  dup1\n  iszero\n  tag_3\n  jumpi\n  0x00\n  dup1\n  revert\ntag_3:\n  pop\n  jump(tag_4)\ntag_2:\n  dup3\n  dup1\n  sload\n  dup3\n  dup3\n  sstore\n  swap1\n  0x00\n  mstore\n  keccak256(0x00, 0x20)\n  swap1\n  dup2\n  add\n  swap3\n  dup3\n  iszero\n  tag_5\n  jumpi\n  swap2\n  0x20\n  mul\n  dup3\n  add\ntag_6:\n  dup3\n  dup2\n  gt\n  iszero\n  tag_7\n  jumpi\n  dup3\n  mload\n  dup3\n  exp(0x0100, 0x00)\n  dup2\n  sload\n  dup2\n  0xffffffffffffffffffffffffffffffffffffffff\n  mul\n  not\n  and\n  swap1\n  dup4\n  0xffffffffffffffffffffffffffffffffffffffff\n  and\n  mul\n  or\n  swap1\n  sstore\n  pop\n  swap2\n  0x20\n  add\n  swap2\n  swap1\n  0x01\n  add\n  swap1\n  jump(tag_6)\ntag_7:\ntag_5:\n  pop\n  swap1\n  pop\n  tag_8\n  swap2\n  swap1\n  tag_9\n  jump\t// in\ntag_8:\n  pop\n  swap1\n  jump\t// out\ntag_9:\ntag_10:\n  dup1\n  dup3\n  gt\n  iszero\n  tag_11\n  jumpi\n  0x00\n  dup2\n  0x00\n  swap1\n  sstore\n  pop\n  0x01\n  add\n  jump(tag_10)\ntag_11:\n  pop\n  swap1\n  jump\t// out\ntag_4:\n  dataSize(sub_0)\n  dup1\n  dataOffset(sub_0)\n  0x00\n  codecopy\n  0x00\n  return\nstop\n\nsub_0: assembly {\n        /* \"Lab5_SmartContract/RPS.sol\":134:4467  contract RPS {... */\n      mstore(0x40, 0x80)\n      jumpi(tag_1, lt(calldatasize, 0x04))\n      shr(0xe0, calldataload(0x00))\n      dup1\n      0x90d5d0c3\n      gt\n      tag_14\n      jumpi\n      dup1\n      0x90d5d0c3\n      eq\n      tag_8\n      jumpi\n      dup1\n      0xa9ea37b6\n      eq\n      tag_9\n      jumpi\n      dup1\n      0xaead4af2\n      eq\n      tag_10\n      jumpi\n      dup1\n      0xee10ff17\n      eq\n      tag_11\n      jumpi\n      dup1\n      0xf020044f\n      eq\n      tag_12\n      jumpi\n      dup1\n      0xf71d96cb\n      eq\n      tag_13\n      jumpi\n      jump(tag_1)\n    tag_14:\n      dup1\n      0x228cb733\n      eq\n      tag_2\n      jumpi\n      dup1\n      0x27b5db8a\n      eq\n      tag_3\n      jumpi\n      dup1\n      0x27c0583f\n      eq\n      tag_4\n      jumpi\n      dup1\n      0x2f3e8363\n      eq\n      tag_5\n      jumpi\n      dup1\n      0x78e97925\n      eq\n      tag_6\n      jumpi\n      dup1\n      0x7b43a8e6\n      eq\n      tag_7\n      jumpi\n    tag_1:\n      0x00\n      dup1\n      revert\n        /* \"Lab5_SmartContract/RPS.sol\":186:208  uint public reward = 0 */\n    tag_2:\n      callvalue\n      dup1\n      iszero\n      tag_15\n      jumpi\n      0x00\n      dup1\n      revert\n    tag_15:\n      pop\n      tag_16\n      tag_17\n      jump\t// in\n    tag_16:\n      mload(0x40)\n      tag_18\n      swap2\n      swap1\n      tag_19\n      jump\t// in\n    tag_18:\n      mload(0x40)\n      dup1\n      swap2\n      sub\n      swap1\n      return\n        /* \"Lab5_SmartContract/RPS.sol\":1166:1730  function addPlayer() public payable {... */\n    tag_3:\n      tag_20\n      tag_21\n      jump\t// in\n    tag_20:\n      stop\n        /* \"Lab5_SmartContract/RPS.sol\":454:494  mapping(address => bool) public revealed */\n    tag_4:\n      callvalue\n      dup1\n      iszero\n      tag_22\n      jumpi\n      0x00\n      dup1\n      revert\n    tag_22:\n      pop\n      tag_23\n      0x04\n      dup1\n      calldatasize\n      sub\n      dup2\n      add\n      swap1\n      tag_24\n      swap2\n      swap1\n      tag_25\n      jump\t// in\n    tag_24:\n      tag_26\n      jump\t// in\n    tag_23:\n      mload(0x40)\n      tag_27\n      swap2\n      swap1\n      tag_28\n      jump\t// in\n    tag_27:\n      mload(0x40)\n      dup1\n      swap2\n      sub\n      swap1\n      return\n        /* \"Lab5_SmartContract/RPS.sol\":2450:3169  function revealMove (uint choice, string memory nonce) public {... */\n    tag_5:\n      callvalue\n      dup1\n      iszero\n      tag_29\n      jumpi\n      0x00\n      dup1\n      revert\n    tag_29:\n      pop\n      tag_30\n      0x04\n      dup1\n      calldatasize\n      sub\n      dup2\n      add\n      swap1\n      tag_31\n      swap2\n      swap1\n      tag_32\n      jump\t// in\n    tag_31:\n      tag_33\n      jump\t// in\n    tag_30:\n      stop\n        /* \"Lab5_SmartContract/RPS.sol\":215:236  uint public startTime */\n    tag_6:\n      callvalue\n      dup1\n      iszero\n      tag_34\n      jumpi\n      0x00\n      dup1\n      revert\n    tag_34:\n      pop\n      tag_35\n      tag_36\n      jump\t// in\n    tag_35:\n      mload(0x40)\n      tag_37\n      swap2\n      swap1\n      tag_19\n      jump\t// in\n    tag_37:\n      mload(0x40)\n      dup1\n      swap2\n      sub\n      swap1\n      return\n        /* \"Lab5_SmartContract/RPS.sol\":348:391  mapping (address => bytes32) public commits */\n    tag_7:\n      callvalue\n      dup1\n      iszero\n      tag_38\n      jumpi\n      0x00\n      dup1\n      revert\n    tag_38:\n      pop\n      tag_39\n      0x04\n      dup1\n      calldatasize\n      sub\n      dup2\n      add\n      swap1\n      tag_40\n      swap2\n      swap1\n      tag_25\n      jump\t// in\n    tag_40:\n      tag_41\n      jump\t// in\n    tag_39:\n      mload(0x40)\n      tag_42\n      swap2\n      swap1\n      tag_43\n      jump\t// in\n    tag_42:\n      mload(0x40)\n      dup1\n      swap2\n      sub\n      swap1\n      return\n        /* \"Lab5_SmartContract/RPS.sol\":154:179  uint public numPlayer = 0 */\n    tag_8:\n      callvalue\n      dup1\n      iszero\n      tag_44\n      jumpi\n      0x00\n      dup1\n      revert\n    tag_44:\n      pop\n      tag_45\n      tag_46\n      jump\t// in\n    tag_45:\n      mload(0x40)\n      tag_47\n      swap2\n      swap1\n      tag_19\n      jump\t// in\n    tag_47:\n      mload(0x40)\n      dup1\n      swap2\n      sub\n      swap1\n      return\n        /* \"Lab5_SmartContract/RPS.sol\":2158:2442  function commitMove(bytes32 hashedMove) public {... */\n    tag_9:\n      callvalue\n      dup1\n      iszero\n      tag_48\n      jumpi\n      0x00\n      dup1\n      revert\n    tag_48:\n      pop\n      tag_49\n      0x04\n      dup1\n      calldatasize\n      sub\n      dup2\n      add\n      swap1\n      tag_50\n      swap2\n      swap1\n      tag_51\n      jump\t// in\n    tag_50:\n      tag_52\n      jump\t// in\n    tag_49:\n      stop\n        /* \"Lab5_SmartContract/RPS.sol\":3849:4319  function withdrawIfTimeout() public {... */\n    tag_10:\n      callvalue\n      dup1\n      iszero\n      tag_53\n      jumpi\n      0x00\n      dup1\n      revert\n    tag_53:\n      pop\n      tag_54\n      tag_55\n      jump\t// in\n    tag_54:\n      stop\n        /* \"Lab5_SmartContract/RPS.sol\":399:446  mapping (address => uint) public player_choices */\n    tag_11:\n      callvalue\n      dup1\n      iszero\n      tag_56\n      jumpi\n      0x00\n      dup1\n      revert\n    tag_56:\n      pop\n      tag_57\n      0x04\n      dup1\n      calldatasize\n      sub\n      dup2\n      add\n      swap1\n      tag_58\n      swap2\n      swap1\n      tag_25\n      jump\t// in\n    tag_58:\n      tag_59\n      jump\t// in\n    tag_57:\n      mload(0x40)\n      tag_60\n      swap2\n      swap1\n      tag_19\n      jump\t// in\n    tag_60:\n      mload(0x40)\n      dup1\n      swap2\n      sub\n      swap1\n      return\n        /* \"Lab5_SmartContract/RPS.sol\":243:273  bool public gameActive = false */\n    tag_12:\n      callvalue\n      dup1\n      iszero\n      tag_61\n      jumpi\n      0x00\n      dup1\n      revert\n    tag_61:\n      pop\n      tag_62\n      tag_63\n      jump\t// in\n    tag_62:\n      mload(0x40)\n      tag_64\n      swap2\n      swap1\n      tag_28\n      jump\t// in\n    tag_64:\n      mload(0x40)\n      dup1\n      swap2\n      sub\n      swap1\n      return\n        /* \"Lab5_SmartContract/RPS.sol\":503:527  address[] public players */\n    tag_13:\n      callvalue\n      dup1\n      iszero\n      tag_65\n      jumpi\n      0x00\n      dup1\n      revert\n    tag_65:\n      pop\n      tag_66\n      0x04\n      dup1\n      calldatasize\n      sub\n      dup2\n      add\n      swap1\n      tag_67\n      swap2\n      swap1\n      tag_68\n      jump\t// in\n    tag_67:\n      tag_69\n      jump\t// in\n    tag_66:\n      mload(0x40)\n      tag_70\n      swap2\n      swap1\n      tag_71\n      jump\t// in\n    tag_70:\n      mload(0x40)\n      dup1\n      swap2\n      sub\n      swap1\n      return\n        /* \"Lab5_SmartContract/RPS.sol\":186:208  uint public reward = 0 */\n    tag_17:\n      sload(0x01)\n      dup2\n      jump\t// out\n        /* \"Lab5_SmartContract/RPS.sol\":1166:1730  function addPlayer() public payable {... */\n    tag_21:\n        /* \"Lab5_SmartContract/RPS.sol\":1233:1234  2 */\n      0x02\n        /* \"Lab5_SmartContract/RPS.sol\":1221:1230  numPlayer */\n      sload(0x00)\n        /* \"Lab5_SmartContract/RPS.sol\":1221:1234  numPlayer < 2 */\n      lt\n        /* \"Lab5_SmartContract/RPS.sol\":1213:1262  require(numPlayer < 2, \"Maximum Players Reached\") */\n      tag_73\n      jumpi\n      mload(0x40)\n      0x08c379a000000000000000000000000000000000000000000000000000000000\n      dup2\n      mstore\n      0x04\n      add\n      tag_74\n      swap1\n      tag_75\n      jump\t// in\n    tag_74:\n      mload(0x40)\n      dup1\n      swap2\n      sub\n      swap1\n      revert\n    tag_73:\n        /* \"Lab5_SmartContract/RPS.sol\":1295:1300  false */\n      0x00\n        /* \"Lab5_SmartContract/RPS.sol\":1281:1300  gameActive == false */\n      iszero\n      iszero\n        /* \"Lab5_SmartContract/RPS.sol\":1281:1291  gameActive */\n      0x03\n      0x00\n      swap1\n      sload\n      swap1\n      0x0100\n      exp\n      swap1\n      div\n      0xff\n      and\n        /* \"Lab5_SmartContract/RPS.sol\":1281:1300  gameActive == false */\n      iszero\n      iszero\n      eq\n        /* \"Lab5_SmartContract/RPS.sol\":1273:1329  require(gameActive == false, \"Game already in progress\") */\n      tag_76\n      jumpi\n      mload(0x40)\n      0x08c379a000000000000000000000000000000000000000000000000000000000\n      dup2\n      mstore\n      0x04\n      add\n      tag_77\n      swap1\n      tag_78\n      jump\t// in\n    tag_77:\n      mload(0x40)\n      dup1\n      swap2\n      sub\n      swap1\n      revert\n    tag_76:\n        /* \"Lab5_SmartContract/RPS.sol\":1358:1359  0 */\n      0x00\n        /* \"Lab5_SmartContract/RPS.sol\":1346:1355  numPlayer */\n      dup1\n      sload\n        /* \"Lab5_SmartContract/RPS.sol\":1346:1359  numPlayer > 0 */\n      gt\n        /* \"Lab5_SmartContract/RPS.sol\":1342:1452  if (numPlayer > 0) {... */\n      iszero\n      tag_79\n      jumpi\n        /* \"Lab5_SmartContract/RPS.sol\":1398:1405  players */\n      0x07\n        /* \"Lab5_SmartContract/RPS.sol\":1406:1407  0 */\n      0x00\n        /* \"Lab5_SmartContract/RPS.sol\":1398:1408  players[0] */\n      dup2\n      sload\n      dup2\n      lt\n      tag_80\n      jumpi\n      tag_81\n      tag_82\n      jump\t// in\n    tag_81:\n    tag_80:\n      swap1\n      0x00\n      mstore\n      keccak256(0x00, 0x20)\n      add\n      0x00\n      swap1\n      sload\n      swap1\n      0x0100\n      exp\n      swap1\n      div\n      0xffffffffffffffffffffffffffffffffffffffff\n      and\n        /* \"Lab5_SmartContract/RPS.sol\":1384:1408  msg.sender != players[0] */\n      0xffffffffffffffffffffffffffffffffffffffff\n      and\n        /* \"Lab5_SmartContract/RPS.sol\":1384:1394  msg.sender */\n      caller\n        /* \"Lab5_SmartContract/RPS.sol\":1384:1408  msg.sender != players[0] */\n      0xffffffffffffffffffffffffffffffffffffffff\n      and\n      sub\n        /* \"Lab5_SmartContract/RPS.sol\":1376:1440  require(msg.sender != players[0], \"You are already in the game\") */\n      tag_84\n      jumpi\n      mload(0x40)\n      0x08c379a000000000000000000000000000000000000000000000000000000000\n      dup2\n      mstore\n      0x04\n      add\n      tag_85\n      swap1\n      tag_86\n      jump\t// in\n    tag_85:\n      mload(0x40)\n      dup1\n      swap2\n      sub\n      swap1\n      revert\n    tag_84:\n        /* \"Lab5_SmartContract/RPS.sol\":1342:1452  if (numPlayer > 0) {... */\n    tag_79:\n        /* \"Lab5_SmartContract/RPS.sol\":1485:1492  1 ether */\n      0x0de0b6b3a7640000\n        /* \"Lab5_SmartContract/RPS.sol\":1472:1481  msg.value */\n      callvalue\n        /* \"Lab5_SmartContract/RPS.sol\":1472:1492  msg.value == 1 ether */\n      eq\n        /* \"Lab5_SmartContract/RPS.sol\":1464:1517  require(msg.value == 1 ether, \"Entry fee is 1 ether\") */\n      tag_87\n      jumpi\n      mload(0x40)\n      0x08c379a000000000000000000000000000000000000000000000000000000000\n      dup2\n      mstore\n      0x04\n      add\n      tag_88\n      swap1\n      tag_89\n      jump\t// in\n    tag_88:\n      mload(0x40)\n      dup1\n      swap2\n      sub\n      swap1\n      revert\n    tag_87:\n        /* \"Lab5_SmartContract/RPS.sol\":1538:1547  msg.value */\n      callvalue\n        /* \"Lab5_SmartContract/RPS.sol\":1528:1534  reward */\n      0x01\n      0x00\n        /* \"Lab5_SmartContract/RPS.sol\":1528:1547  reward += msg.value */\n      dup3\n      dup3\n      sload\n      tag_90\n      swap2\n      swap1\n      tag_91\n      jump\t// in\n    tag_90:\n      swap3\n      pop\n      pop\n      dup2\n      swap1\n      sstore\n      pop\n        /* \"Lab5_SmartContract/RPS.sol\":1558:1565  players */\n      0x07\n        /* \"Lab5_SmartContract/RPS.sol\":1571:1581  msg.sender */\n      caller\n        /* \"Lab5_SmartContract/RPS.sol\":1558:1582  players.push(msg.sender) */\n      swap1\n      dup1\n      0x01\n      dup2\n      sload\n      add\n      dup1\n      dup3\n      sstore\n      dup1\n      swap2\n      pop\n      pop\n      0x01\n      swap1\n      sub\n      swap1\n      0x00\n      mstore\n      keccak256(0x00, 0x20)\n      add\n      0x00\n      swap1\n      swap2\n      swap1\n      swap2\n      swap1\n      swap2\n      0x0100\n      exp\n      dup2\n      sload\n      dup2\n      0xffffffffffffffffffffffffffffffffffffffff\n      mul\n      not\n      and\n      swap1\n      dup4\n      0xffffffffffffffffffffffffffffffffffffffff\n      and\n      mul\n      or\n      swap1\n      sstore\n      pop\n        /* \"Lab5_SmartContract/RPS.sol\":1593:1602  numPlayer */\n      0x00\n      dup1\n        /* \"Lab5_SmartContract/RPS.sol\":1593:1604  numPlayer++ */\n      dup2\n      sload\n      dup1\n      swap3\n      swap2\n      swap1\n      tag_93\n      swap1\n      tag_94\n      jump\t// in\n    tag_93:\n      swap2\n      swap1\n      pop\n      sstore\n      pop\n        /* \"Lab5_SmartContract/RPS.sol\":1634:1635  2 */\n      0x02\n        /* \"Lab5_SmartContract/RPS.sol\":1621:1630  numPlayer */\n      sload(0x00)\n        /* \"Lab5_SmartContract/RPS.sol\":1621:1635  numPlayer == 2 */\n      sub\n        /* \"Lab5_SmartContract/RPS.sol\":1617:1723  if (numPlayer == 2) {... */\n      tag_95\n      jumpi\n        /* \"Lab5_SmartContract/RPS.sol\":1665:1669  true */\n      0x01\n        /* \"Lab5_SmartContract/RPS.sol\":1652:1662  gameActive */\n      0x03\n      0x00\n        /* \"Lab5_SmartContract/RPS.sol\":1652:1669  gameActive = true */\n      0x0100\n      exp\n      dup2\n      sload\n      dup2\n      0xff\n      mul\n      not\n      and\n      swap1\n      dup4\n      iszero\n      iszero\n      mul\n      or\n      swap1\n      sstore\n      pop\n        /* \"Lab5_SmartContract/RPS.sol\":1696:1711  block.timestamp */\n      timestamp\n        /* \"Lab5_SmartContract/RPS.sol\":1684:1693  startTime */\n      0x02\n        /* \"Lab5_SmartContract/RPS.sol\":1684:1711  startTime = block.timestamp */\n      dup2\n      swap1\n      sstore\n      pop\n        /* \"Lab5_SmartContract/RPS.sol\":1617:1723  if (numPlayer == 2) {... */\n    tag_95:\n        /* \"Lab5_SmartContract/RPS.sol\":1166:1730  function addPlayer() public payable {... */\n      jump\t// out\n        /* \"Lab5_SmartContract/RPS.sol\":454:494  mapping(address => bool) public revealed */\n    tag_26:\n      mstore(0x20, 0x06)\n      dup1\n      0x00\n      mstore\n      keccak256(0x00, 0x40)\n      0x00\n      swap2\n      pop\n      sload\n      swap1\n      0x0100\n      exp\n      swap1\n      div\n      0xff\n      and\n      dup2\n      jump\t// out\n        /* \"Lab5_SmartContract/RPS.sol\":2450:3169  function revealMove (uint choice, string memory nonce) public {... */\n    tag_33:\n        /* \"Lab5_SmartContract/RPS.sol\":2545:2549  true */\n      0x01\n        /* \"Lab5_SmartContract/RPS.sol\":2531:2549  gameActive == true */\n      iszero\n      iszero\n        /* \"Lab5_SmartContract/RPS.sol\":2531:2541  gameActive */\n      0x03\n      0x00\n      swap1\n      sload\n      swap1\n      0x0100\n      exp\n      swap1\n      div\n      0xff\n      and\n        /* \"Lab5_SmartContract/RPS.sol\":2531:2549  gameActive == true */\n      iszero\n      iszero\n      eq\n        /* \"Lab5_SmartContract/RPS.sol\":2523:2572  require(gameActive == true, \"Game is not active\") */\n      tag_97\n      jumpi\n      mload(0x40)\n      0x08c379a000000000000000000000000000000000000000000000000000000000\n      dup2\n      mstore\n      0x04\n      add\n      tag_98\n      swap1\n      tag_99\n      jump\t// in\n    tag_98:\n      mload(0x40)\n      dup1\n      swap2\n      sub\n      swap1\n      revert\n    tag_97:\n        /* \"Lab5_SmartContract/RPS.sol\":2614:2615  0 */\n      0x00\n        /* \"Lab5_SmartContract/RPS.sol\":2591:2615  commits[msg.sender] != 0 */\n      dup1\n      shl\n        /* \"Lab5_SmartContract/RPS.sol\":2591:2598  commits */\n      0x04\n        /* \"Lab5_SmartContract/RPS.sol\":2591:2610  commits[msg.sender] */\n      0x00\n        /* \"Lab5_SmartContract/RPS.sol\":2599:2609  msg.sender */\n      caller\n        /* \"Lab5_SmartContract/RPS.sol\":2591:2610  commits[msg.sender] */\n      0xffffffffffffffffffffffffffffffffffffffff\n      and\n      0xffffffffffffffffffffffffffffffffffffffff\n      and\n      dup2\n      mstore\n      0x20\n      add\n      swap1\n      dup2\n      mstore\n      0x20\n      add\n      0x00\n      keccak256\n      sload\n        /* \"Lab5_SmartContract/RPS.sol\":2591:2615  commits[msg.sender] != 0 */\n      sub\n        /* \"Lab5_SmartContract/RPS.sol\":2583:2645  require(commits[msg.sender] != 0, \"No commit has been made);\") */\n      tag_100\n      jumpi\n      mload(0x40)\n      0x08c379a000000000000000000000000000000000000000000000000000000000\n      dup2\n      mstore\n      0x04\n      add\n      tag_101\n      swap1\n      tag_102\n      jump\t// in\n    tag_101:\n      mload(0x40)\n      dup1\n      swap2\n      sub\n      swap1\n      revert\n    tag_100:\n        /* \"Lab5_SmartContract/RPS.sol\":2688:2693  false */\n      0x00\n        /* \"Lab5_SmartContract/RPS.sol\":2664:2693  revealed[msg.sender] == false */\n      iszero\n      iszero\n        /* \"Lab5_SmartContract/RPS.sol\":2664:2672  revealed */\n      0x06\n        /* \"Lab5_SmartContract/RPS.sol\":2664:2684  revealed[msg.sender] */\n      0x00\n        /* \"Lab5_SmartContract/RPS.sol\":2673:2683  msg.sender */\n      caller\n        /* \"Lab5_SmartContract/RPS.sol\":2664:2684  revealed[msg.sender] */\n      0xffffffffffffffffffffffffffffffffffffffff\n      and\n      0xffffffffffffffffffffffffffffffffffffffff\n      and\n      dup2\n      mstore\n      0x20\n      add\n      swap1\n      dup2\n      mstore\n      0x20\n      add\n      0x00\n      keccak256\n      0x00\n      swap1\n      sload\n      swap1\n      0x0100\n      exp\n      swap1\n      div\n      0xff\n      and\n        /* \"Lab5_SmartContract/RPS.sol\":2664:2693  revealed[msg.sender] == false */\n      iszero\n      iszero\n      eq\n        /* \"Lab5_SmartContract/RPS.sol\":2656:2719  require(revealed[msg.sender] == false, \"Move already revealed\") */\n      tag_103\n      jumpi\n      mload(0x40)\n      0x08c379a000000000000000000000000000000000000000000000000000000000\n      dup2\n      mstore\n      0x04\n      add\n      tag_104\n      swap1\n      tag_105\n      jump\t// in\n    tag_104:\n      mload(0x40)\n      dup1\n      swap2\n      sub\n      swap1\n      revert\n    tag_103:\n        /* \"Lab5_SmartContract/RPS.sol\":2748:2749  0 */\n      0x00\n        /* \"Lab5_SmartContract/RPS.sol\":2738:2744  choice */\n      dup3\n        /* \"Lab5_SmartContract/RPS.sol\":2738:2749  choice >= 0 */\n      lt\n      iszero\n        /* \"Lab5_SmartContract/RPS.sol\":2738:2764  choice >= 0 && choice <= 4 */\n      dup1\n      iszero\n      tag_106\n      jumpi\n      pop\n        /* \"Lab5_SmartContract/RPS.sol\":2763:2764  4 */\n      0x04\n        /* \"Lab5_SmartContract/RPS.sol\":2753:2759  choice */\n      dup3\n        /* \"Lab5_SmartContract/RPS.sol\":2753:2764  choice <= 4 */\n      gt\n      iszero\n        /* \"Lab5_SmartContract/RPS.sol\":2738:2764  choice >= 0 && choice <= 4 */\n    tag_106:\n        /* \"Lab5_SmartContract/RPS.sol\":2730:2782  require(choice >= 0 && choice <= 4, \"Invalid Input\") */\n      tag_107\n      jumpi\n      mload(0x40)\n      0x08c379a000000000000000000000000000000000000000000000000000000000\n      dup2\n      mstore\n      0x04\n      add\n      tag_108\n      swap1\n      tag_109\n      jump\t// in\n    tag_108:\n      mload(0x40)\n      dup1\n      swap2\n      sub\n      swap1\n      revert\n    tag_107:\n        /* \"Lab5_SmartContract/RPS.sol\":2795:2812  bytes32 CheckHash */\n      0x00\n        /* \"Lab5_SmartContract/RPS.sol\":2842:2848  choice */\n      dup3\n        /* \"Lab5_SmartContract/RPS.sol\":2850:2855  nonce */\n      dup3\n        /* \"Lab5_SmartContract/RPS.sol\":2825:2856  abi.encodePacked(choice, nonce) */\n      add(0x20, mload(0x40))\n      tag_110\n      swap3\n      swap2\n      swap1\n      tag_111\n      jump\t// in\n    tag_110:\n      mload(0x40)\n      0x20\n      dup2\n      dup4\n      sub\n      sub\n      dup2\n      mstore\n      swap1\n      0x40\n      mstore\n        /* \"Lab5_SmartContract/RPS.sol\":2815:2857  keccak256(abi.encodePacked(choice, nonce)) */\n      dup1\n      mload\n      swap1\n      0x20\n      add\n      keccak256\n        /* \"Lab5_SmartContract/RPS.sol\":2795:2857  bytes32 CheckHash = keccak256(abi.encodePacked(choice, nonce)) */\n      swap1\n      pop\n        /* \"Lab5_SmartContract/RPS.sol\":2925:2932  commits */\n      0x04\n        /* \"Lab5_SmartContract/RPS.sol\":2925:2944  commits[msg.sender] */\n      0x00\n        /* \"Lab5_SmartContract/RPS.sol\":2933:2943  msg.sender */\n      caller\n        /* \"Lab5_SmartContract/RPS.sol\":2925:2944  commits[msg.sender] */\n      0xffffffffffffffffffffffffffffffffffffffff\n      and\n      0xffffffffffffffffffffffffffffffffffffffff\n      and\n      dup2\n      mstore\n      0x20\n      add\n      swap1\n      dup2\n      mstore\n      0x20\n      add\n      0x00\n      keccak256\n      sload\n        /* \"Lab5_SmartContract/RPS.sol\":2912:2921  CheckHash */\n      dup2\n        /* \"Lab5_SmartContract/RPS.sol\":2912:2944  CheckHash == commits[msg.sender] */\n      eq\n        /* \"Lab5_SmartContract/RPS.sol\":2904:2963  require(CheckHash == commits[msg.sender], \"Invalid Reveal\") */\n      tag_112\n      jumpi\n      mload(0x40)\n      0x08c379a000000000000000000000000000000000000000000000000000000000\n      dup2\n      mstore\n      0x04\n      add\n      tag_113\n      swap1\n      tag_114\n      jump\t// in\n    tag_113:\n      mload(0x40)\n      dup1\n      swap2\n      sub\n      swap1\n      revert\n    tag_112:\n        /* \"Lab5_SmartContract/RPS.sol\":3015:3021  choice */\n      dup3\n        /* \"Lab5_SmartContract/RPS.sol\":2986:3000  player_choices */\n      0x05\n        /* \"Lab5_SmartContract/RPS.sol\":2986:3012  player_choices[msg.sender] */\n      0x00\n        /* \"Lab5_SmartContract/RPS.sol\":3001:3011  msg.sender */\n      caller\n        /* \"Lab5_SmartContract/RPS.sol\":2986:3012  player_choices[msg.sender] */\n      0xffffffffffffffffffffffffffffffffffffffff\n      and\n      0xffffffffffffffffffffffffffffffffffffffff\n      and\n      dup2\n      mstore\n      0x20\n      add\n      swap1\n      dup2\n      mstore\n      0x20\n      add\n      0x00\n      keccak256\n        /* \"Lab5_SmartContract/RPS.sol\":2986:3021  player_choices[msg.sender] = choice */\n      dup2\n      swap1\n      sstore\n      pop\n        /* \"Lab5_SmartContract/RPS.sol\":3055:3059  true */\n      0x01\n        /* \"Lab5_SmartContract/RPS.sol\":3032:3040  revealed */\n      0x06\n        /* \"Lab5_SmartContract/RPS.sol\":3032:3052  revealed[msg.sender] */\n      0x00\n        /* \"Lab5_SmartContract/RPS.sol\":3041:3051  msg.sender */\n      caller\n        /* \"Lab5_SmartContract/RPS.sol\":3032:3052  revealed[msg.sender] */\n      0xffffffffffffffffffffffffffffffffffffffff\n      and\n      0xffffffffffffffffffffffffffffffffffffffff\n      and\n      dup2\n      mstore\n      0x20\n      add\n      swap1\n      dup2\n      mstore\n      0x20\n      add\n      0x00\n      keccak256\n      0x00\n        /* \"Lab5_SmartContract/RPS.sol\":3032:3059  revealed[msg.sender] = true */\n      0x0100\n      exp\n      dup2\n      sload\n      dup2\n      0xff\n      mul\n      not\n      and\n      swap1\n      dup4\n      iszero\n      iszero\n      mul\n      or\n      swap1\n      sstore\n      pop\n        /* \"Lab5_SmartContract/RPS.sol\":3076:3084  revealed */\n      0x06\n        /* \"Lab5_SmartContract/RPS.sol\":3076:3096  revealed[players[0]] */\n      0x00\n        /* \"Lab5_SmartContract/RPS.sol\":3085:3092  players */\n      0x07\n        /* \"Lab5_SmartContract/RPS.sol\":3093:3094  0 */\n      0x00\n        /* \"Lab5_SmartContract/RPS.sol\":3085:3095  players[0] */\n      dup2\n      sload\n      dup2\n      lt\n      tag_115\n      jumpi\n      tag_116\n      tag_82\n      jump\t// in\n    tag_116:\n    tag_115:\n      swap1\n      0x00\n      mstore\n      keccak256(0x00, 0x20)\n      add\n      0x00\n      swap1\n      sload\n      swap1\n      0x0100\n      exp\n      swap1\n      div\n      0xffffffffffffffffffffffffffffffffffffffff\n      and\n        /* \"Lab5_SmartContract/RPS.sol\":3076:3096  revealed[players[0]] */\n      0xffffffffffffffffffffffffffffffffffffffff\n      and\n      0xffffffffffffffffffffffffffffffffffffffff\n      and\n      dup2\n      mstore\n      0x20\n      add\n      swap1\n      dup2\n      mstore\n      0x20\n      add\n      0x00\n      keccak256\n      0x00\n      swap1\n      sload\n      swap1\n      0x0100\n      exp\n      swap1\n      div\n      0xff\n      and\n        /* \"Lab5_SmartContract/RPS.sol\":3076:3120  revealed[players[0]] && revealed[players[1]] */\n      dup1\n      iszero\n      tag_118\n      jumpi\n      pop\n        /* \"Lab5_SmartContract/RPS.sol\":3100:3108  revealed */\n      0x06\n        /* \"Lab5_SmartContract/RPS.sol\":3100:3120  revealed[players[1]] */\n      0x00\n        /* \"Lab5_SmartContract/RPS.sol\":3109:3116  players */\n      0x07\n        /* \"Lab5_SmartContract/RPS.sol\":3117:3118  1 */\n      0x01\n        /* \"Lab5_SmartContract/RPS.sol\":3109:3119  players[1] */\n      dup2\n      sload\n      dup2\n      lt\n      tag_119\n      jumpi\n      tag_120\n      tag_82\n      jump\t// in\n    tag_120:\n    tag_119:\n      swap1\n      0x00\n      mstore\n      keccak256(0x00, 0x20)\n      add\n      0x00\n      swap1\n      sload\n      swap1\n      0x0100\n      exp\n      swap1\n      div\n      0xffffffffffffffffffffffffffffffffffffffff\n      and\n        /* \"Lab5_SmartContract/RPS.sol\":3100:3120  revealed[players[1]] */\n      0xffffffffffffffffffffffffffffffffffffffff\n      and\n      0xffffffffffffffffffffffffffffffffffffffff\n      and\n      dup2\n      mstore\n      0x20\n      add\n      swap1\n      dup2\n      mstore\n      0x20\n      add\n      0x00\n      keccak256\n      0x00\n      swap1\n      sload\n      swap1\n      0x0100\n      exp\n      swap1\n      div\n      0xff\n      and\n        /* \"Lab5_SmartContract/RPS.sol\":3076:3120  revealed[players[0]] && revealed[players[1]] */\n    tag_118:\n        /* \"Lab5_SmartContract/RPS.sol\":3072:3162  if (revealed[players[0]] && revealed[players[1]]) {... */\n      iszero\n      tag_122\n      jumpi\n        /* \"Lab5_SmartContract/RPS.sol\":3137:3150  _findWinner() */\n      tag_123\n        /* \"Lab5_SmartContract/RPS.sol\":3137:3148  _findWinner */\n      tag_124\n        /* \"Lab5_SmartContract/RPS.sol\":3137:3150  _findWinner() */\n      jump\t// in\n    tag_123:\n        /* \"Lab5_SmartContract/RPS.sol\":3072:3162  if (revealed[players[0]] && revealed[players[1]]) {... */\n    tag_122:\n        /* \"Lab5_SmartContract/RPS.sol\":2512:3169  {... */\n      pop\n        /* \"Lab5_SmartContract/RPS.sol\":2450:3169  function revealMove (uint choice, string memory nonce) public {... */\n      pop\n      pop\n      jump\t// out\n        /* \"Lab5_SmartContract/RPS.sol\":215:236  uint public startTime */\n    tag_36:\n      sload(0x02)\n      dup2\n      jump\t// out\n        /* \"Lab5_SmartContract/RPS.sol\":348:391  mapping (address => bytes32) public commits */\n    tag_41:\n      mstore(0x20, 0x04)\n      dup1\n      0x00\n      mstore\n      keccak256(0x00, 0x40)\n      0x00\n      swap2\n      pop\n      swap1\n      pop\n      sload\n      dup2\n      jump\t// out\n        /* \"Lab5_SmartContract/RPS.sol\":154:179  uint public numPlayer = 0 */\n    tag_46:\n      sload(0x00)\n      dup2\n      jump\t// out\n        /* \"Lab5_SmartContract/RPS.sol\":2158:2442  function commitMove(bytes32 hashedMove) public {... */\n    tag_52:\n        /* \"Lab5_SmartContract/RPS.sol\":2238:2242  true */\n      0x01\n        /* \"Lab5_SmartContract/RPS.sol\":2224:2242  gameActive == true */\n      iszero\n      iszero\n        /* \"Lab5_SmartContract/RPS.sol\":2224:2234  gameActive */\n      0x03\n      0x00\n      swap1\n      sload\n      swap1\n      0x0100\n      exp\n      swap1\n      div\n      0xff\n      and\n        /* \"Lab5_SmartContract/RPS.sol\":2224:2242  gameActive == true */\n      iszero\n      iszero\n      eq\n        /* \"Lab5_SmartContract/RPS.sol\":2216:2265  require(gameActive == true, \"Game is not active\") */\n      tag_126\n      jumpi\n      mload(0x40)\n      0x08c379a000000000000000000000000000000000000000000000000000000000\n      dup2\n      mstore\n      0x04\n      add\n      tag_127\n      swap1\n      tag_99\n      jump\t// in\n    tag_127:\n      mload(0x40)\n      dup1\n      swap2\n      sub\n      swap1\n      revert\n    tag_126:\n        /* \"Lab5_SmartContract/RPS.sol\":2297:2298  2 */\n      0x02\n        /* \"Lab5_SmartContract/RPS.sol\":2284:2293  numPlayer */\n      sload(0x00)\n        /* \"Lab5_SmartContract/RPS.sol\":2284:2298  numPlayer == 2 */\n      eq\n        /* \"Lab5_SmartContract/RPS.sol\":2276:2320  require(numPlayer == 2, \"Not enough player\") */\n      tag_128\n      jumpi\n      mload(0x40)\n      0x08c379a000000000000000000000000000000000000000000000000000000000\n      dup2\n      mstore\n      0x04\n      add\n      tag_129\n      swap1\n      tag_130\n      jump\t// in\n    tag_129:\n      mload(0x40)\n      dup1\n      swap2\n      sub\n      swap1\n      revert\n    tag_128:\n        /* \"Lab5_SmartContract/RPS.sol\":2362:2363  0 */\n      0x00\n        /* \"Lab5_SmartContract/RPS.sol\":2339:2363  commits[msg.sender] == 0 */\n      dup1\n      shl\n        /* \"Lab5_SmartContract/RPS.sol\":2339:2346  commits */\n      0x04\n        /* \"Lab5_SmartContract/RPS.sol\":2339:2358  commits[msg.sender] */\n      0x00\n        /* \"Lab5_SmartContract/RPS.sol\":2347:2357  msg.sender */\n      caller\n        /* \"Lab5_SmartContract/RPS.sol\":2339:2358  commits[msg.sender] */\n      0xffffffffffffffffffffffffffffffffffffffff\n      and\n      0xffffffffffffffffffffffffffffffffffffffff\n      and\n      dup2\n      mstore\n      0x20\n      add\n      swap1\n      dup2\n      mstore\n      0x20\n      add\n      0x00\n      keccak256\n      sload\n        /* \"Lab5_SmartContract/RPS.sol\":2339:2363  commits[msg.sender] == 0 */\n      eq\n        /* \"Lab5_SmartContract/RPS.sol\":2331:2389  require(commits[msg.sender] == 0, \"Move already commited\") */\n      tag_131\n      jumpi\n      mload(0x40)\n      0x08c379a000000000000000000000000000000000000000000000000000000000\n      dup2\n      mstore\n      0x04\n      add\n      tag_132\n      swap1\n      tag_133\n      jump\t// in\n    tag_132:\n      mload(0x40)\n      dup1\n      swap2\n      sub\n      swap1\n      revert\n    tag_131:\n        /* \"Lab5_SmartContract/RPS.sol\":2424:2434  hashedMove */\n      dup1\n        /* \"Lab5_SmartContract/RPS.sol\":2402:2409  commits */\n      0x04\n        /* \"Lab5_SmartContract/RPS.sol\":2402:2421  commits[msg.sender] */\n      0x00\n        /* \"Lab5_SmartContract/RPS.sol\":2410:2420  msg.sender */\n      caller\n        /* \"Lab5_SmartContract/RPS.sol\":2402:2421  commits[msg.sender] */\n      0xffffffffffffffffffffffffffffffffffffffff\n      and\n      0xffffffffffffffffffffffffffffffffffffffff\n      and\n      dup2\n      mstore\n      0x20\n      add\n      swap1\n      dup2\n      mstore\n      0x20\n      add\n      0x00\n      keccak256\n        /* \"Lab5_SmartContract/RPS.sol\":2402:2434  commits[msg.sender] = hashedMove */\n      dup2\n      swap1\n      sstore\n      pop\n        /* \"Lab5_SmartContract/RPS.sol\":2158:2442  function commitMove(bytes32 hashedMove) public {... */\n      pop\n      jump\t// out\n        /* \"Lab5_SmartContract/RPS.sol\":3849:4319  function withdrawIfTimeout() public {... */\n    tag_55:\n        /* \"Lab5_SmartContract/RPS.sol\":3918:3922  true */\n      0x01\n        /* \"Lab5_SmartContract/RPS.sol\":3904:3922  gameActive == true */\n      iszero\n      iszero\n        /* \"Lab5_SmartContract/RPS.sol\":3904:3914  gameActive */\n      0x03\n      0x00\n      swap1\n      sload\n      swap1\n      0x0100\n      exp\n      swap1\n      div\n      0xff\n      and\n        /* \"Lab5_SmartContract/RPS.sol\":3904:3922  gameActive == true */\n      iszero\n      iszero\n      eq\n        /* \"Lab5_SmartContract/RPS.sol\":3896:3946  require(gameActive == true, \"No game to withdraw\") */\n      tag_135\n      jumpi\n      mload(0x40)\n      0x08c379a000000000000000000000000000000000000000000000000000000000\n      dup2\n      mstore\n      0x04\n      add\n      tag_136\n      swap1\n      tag_137\n      jump\t// in\n    tag_136:\n      mload(0x40)\n      dup1\n      swap2\n      sub\n      swap1\n      revert\n    tag_135:\n        /* \"Lab5_SmartContract/RPS.sol\":3995:4004  5 minutes */\n      0x012c\n        /* \"Lab5_SmartContract/RPS.sol\":3983:3992  startTime */\n      sload(0x02)\n        /* \"Lab5_SmartContract/RPS.sol\":3983:4004  startTime + 5 minutes */\n      tag_138\n      swap2\n      swap1\n      tag_91\n      jump\t// in\n    tag_138:\n        /* \"Lab5_SmartContract/RPS.sol\":3965:3980  block.timestamp */\n      timestamp\n        /* \"Lab5_SmartContract/RPS.sol\":3965:4004  block.timestamp > startTime + 5 minutes */\n      gt\n        /* \"Lab5_SmartContract/RPS.sol\":3957:4082  require(block.timestamp > startTime + 5 minutes, \"You can only withdraw after 5 minutes if other player haven't make a move\") */\n      tag_139\n      jumpi\n      mload(0x40)\n      0x08c379a000000000000000000000000000000000000000000000000000000000\n      dup2\n      mstore\n      0x04\n      add\n      tag_140\n      swap1\n      tag_141\n      jump\t// in\n    tag_140:\n      mload(0x40)\n      dup1\n      swap2\n      sub\n      swap1\n      revert\n    tag_139:\n        /* \"Lab5_SmartContract/RPS.sol\":4100:4106  uint i */\n      0x00\n        /* \"Lab5_SmartContract/RPS.sol\":4095:4312  for (uint i = 0; i < players.length; i++) {... */\n    tag_142:\n        /* \"Lab5_SmartContract/RPS.sol\":4116:4123  players */\n      0x07\n        /* \"Lab5_SmartContract/RPS.sol\":4116:4130  players.length */\n      dup1\n      sload\n      swap1\n      pop\n        /* \"Lab5_SmartContract/RPS.sol\":4112:4113  i */\n      dup2\n        /* \"Lab5_SmartContract/RPS.sol\":4112:4130  i < players.length */\n      lt\n        /* \"Lab5_SmartContract/RPS.sol\":4095:4312  for (uint i = 0; i < players.length; i++) {... */\n      iszero\n      tag_143\n      jumpi\n        /* \"Lab5_SmartContract/RPS.sol\":4152:4174  address payable player */\n      0x00\n        /* \"Lab5_SmartContract/RPS.sol\":4185:4192  players */\n      0x07\n        /* \"Lab5_SmartContract/RPS.sol\":4193:4194  i */\n      dup3\n        /* \"Lab5_SmartContract/RPS.sol\":4185:4195  players[i] */\n      dup2\n      sload\n      dup2\n      lt\n      tag_145\n      jumpi\n      tag_146\n      tag_82\n      jump\t// in\n    tag_146:\n    tag_145:\n      swap1\n      0x00\n      mstore\n      keccak256(0x00, 0x20)\n      add\n      0x00\n      swap1\n      sload\n      swap1\n      0x0100\n      exp\n      swap1\n      div\n      0xffffffffffffffffffffffffffffffffffffffff\n      and\n        /* \"Lab5_SmartContract/RPS.sol\":4152:4196  address payable player = payable(players[i]) */\n      swap1\n      pop\n        /* \"Lab5_SmartContract/RPS.sol\":4235:4240  false */\n      0x00\n        /* \"Lab5_SmartContract/RPS.sol\":4215:4240  revealed[player] == false */\n      iszero\n      iszero\n        /* \"Lab5_SmartContract/RPS.sol\":4215:4223  revealed */\n      0x06\n        /* \"Lab5_SmartContract/RPS.sol\":4215:4231  revealed[player] */\n      0x00\n        /* \"Lab5_SmartContract/RPS.sol\":4224:4230  player */\n      dup4\n        /* \"Lab5_SmartContract/RPS.sol\":4215:4231  revealed[player] */\n      0xffffffffffffffffffffffffffffffffffffffff\n      and\n      0xffffffffffffffffffffffffffffffffffffffff\n      and\n      dup2\n      mstore\n      0x20\n      add\n      swap1\n      dup2\n      mstore\n      0x20\n      add\n      0x00\n      keccak256\n      0x00\n      swap1\n      sload\n      swap1\n      0x0100\n      exp\n      swap1\n      div\n      0xff\n      and\n        /* \"Lab5_SmartContract/RPS.sol\":4215:4240  revealed[player] == false */\n      iszero\n      iszero\n      sub\n        /* \"Lab5_SmartContract/RPS.sol\":4211:4301  if (revealed[player] == false) {... */\n      tag_148\n      jumpi\n        /* \"Lab5_SmartContract/RPS.sol\":4261:4267  player */\n      dup1\n        /* \"Lab5_SmartContract/RPS.sol\":4261:4276  player.transfer */\n      0xffffffffffffffffffffffffffffffffffffffff\n      and\n        /* \"Lab5_SmartContract/RPS.sol\":4261:4285  player.transfer(1 ether) */\n      0x08fc\n        /* \"Lab5_SmartContract/RPS.sol\":4277:4284  1 ether */\n      0x0de0b6b3a7640000\n        /* \"Lab5_SmartContract/RPS.sol\":4261:4285  player.transfer(1 ether) */\n      swap1\n      dup2\n      iszero\n      mul\n      swap1\n      mload(0x40)\n      0x00\n      mload(0x40)\n      dup1\n      dup4\n      sub\n      dup2\n      dup6\n      dup9\n      dup9\n      call\n      swap4\n      pop\n      pop\n      pop\n      pop\n      iszero\n      dup1\n      iszero\n      tag_150\n      jumpi\n      returndatasize\n      0x00\n      dup1\n      returndatacopy\n      revert(0x00, returndatasize)\n    tag_150:\n      pop\n        /* \"Lab5_SmartContract/RPS.sol\":4211:4301  if (revealed[player] == false) {... */\n    tag_148:\n        /* \"Lab5_SmartContract/RPS.sol\":4137:4312  {... */\n      pop\n        /* \"Lab5_SmartContract/RPS.sol\":4132:4135  i++ */\n      dup1\n      dup1\n      0x01\n      add\n      swap2\n      pop\n      pop\n        /* \"Lab5_SmartContract/RPS.sol\":4095:4312  for (uint i = 0; i < players.length; i++) {... */\n      jump(tag_142)\n    tag_143:\n      pop\n        /* \"Lab5_SmartContract/RPS.sol\":3849:4319  function withdrawIfTimeout() public {... */\n      jump\t// out\n        /* \"Lab5_SmartContract/RPS.sol\":399:446  mapping (address => uint) public player_choices */\n    tag_59:\n      mstore(0x20, 0x05)\n      dup1\n      0x00\n      mstore\n      keccak256(0x00, 0x40)\n      0x00\n      swap2\n      pop\n      swap1\n      pop\n      sload\n      dup2\n      jump\t// out\n        /* \"Lab5_SmartContract/RPS.sol\":243:273  bool public gameActive = false */\n    tag_63:\n      0x03\n      0x00\n      swap1\n      sload\n      swap1\n      0x0100\n      exp\n      swap1\n      div\n      0xff\n      and\n      dup2\n      jump\t// out\n        /* \"Lab5_SmartContract/RPS.sol\":503:527  address[] public players */\n    tag_69:\n      0x07\n      dup2\n      dup2\n      sload\n      dup2\n      lt\n      tag_151\n      jumpi\n      0x00\n      dup1\n      revert\n    tag_151:\n      swap1\n      0x00\n      mstore\n      keccak256(0x00, 0x20)\n      add\n      0x00\n      swap2\n      pop\n      sload\n      swap1\n      0x0100\n      exp\n      swap1\n      div\n      0xffffffffffffffffffffffffffffffffffffffff\n      and\n      dup2\n      jump\t// out\n        /* \"Lab5_SmartContract/RPS.sol\":3177:3841  function _findWinner() private {... */\n    tag_124:\n        /* \"Lab5_SmartContract/RPS.sol\":3219:3232  uint p0Choice */\n      0x00\n        /* \"Lab5_SmartContract/RPS.sol\":3235:3249  player_choices */\n      0x05\n        /* \"Lab5_SmartContract/RPS.sol\":3235:3261  player_choices[players[0]] */\n      0x00\n        /* \"Lab5_SmartContract/RPS.sol\":3250:3257  players */\n      0x07\n        /* \"Lab5_SmartContract/RPS.sol\":3258:3259  0 */\n      0x00\n        /* \"Lab5_SmartContract/RPS.sol\":3250:3260  players[0] */\n      dup2\n      sload\n      dup2\n      lt\n      tag_154\n      jumpi\n      tag_155\n      tag_82\n      jump\t// in\n    tag_155:\n    tag_154:\n      swap1\n      0x00\n      mstore\n      keccak256(0x00, 0x20)\n      add\n      0x00\n      swap1\n      sload\n      swap1\n      0x0100\n      exp\n      swap1\n      div\n      0xffffffffffffffffffffffffffffffffffffffff\n      and\n        /* \"Lab5_SmartContract/RPS.sol\":3235:3261  player_choices[players[0]] */\n      0xffffffffffffffffffffffffffffffffffffffff\n      and\n      0xffffffffffffffffffffffffffffffffffffffff\n      and\n      dup2\n      mstore\n      0x20\n      add\n      swap1\n      dup2\n      mstore\n      0x20\n      add\n      0x00\n      keccak256\n      sload\n        /* \"Lab5_SmartContract/RPS.sol\":3219:3261  uint p0Choice = player_choices[players[0]] */\n      swap1\n      pop\n        /* \"Lab5_SmartContract/RPS.sol\":3272:3285  uint p1Choice */\n      0x00\n        /* \"Lab5_SmartContract/RPS.sol\":3288:3302  player_choices */\n      0x05\n        /* \"Lab5_SmartContract/RPS.sol\":3288:3314  player_choices[players[1]] */\n      0x00\n        /* \"Lab5_SmartContract/RPS.sol\":3303:3310  players */\n      0x07\n        /* \"Lab5_SmartContract/RPS.sol\":3311:3312  1 */\n      0x01\n        /* \"Lab5_SmartContract/RPS.sol\":3303:3313  players[1] */\n      dup2\n      sload\n      dup2\n      lt\n      tag_157\n      jumpi\n      tag_158\n      tag_82\n      jump\t// in\n    tag_158:\n    tag_157:\n      swap1\n      0x00\n      mstore\n      keccak256(0x00, 0x20)\n      add\n      0x00\n      swap1\n      sload\n      swap1\n      0x0100\n      exp\n      swap1\n      div\n      0xffffffffffffffffffffffffffffffffffffffff\n      and\n        /* \"Lab5_SmartContract/RPS.sol\":3288:3314  player_choices[players[1]] */\n      0xffffffffffffffffffffffffffffffffffffffff\n      and\n      0xffffffffffffffffffffffffffffffffffffffff\n      and\n      dup2\n      mstore\n      0x20\n      add\n      swap1\n      dup2\n      mstore\n      0x20\n      add\n      0x00\n      keccak256\n      sload\n        /* \"Lab5_SmartContract/RPS.sol\":3272:3314  uint p1Choice = player_choices[players[1]] */\n      swap1\n      pop\n        /* \"Lab5_SmartContract/RPS.sol\":3325:3349  address payable account0 */\n      0x00\n        /* \"Lab5_SmartContract/RPS.sol\":3360:3367  players */\n      0x07\n        /* \"Lab5_SmartContract/RPS.sol\":3368:3369  0 */\n      0x00\n        /* \"Lab5_SmartContract/RPS.sol\":3360:3370  players[0] */\n      dup2\n      sload\n      dup2\n      lt\n      tag_160\n      jumpi\n      tag_161\n      tag_82\n      jump\t// in\n    tag_161:\n    tag_160:\n      swap1\n      0x00\n      mstore\n      keccak256(0x00, 0x20)\n      add\n      0x00\n      swap1\n      sload\n      swap1\n      0x0100\n      exp\n      swap1\n      div\n      0xffffffffffffffffffffffffffffffffffffffff\n      and\n        /* \"Lab5_SmartContract/RPS.sol\":3325:3371  address payable account0 = payable(players[0]) */\n      swap1\n      pop\n        /* \"Lab5_SmartContract/RPS.sol\":3382:3406  address payable account1 */\n      0x00\n        /* \"Lab5_SmartContract/RPS.sol\":3417:3424  players */\n      0x07\n        /* \"Lab5_SmartContract/RPS.sol\":3425:3426  1 */\n      0x01\n        /* \"Lab5_SmartContract/RPS.sol\":3417:3427  players[1] */\n      dup2\n      sload\n      dup2\n      lt\n      tag_163\n      jumpi\n      tag_164\n      tag_82\n      jump\t// in\n    tag_164:\n    tag_163:\n      swap1\n      0x00\n      mstore\n      keccak256(0x00, 0x20)\n      add\n      0x00\n      swap1\n      sload\n      swap1\n      0x0100\n      exp\n      swap1\n      div\n      0xffffffffffffffffffffffffffffffffffffffff\n      and\n        /* \"Lab5_SmartContract/RPS.sol\":3382:3428  address payable account1 = payable(players[1]) */\n      swap1\n      pop\n        /* \"Lab5_SmartContract/RPS.sol\":3475:3483  p1Choice */\n      dup3\n        /* \"Lab5_SmartContract/RPS.sol\":3470:3471  5 */\n      0x05\n        /* \"Lab5_SmartContract/RPS.sol\":3465:3466  1 */\n      0x01\n        /* \"Lab5_SmartContract/RPS.sol\":3454:3462  p0Choice */\n      dup7\n        /* \"Lab5_SmartContract/RPS.sol\":3454:3466  p0Choice + 1 */\n      tag_166\n      swap2\n      swap1\n      tag_91\n      jump\t// in\n    tag_166:\n        /* \"Lab5_SmartContract/RPS.sol\":3453:3471  (p0Choice + 1) % 5 */\n      tag_167\n      swap2\n      swap1\n      tag_168\n      jump\t// in\n    tag_167:\n        /* \"Lab5_SmartContract/RPS.sol\":3453:3483  (p0Choice + 1) % 5 == p1Choice */\n      eq\n        /* \"Lab5_SmartContract/RPS.sol\":3453:3517  (p0Choice + 1) % 5 == p1Choice || (p0Choice + 3) % 5 == p1Choice */\n      dup1\n      tag_169\n      jumpi\n      pop\n        /* \"Lab5_SmartContract/RPS.sol\":3509:3517  p1Choice */\n      dup3\n        /* \"Lab5_SmartContract/RPS.sol\":3504:3505  5 */\n      0x05\n        /* \"Lab5_SmartContract/RPS.sol\":3499:3500  3 */\n      0x03\n        /* \"Lab5_SmartContract/RPS.sol\":3488:3496  p0Choice */\n      dup7\n        /* \"Lab5_SmartContract/RPS.sol\":3488:3500  p0Choice + 3 */\n      tag_170\n      swap2\n      swap1\n      tag_91\n      jump\t// in\n    tag_170:\n        /* \"Lab5_SmartContract/RPS.sol\":3487:3505  (p0Choice + 3) % 5 */\n      tag_171\n      swap2\n      swap1\n      tag_168\n      jump\t// in\n    tag_171:\n        /* \"Lab5_SmartContract/RPS.sol\":3487:3517  (p0Choice + 3) % 5 == p1Choice */\n      eq\n        /* \"Lab5_SmartContract/RPS.sol\":3453:3517  (p0Choice + 1) % 5 == p1Choice || (p0Choice + 3) % 5 == p1Choice */\n    tag_169:\n        /* \"Lab5_SmartContract/RPS.sol\":3449:3809  if ((p0Choice + 1) % 5 == p1Choice || (p0Choice + 3) % 5 == p1Choice) {... */\n      iszero\n      tag_172\n      jumpi\n        /* \"Lab5_SmartContract/RPS.sol\":3534:3542  account1 */\n      dup1\n        /* \"Lab5_SmartContract/RPS.sol\":3534:3551  account1.transfer */\n      0xffffffffffffffffffffffffffffffffffffffff\n      and\n        /* \"Lab5_SmartContract/RPS.sol\":3534:3559  account1.transfer(reward) */\n      0x08fc\n        /* \"Lab5_SmartContract/RPS.sol\":3552:3558  reward */\n      sload(0x01)\n        /* \"Lab5_SmartContract/RPS.sol\":3534:3559  account1.transfer(reward) */\n      swap1\n      dup2\n      iszero\n      mul\n      swap1\n      mload(0x40)\n      0x00\n      mload(0x40)\n      dup1\n      dup4\n      sub\n      dup2\n      dup6\n      dup9\n      dup9\n      call\n      swap4\n      pop\n      pop\n      pop\n      pop\n      iszero\n      dup1\n      iszero\n      tag_174\n      jumpi\n      returndatasize\n      0x00\n      dup1\n      returndatacopy\n      revert(0x00, returndatasize)\n    tag_174:\n      pop\n        /* \"Lab5_SmartContract/RPS.sol\":3449:3809  if ((p0Choice + 1) % 5 == p1Choice || (p0Choice + 3) % 5 == p1Choice) {... */\n      jump(tag_175)\n    tag_172:\n        /* \"Lab5_SmartContract/RPS.sol\":3603:3611  p0Choice */\n      dup4\n        /* \"Lab5_SmartContract/RPS.sol\":3598:3599  5 */\n      0x05\n        /* \"Lab5_SmartContract/RPS.sol\":3593:3594  1 */\n      0x01\n        /* \"Lab5_SmartContract/RPS.sol\":3582:3590  p1Choice */\n      dup6\n        /* \"Lab5_SmartContract/RPS.sol\":3582:3594  p1Choice + 1 */\n      tag_176\n      swap2\n      swap1\n      tag_91\n      jump\t// in\n    tag_176:\n        /* \"Lab5_SmartContract/RPS.sol\":3581:3599  (p1Choice + 1) % 5 */\n      tag_177\n      swap2\n      swap1\n      tag_168\n      jump\t// in\n    tag_177:\n        /* \"Lab5_SmartContract/RPS.sol\":3581:3611  (p1Choice + 1) % 5 == p0Choice */\n      eq\n        /* \"Lab5_SmartContract/RPS.sol\":3581:3645  (p1Choice + 1) % 5 == p0Choice || (p1Choice + 3) % 5 == p0Choice */\n      dup1\n      tag_178\n      jumpi\n      pop\n        /* \"Lab5_SmartContract/RPS.sol\":3637:3645  p0Choice */\n      dup4\n        /* \"Lab5_SmartContract/RPS.sol\":3632:3633  5 */\n      0x05\n        /* \"Lab5_SmartContract/RPS.sol\":3627:3628  3 */\n      0x03\n        /* \"Lab5_SmartContract/RPS.sol\":3616:3624  p1Choice */\n      dup6\n        /* \"Lab5_SmartContract/RPS.sol\":3616:3628  p1Choice + 3 */\n      tag_179\n      swap2\n      swap1\n      tag_91\n      jump\t// in\n    tag_179:\n        /* \"Lab5_SmartContract/RPS.sol\":3615:3633  (p1Choice + 3) % 5 */\n      tag_180\n      swap2\n      swap1\n      tag_168\n      jump\t// in\n    tag_180:\n        /* \"Lab5_SmartContract/RPS.sol\":3615:3645  (p1Choice + 3) % 5 == p0Choice */\n      eq\n        /* \"Lab5_SmartContract/RPS.sol\":3581:3645  (p1Choice + 1) % 5 == p0Choice || (p1Choice + 3) % 5 == p0Choice */\n    tag_178:\n        /* \"Lab5_SmartContract/RPS.sol\":3577:3809  if ((p1Choice + 1) % 5 == p0Choice || (p1Choice + 3) % 5 == p0Choice) {... */\n      iszero\n      tag_181\n      jumpi\n        /* \"Lab5_SmartContract/RPS.sol\":3662:3670  account0 */\n      dup2\n        /* \"Lab5_SmartContract/RPS.sol\":3662:3679  account0.transfer */\n      0xffffffffffffffffffffffffffffffffffffffff\n      and\n        /* \"Lab5_SmartContract/RPS.sol\":3662:3687  account0.transfer(reward) */\n      0x08fc\n        /* \"Lab5_SmartContract/RPS.sol\":3680:3686  reward */\n      sload(0x01)\n        /* \"Lab5_SmartContract/RPS.sol\":3662:3687  account0.transfer(reward) */\n      swap1\n      dup2\n      iszero\n      mul\n      swap1\n      mload(0x40)\n      0x00\n      mload(0x40)\n      dup1\n      dup4\n      sub\n      dup2\n      dup6\n      dup9\n      dup9\n      call\n      swap4\n      pop\n      pop\n      pop\n      pop\n      iszero\n      dup1\n      iszero\n      tag_183\n      jumpi\n      returndatasize\n      0x00\n      dup1\n      returndatacopy\n      revert(0x00, returndatasize)\n    tag_183:\n      pop\n        /* \"Lab5_SmartContract/RPS.sol\":3577:3809  if ((p1Choice + 1) % 5 == p0Choice || (p1Choice + 3) % 5 == p0Choice) {... */\n      jump(tag_184)\n    tag_181:\n        /* \"Lab5_SmartContract/RPS.sol\":3724:3732  account0 */\n      dup2\n        /* \"Lab5_SmartContract/RPS.sol\":3724:3741  account0.transfer */\n      0xffffffffffffffffffffffffffffffffffffffff\n      and\n        /* \"Lab5_SmartContract/RPS.sol\":3724:3753  account0.transfer(reward / 2) */\n      0x08fc\n        /* \"Lab5_SmartContract/RPS.sol\":3751:3752  2 */\n      0x02\n        /* \"Lab5_SmartContract/RPS.sol\":3742:3748  reward */\n      sload(0x01)\n        /* \"Lab5_SmartContract/RPS.sol\":3742:3752  reward / 2 */\n      tag_185\n      swap2\n      swap1\n      tag_186\n      jump\t// in\n    tag_185:\n        /* \"Lab5_SmartContract/RPS.sol\":3724:3753  account0.transfer(reward / 2) */\n      swap1\n      dup2\n      iszero\n      mul\n      swap1\n      mload(0x40)\n      0x00\n      mload(0x40)\n      dup1\n      dup4\n      sub\n      dup2\n      dup6\n      dup9\n      dup9\n      call\n      swap4\n      pop\n      pop\n      pop\n      pop\n      iszero\n      dup1\n      iszero\n      tag_188\n      jumpi\n      returndatasize\n      0x00\n      dup1\n      returndatacopy\n      revert(0x00, returndatasize)\n    tag_188:\n      pop\n        /* \"Lab5_SmartContract/RPS.sol\":3768:3776  account1 */\n      dup1\n        /* \"Lab5_SmartContract/RPS.sol\":3768:3785  account1.transfer */\n      0xffffffffffffffffffffffffffffffffffffffff\n      and\n        /* \"Lab5_SmartContract/RPS.sol\":3768:3797  account1.transfer(reward / 2) */\n      0x08fc\n        /* \"Lab5_SmartContract/RPS.sol\":3795:3796  2 */\n      0x02\n        /* \"Lab5_SmartContract/RPS.sol\":3786:3792  reward */\n      sload(0x01)\n        /* \"Lab5_SmartContract/RPS.sol\":3786:3796  reward / 2 */\n      tag_189\n      swap2\n      swap1\n      tag_186\n      jump\t// in\n    tag_189:\n        /* \"Lab5_SmartContract/RPS.sol\":3768:3797  account1.transfer(reward / 2) */\n      swap1\n      dup2\n      iszero\n      mul\n      swap1\n      mload(0x40)\n      0x00\n      mload(0x40)\n      dup1\n      dup4\n      sub\n      dup2\n      dup6\n      dup9\n      dup9\n      call\n      swap4\n      pop\n      pop\n      pop\n      pop\n      iszero\n      dup1\n      iszero\n      tag_191\n      jumpi\n      returndatasize\n      0x00\n      dup1\n      returndatacopy\n      revert(0x00, returndatasize)\n    tag_191:\n      pop\n        /* \"Lab5_SmartContract/RPS.sol\":3577:3809  if ((p1Choice + 1) % 5 == p0Choice || (p1Choice + 3) % 5 == p0Choice) {... */\n    tag_184:\n        /* \"Lab5_SmartContract/RPS.sol\":3449:3809  if ((p0Choice + 1) % 5 == p1Choice || (p0Choice + 3) % 5 == p1Choice) {... */\n    tag_175:\n        /* \"Lab5_SmartContract/RPS.sol\":3821:3833  _resetGame() */\n      tag_192\n        /* \"Lab5_SmartContract/RPS.sol\":3821:3831  _resetGame */\n      tag_193\n        /* \"Lab5_SmartContract/RPS.sol\":3821:3833  _resetGame() */\n      jump\t// in\n    tag_192:\n        /* \"Lab5_SmartContract/RPS.sol\":3208:3841  {... */\n      pop\n      pop\n      pop\n      pop\n        /* \"Lab5_SmartContract/RPS.sol\":3177:3841  function _findWinner() private {... */\n      jump\t// out\n        /* \"Lab5_SmartContract/RPS.sol\":4327:4464  function _resetGame() private {... */\n    tag_193:\n        /* \"Lab5_SmartContract/RPS.sol\":4380:4381  0 */\n      0x00\n        /* \"Lab5_SmartContract/RPS.sol\":4368:4377  numPlayer */\n      dup1\n        /* \"Lab5_SmartContract/RPS.sol\":4368:4381  numPlayer = 0 */\n      dup2\n      swap1\n      sstore\n      pop\n        /* \"Lab5_SmartContract/RPS.sol\":4401:4402  0 */\n      0x00\n        /* \"Lab5_SmartContract/RPS.sol\":4392:4398  reward */\n      0x01\n        /* \"Lab5_SmartContract/RPS.sol\":4392:4402  reward = 0 */\n      dup2\n      swap1\n      sstore\n      pop\n        /* \"Lab5_SmartContract/RPS.sol\":4420:4427  players */\n      0x07\n      0x00\n        /* \"Lab5_SmartContract/RPS.sol\":4413:4427  delete players */\n      tag_195\n      swap2\n      swap1\n      tag_196\n      jump\t// in\n    tag_195:\n        /* \"Lab5_SmartContract/RPS.sol\":4451:4456  false */\n      0x00\n        /* \"Lab5_SmartContract/RPS.sol\":4438:4448  gameActive */\n      0x03\n      0x00\n        /* \"Lab5_SmartContract/RPS.sol\":4438:4456  gameActive = false */\n      0x0100\n      exp\n      dup2\n      sload\n      dup2\n      0xff\n      mul\n      not\n      and\n      swap1\n      dup4\n      iszero\n      iszero\n      mul\n      or\n      swap1\n      sstore\n      pop\n        /* \"Lab5_SmartContract/RPS.sol\":4327:4464  function _resetGame() private {... */\n      jump\t// out\n    tag_196:\n      pop\n      dup1\n      sload\n      0x00\n      dup3\n      sstore\n      swap1\n      0x00\n      mstore\n      keccak256(0x00, 0x20)\n      swap1\n      dup2\n      add\n      swap1\n      tag_198\n      swap2\n      swap1\n      tag_199\n      jump\t// in\n    tag_198:\n      pop\n      jump\t// out\n    tag_199:\n    tag_200:\n      dup1\n      dup3\n      gt\n      iszero\n      tag_201\n      jumpi\n      0x00\n      dup2\n      0x00\n      swap1\n      sstore\n      pop\n      0x01\n      add\n      jump(tag_200)\n    tag_201:\n      pop\n      swap1\n      jump\t// out\n        /* \"#utility.yul\":7:84   */\n    tag_202:\n        /* \"#utility.yul\":44:51   */\n      0x00\n        /* \"#utility.yul\":73:78   */\n      dup2\n        /* \"#utility.yul\":62:78   */\n      swap1\n      pop\n        /* \"#utility.yul\":7:84   */\n      swap2\n      swap1\n      pop\n      jump\t// out\n        /* \"#utility.yul\":90:208   */\n    tag_203:\n        /* \"#utility.yul\":177:201   */\n      tag_268\n        /* \"#utility.yul\":195:200   */\n      dup2\n        /* \"#utility.yul\":177:201   */\n      tag_202\n      jump\t// in\n    tag_268:\n        /* \"#utility.yul\":172:175   */\n      dup3\n        /* \"#utility.yul\":165:202   */\n      mstore\n        /* \"#utility.yul\":90:208   */\n      pop\n      pop\n      jump\t// out\n        /* \"#utility.yul\":214:436   */\n    tag_19:\n        /* \"#utility.yul\":307:311   */\n      0x00\n        /* \"#utility.yul\":345:347   */\n      0x20\n        /* \"#utility.yul\":334:343   */\n      dup3\n        /* \"#utility.yul\":330:348   */\n      add\n        /* \"#utility.yul\":322:348   */\n      swap1\n      pop\n        /* \"#utility.yul\":358:429   */\n      tag_270\n        /* \"#utility.yul\":426:427   */\n      0x00\n        /* \"#utility.yul\":415:424   */\n      dup4\n        /* \"#utility.yul\":411:428   */\n      add\n        /* \"#utility.yul\":402:408   */\n      dup5\n        /* \"#utility.yul\":358:429   */\n      tag_203\n      jump\t// in\n    tag_270:\n        /* \"#utility.yul\":214:436   */\n      swap3\n      swap2\n      pop\n      pop\n      jump\t// out\n        /* \"#utility.yul\":442:517   */\n    tag_204:\n        /* \"#utility.yul\":475:481   */\n      0x00\n        /* \"#utility.yul\":508:510   */\n      0x40\n        /* \"#utility.yul\":502:511   */\n      mload\n        /* \"#utility.yul\":492:511   */\n      swap1\n      pop\n        /* \"#utility.yul\":442:517   */\n      swap1\n      jump\t// out\n        /* \"#utility.yul\":523:640   */\n    tag_205:\n        /* \"#utility.yul\":632:633   */\n      0x00\n        /* \"#utility.yul\":629:630   */\n      dup1\n        /* \"#utility.yul\":622:634   */\n      revert\n        /* \"#utility.yul\":646:763   */\n    tag_206:\n        /* \"#utility.yul\":755:756   */\n      0x00\n        /* \"#utility.yul\":752:753   */\n      dup1\n        /* \"#utility.yul\":745:757   */\n      revert\n        /* \"#utility.yul\":769:895   */\n    tag_207:\n        /* \"#utility.yul\":806:813   */\n      0x00\n        /* \"#utility.yul\":846:888   */\n      0xffffffffffffffffffffffffffffffffffffffff\n        /* \"#utility.yul\":839:844   */\n      dup3\n        /* \"#utility.yul\":835:889   */\n      and\n        /* \"#utility.yul\":824:889   */\n      swap1\n      pop\n        /* \"#utility.yul\":769:895   */\n      swap2\n      swap1\n      pop\n      jump\t// out\n        /* \"#utility.yul\":901:997   */\n    tag_208:\n        /* \"#utility.yul\":938:945   */\n      0x00\n        /* \"#utility.yul\":967:991   */\n      tag_276\n        /* \"#utility.yul\":985:990   */\n      dup3\n        /* \"#utility.yul\":967:991   */\n      tag_207\n      jump\t// in\n    tag_276:\n        /* \"#utility.yul\":956:991   */\n      swap1\n      pop\n        /* \"#utility.yul\":901:997   */\n      swap2\n      swap1\n      pop\n      jump\t// out\n        /* \"#utility.yul\":1003:1125   */\n    tag_209:\n        /* \"#utility.yul\":1076:1100   */\n      tag_278\n        /* \"#utility.yul\":1094:1099   */\n      dup2\n        /* \"#utility.yul\":1076:1100   */\n      tag_208\n      jump\t// in\n    tag_278:\n        /* \"#utility.yul\":1069:1074   */\n      dup2\n        /* \"#utility.yul\":1066:1101   */\n      eq\n        /* \"#utility.yul\":1056:1119   */\n      tag_279\n      jumpi\n        /* \"#utility.yul\":1115:1116   */\n      0x00\n        /* \"#utility.yul\":1112:1113   */\n      dup1\n        /* \"#utility.yul\":1105:1117   */\n      revert\n        /* \"#utility.yul\":1056:1119   */\n    tag_279:\n        /* \"#utility.yul\":1003:1125   */\n      pop\n      jump\t// out\n        /* \"#utility.yul\":1131:1270   */\n    tag_210:\n        /* \"#utility.yul\":1177:1182   */\n      0x00\n        /* \"#utility.yul\":1215:1221   */\n      dup2\n        /* \"#utility.yul\":1202:1222   */\n      calldataload\n        /* \"#utility.yul\":1193:1222   */\n      swap1\n      pop\n        /* \"#utility.yul\":1231:1264   */\n      tag_281\n        /* \"#utility.yul\":1258:1263   */\n      dup2\n        /* \"#utility.yul\":1231:1264   */\n      tag_209\n      jump\t// in\n    tag_281:\n        /* \"#utility.yul\":1131:1270   */\n      swap3\n      swap2\n      pop\n      pop\n      jump\t// out\n        /* \"#utility.yul\":1276:1605   */\n    tag_25:\n        /* \"#utility.yul\":1335:1341   */\n      0x00\n        /* \"#utility.yul\":1384:1386   */\n      0x20\n        /* \"#utility.yul\":1372:1381   */\n      dup3\n        /* \"#utility.yul\":1363:1370   */\n      dup5\n        /* \"#utility.yul\":1359:1382   */\n      sub\n        /* \"#utility.yul\":1355:1387   */\n      slt\n        /* \"#utility.yul\":1352:1471   */\n      iszero\n      tag_283\n      jumpi\n        /* \"#utility.yul\":1390:1469   */\n      tag_284\n      tag_205\n      jump\t// in\n    tag_284:\n        /* \"#utility.yul\":1352:1471   */\n    tag_283:\n        /* \"#utility.yul\":1510:1511   */\n      0x00\n        /* \"#utility.yul\":1535:1588   */\n      tag_285\n        /* \"#utility.yul\":1580:1587   */\n      dup5\n        /* \"#utility.yul\":1571:1577   */\n      dup3\n        /* \"#utility.yul\":1560:1569   */\n      dup6\n        /* \"#utility.yul\":1556:1578   */\n      add\n        /* \"#utility.yul\":1535:1588   */\n      tag_210\n      jump\t// in\n    tag_285:\n        /* \"#utility.yul\":1525:1588   */\n      swap2\n      pop\n        /* \"#utility.yul\":1481:1598   */\n      pop\n        /* \"#utility.yul\":1276:1605   */\n      swap3\n      swap2\n      pop\n      pop\n      jump\t// out\n        /* \"#utility.yul\":1611:1701   */\n    tag_211:\n        /* \"#utility.yul\":1645:1652   */\n      0x00\n        /* \"#utility.yul\":1688:1693   */\n      dup2\n        /* \"#utility.yul\":1681:1694   */\n      iszero\n        /* \"#utility.yul\":1674:1695   */\n      iszero\n        /* \"#utility.yul\":1663:1695   */\n      swap1\n      pop\n        /* \"#utility.yul\":1611:1701   */\n      swap2\n      swap1\n      pop\n      jump\t// out\n        /* \"#utility.yul\":1707:1816   */\n    tag_212:\n        /* \"#utility.yul\":1788:1809   */\n      tag_288\n        /* \"#utility.yul\":1803:1808   */\n      dup2\n        /* \"#utility.yul\":1788:1809   */\n      tag_211\n      jump\t// in\n    tag_288:\n        /* \"#utility.yul\":1783:1786   */\n      dup3\n        /* \"#utility.yul\":1776:1810   */\n      mstore\n        /* \"#utility.yul\":1707:1816   */\n      pop\n      pop\n      jump\t// out\n        /* \"#utility.yul\":1822:2032   */\n    tag_28:\n        /* \"#utility.yul\":1909:1913   */\n      0x00\n        /* \"#utility.yul\":1947:1949   */\n      0x20\n        /* \"#utility.yul\":1936:1945   */\n      dup3\n        /* \"#utility.yul\":1932:1950   */\n      add\n        /* \"#utility.yul\":1924:1950   */\n      swap1\n      pop\n        /* \"#utility.yul\":1960:2025   */\n      tag_290\n        /* \"#utility.yul\":2022:2023   */\n      0x00\n        /* \"#utility.yul\":2011:2020   */\n      dup4\n        /* \"#utility.yul\":2007:2024   */\n      add\n        /* \"#utility.yul\":1998:2004   */\n      dup5\n        /* \"#utility.yul\":1960:2025   */\n      tag_212\n      jump\t// in\n    tag_290:\n        /* \"#utility.yul\":1822:2032   */\n      swap3\n      swap2\n      pop\n      pop\n      jump\t// out\n        /* \"#utility.yul\":2038:2160   */\n    tag_213:\n        /* \"#utility.yul\":2111:2135   */\n      tag_292\n        /* \"#utility.yul\":2129:2134   */\n      dup2\n        /* \"#utility.yul\":2111:2135   */\n      tag_202\n      jump\t// in\n    tag_292:\n        /* \"#utility.yul\":2104:2109   */\n      dup2\n        /* \"#utility.yul\":2101:2136   */\n      eq\n        /* \"#utility.yul\":2091:2154   */\n      tag_293\n      jumpi\n        /* \"#utility.yul\":2150:2151   */\n      0x00\n        /* \"#utility.yul\":2147:2148   */\n      dup1\n        /* \"#utility.yul\":2140:2152   */\n      revert\n        /* \"#utility.yul\":2091:2154   */\n    tag_293:\n        /* \"#utility.yul\":2038:2160   */\n      pop\n      jump\t// out\n        /* \"#utility.yul\":2166:2305   */\n    tag_214:\n        /* \"#utility.yul\":2212:2217   */\n      0x00\n        /* \"#utility.yul\":2250:2256   */\n      dup2\n        /* \"#utility.yul\":2237:2257   */\n      calldataload\n        /* \"#utility.yul\":2228:2257   */\n      swap1\n      pop\n        /* \"#utility.yul\":2266:2299   */\n      tag_295\n        /* \"#utility.yul\":2293:2298   */\n      dup2\n        /* \"#utility.yul\":2266:2299   */\n      tag_213\n      jump\t// in\n    tag_295:\n        /* \"#utility.yul\":2166:2305   */\n      swap3\n      swap2\n      pop\n      pop\n      jump\t// out\n        /* \"#utility.yul\":2311:2428   */\n    tag_215:\n        /* \"#utility.yul\":2420:2421   */\n      0x00\n        /* \"#utility.yul\":2417:2418   */\n      dup1\n        /* \"#utility.yul\":2410:2422   */\n      revert\n        /* \"#utility.yul\":2434:2551   */\n    tag_216:\n        /* \"#utility.yul\":2543:2544   */\n      0x00\n        /* \"#utility.yul\":2540:2541   */\n      dup1\n        /* \"#utility.yul\":2533:2545   */\n      revert\n        /* \"#utility.yul\":2557:2659   */\n    tag_217:\n        /* \"#utility.yul\":2598:2604   */\n      0x00\n        /* \"#utility.yul\":2649:2651   */\n      0x1f\n        /* \"#utility.yul\":2645:2652   */\n      not\n        /* \"#utility.yul\":2640:2642   */\n      0x1f\n        /* \"#utility.yul\":2633:2638   */\n      dup4\n        /* \"#utility.yul\":2629:2643   */\n      add\n        /* \"#utility.yul\":2625:2653   */\n      and\n        /* \"#utility.yul\":2615:2653   */\n      swap1\n      pop\n        /* \"#utility.yul\":2557:2659   */\n      swap2\n      swap1\n      pop\n      jump\t// out\n        /* \"#utility.yul\":2665:2845   */\n    tag_218:\n        /* \"#utility.yul\":2713:2790   */\n      0x4e487b7100000000000000000000000000000000000000000000000000000000\n        /* \"#utility.yul\":2710:2711   */\n      0x00\n        /* \"#utility.yul\":2703:2791   */\n      mstore\n        /* \"#utility.yul\":2810:2814   */\n      0x41\n        /* \"#utility.yul\":2807:2808   */\n      0x04\n        /* \"#utility.yul\":2800:2815   */\n      mstore\n        /* \"#utility.yul\":2834:2838   */\n      0x24\n        /* \"#utility.yul\":2831:2832   */\n      0x00\n        /* \"#utility.yul\":2824:2839   */\n      revert\n        /* \"#utility.yul\":2851:3132   */\n    tag_219:\n        /* \"#utility.yul\":2934:2961   */\n      tag_301\n        /* \"#utility.yul\":2956:2960   */\n      dup3\n        /* \"#utility.yul\":2934:2961   */\n      tag_217\n      jump\t// in\n    tag_301:\n        /* \"#utility.yul\":2926:2932   */\n      dup2\n        /* \"#utility.yul\":2922:2962   */\n      add\n        /* \"#utility.yul\":3064:3070   */\n      dup2\n        /* \"#utility.yul\":3052:3062   */\n      dup2\n        /* \"#utility.yul\":3049:3071   */\n      lt\n        /* \"#utility.yul\":3028:3046   */\n      0xffffffffffffffff\n        /* \"#utility.yul\":3016:3026   */\n      dup3\n        /* \"#utility.yul\":3013:3047   */\n      gt\n        /* \"#utility.yul\":3010:3072   */\n      or\n        /* \"#utility.yul\":3007:3095   */\n      iszero\n      tag_302\n      jumpi\n        /* \"#utility.yul\":3075:3093   */\n      tag_303\n      tag_218\n      jump\t// in\n    tag_303:\n        /* \"#utility.yul\":3007:3095   */\n    tag_302:\n        /* \"#utility.yul\":3115:3125   */\n      dup1\n        /* \"#utility.yul\":3111:3113   */\n      0x40\n        /* \"#utility.yul\":3104:3126   */\n      mstore\n        /* \"#utility.yul\":2894:3132   */\n      pop\n        /* \"#utility.yul\":2851:3132   */\n      pop\n      pop\n      jump\t// out\n        /* \"#utility.yul\":3138:3267   */\n    tag_220:\n        /* \"#utility.yul\":3172:3178   */\n      0x00\n        /* \"#utility.yul\":3199:3219   */\n      tag_305\n      tag_204\n      jump\t// in\n    tag_305:\n        /* \"#utility.yul\":3189:3219   */\n      swap1\n      pop\n        /* \"#utility.yul\":3228:3261   */\n      tag_306\n        /* \"#utility.yul\":3256:3260   */\n      dup3\n        /* \"#utility.yul\":3248:3254   */\n      dup3\n        /* \"#utility.yul\":3228:3261   */\n      tag_219\n      jump\t// in\n    tag_306:\n        /* \"#utility.yul\":3138:3267   */\n      swap2\n      swap1\n      pop\n      jump\t// out\n        /* \"#utility.yul\":3273:3581   */\n    tag_221:\n        /* \"#utility.yul\":3335:3339   */\n      0x00\n        /* \"#utility.yul\":3425:3443   */\n      0xffffffffffffffff\n        /* \"#utility.yul\":3417:3423   */\n      dup3\n        /* \"#utility.yul\":3414:3444   */\n      gt\n        /* \"#utility.yul\":3411:3467   */\n      iszero\n      tag_308\n      jumpi\n        /* \"#utility.yul\":3447:3465   */\n      tag_309\n      tag_218\n      jump\t// in\n    tag_309:\n        /* \"#utility.yul\":3411:3467   */\n    tag_308:\n        /* \"#utility.yul\":3485:3514   */\n      tag_310\n        /* \"#utility.yul\":3507:3513   */\n      dup3\n        /* \"#utility.yul\":3485:3514   */\n      tag_217\n      jump\t// in\n    tag_310:\n        /* \"#utility.yul\":3477:3514   */\n      swap1\n      pop\n        /* \"#utility.yul\":3569:3573   */\n      0x20\n        /* \"#utility.yul\":3563:3567   */\n      dup2\n        /* \"#utility.yul\":3559:3574   */\n      add\n        /* \"#utility.yul\":3551:3574   */\n      swap1\n      pop\n        /* \"#utility.yul\":3273:3581   */\n      swap2\n      swap1\n      pop\n      jump\t// out\n        /* \"#utility.yul\":3587:3735   */\n    tag_222:\n        /* \"#utility.yul\":3685:3691   */\n      dup3\n        /* \"#utility.yul\":3680:3683   */\n      dup2\n        /* \"#utility.yul\":3675:3678   */\n      dup4\n        /* \"#utility.yul\":3662:3692   */\n      calldatacopy\n        /* \"#utility.yul\":3726:3727   */\n      0x00\n        /* \"#utility.yul\":3717:3723   */\n      dup4\n        /* \"#utility.yul\":3712:3715   */\n      dup4\n        /* \"#utility.yul\":3708:3724   */\n      add\n        /* \"#utility.yul\":3701:3728   */\n      mstore\n        /* \"#utility.yul\":3587:3735   */\n      pop\n      pop\n      pop\n      jump\t// out\n        /* \"#utility.yul\":3741:4166   */\n    tag_223:\n        /* \"#utility.yul\":3819:3824   */\n      0x00\n        /* \"#utility.yul\":3844:3910   */\n      tag_313\n        /* \"#utility.yul\":3860:3909   */\n      tag_314\n        /* \"#utility.yul\":3902:3908   */\n      dup5\n        /* \"#utility.yul\":3860:3909   */\n      tag_221\n      jump\t// in\n    tag_314:\n        /* \"#utility.yul\":3844:3910   */\n      tag_220\n      jump\t// in\n    tag_313:\n        /* \"#utility.yul\":3835:3910   */\n      swap1\n      pop\n        /* \"#utility.yul\":3933:3939   */\n      dup3\n        /* \"#utility.yul\":3926:3931   */\n      dup2\n        /* \"#utility.yul\":3919:3940   */\n      mstore\n        /* \"#utility.yul\":3971:3975   */\n      0x20\n        /* \"#utility.yul\":3964:3969   */\n      dup2\n        /* \"#utility.yul\":3960:3976   */\n      add\n        /* \"#utility.yul\":4009:4012   */\n      dup5\n        /* \"#utility.yul\":4000:4006   */\n      dup5\n        /* \"#utility.yul\":3995:3998   */\n      dup5\n        /* \"#utility.yul\":3991:4007   */\n      add\n        /* \"#utility.yul\":3988:4013   */\n      gt\n        /* \"#utility.yul\":3985:4097   */\n      iszero\n      tag_315\n      jumpi\n        /* \"#utility.yul\":4016:4095   */\n      tag_316\n      tag_216\n      jump\t// in\n    tag_316:\n        /* \"#utility.yul\":3985:4097   */\n    tag_315:\n        /* \"#utility.yul\":4106:4160   */\n      tag_317\n        /* \"#utility.yul\":4153:4159   */\n      dup5\n        /* \"#utility.yul\":4148:4151   */\n      dup3\n        /* \"#utility.yul\":4143:4146   */\n      dup6\n        /* \"#utility.yul\":4106:4160   */\n      tag_222\n      jump\t// in\n    tag_317:\n        /* \"#utility.yul\":3825:4166   */\n      pop\n        /* \"#utility.yul\":3741:4166   */\n      swap4\n      swap3\n      pop\n      pop\n      pop\n      jump\t// out\n        /* \"#utility.yul\":4186:4526   */\n    tag_224:\n        /* \"#utility.yul\":4242:4247   */\n      0x00\n        /* \"#utility.yul\":4291:4294   */\n      dup3\n        /* \"#utility.yul\":4284:4288   */\n      0x1f\n        /* \"#utility.yul\":4276:4282   */\n      dup4\n        /* \"#utility.yul\":4272:4289   */\n      add\n        /* \"#utility.yul\":4268:4295   */\n      slt\n        /* \"#utility.yul\":4258:4380   */\n      tag_319\n      jumpi\n        /* \"#utility.yul\":4299:4378   */\n      tag_320\n      tag_215\n      jump\t// in\n    tag_320:\n        /* \"#utility.yul\":4258:4380   */\n    tag_319:\n        /* \"#utility.yul\":4416:4422   */\n      dup2\n        /* \"#utility.yul\":4403:4423   */\n      calldataload\n        /* \"#utility.yul\":4441:4520   */\n      tag_321\n        /* \"#utility.yul\":4516:4519   */\n      dup5\n        /* \"#utility.yul\":4508:4514   */\n      dup3\n        /* \"#utility.yul\":4501:4505   */\n      0x20\n        /* \"#utility.yul\":4493:4499   */\n      dup7\n        /* \"#utility.yul\":4489:4506   */\n      add\n        /* \"#utility.yul\":4441:4520   */\n      tag_223\n      jump\t// in\n    tag_321:\n        /* \"#utility.yul\":4432:4520   */\n      swap2\n      pop\n        /* \"#utility.yul\":4248:4526   */\n      pop\n        /* \"#utility.yul\":4186:4526   */\n      swap3\n      swap2\n      pop\n      pop\n      jump\t// out\n        /* \"#utility.yul\":4532:5186   */\n    tag_32:\n        /* \"#utility.yul\":4610:4616   */\n      0x00\n        /* \"#utility.yul\":4618:4624   */\n      dup1\n        /* \"#utility.yul\":4667:4669   */\n      0x40\n        /* \"#utility.yul\":4655:4664   */\n      dup4\n        /* \"#utility.yul\":4646:4653   */\n      dup6\n        /* \"#utility.yul\":4642:4665   */\n      sub\n        /* \"#utility.yul\":4638:4670   */\n      slt\n        /* \"#utility.yul\":4635:4754   */\n      iszero\n      tag_323\n      jumpi\n        /* \"#utility.yul\":4673:4752   */\n      tag_324\n      tag_205\n      jump\t// in\n    tag_324:\n        /* \"#utility.yul\":4635:4754   */\n    tag_323:\n        /* \"#utility.yul\":4793:4794   */\n      0x00\n        /* \"#utility.yul\":4818:4871   */\n      tag_325\n        /* \"#utility.yul\":4863:4870   */\n      dup6\n        /* \"#utility.yul\":4854:4860   */\n      dup3\n        /* \"#utility.yul\":4843:4852   */\n      dup7\n        /* \"#utility.yul\":4839:4861   */\n      add\n        /* \"#utility.yul\":4818:4871   */\n      tag_214\n      jump\t// in\n    tag_325:\n        /* \"#utility.yul\":4808:4871   */\n      swap3\n      pop\n        /* \"#utility.yul\":4764:4881   */\n      pop\n        /* \"#utility.yul\":4948:4950   */\n      0x20\n        /* \"#utility.yul\":4937:4946   */\n      dup4\n        /* \"#utility.yul\":4933:4951   */\n      add\n        /* \"#utility.yul\":4920:4952   */\n      calldataload\n        /* \"#utility.yul\":4979:4997   */\n      0xffffffffffffffff\n        /* \"#utility.yul\":4971:4977   */\n      dup2\n        /* \"#utility.yul\":4968:4998   */\n      gt\n        /* \"#utility.yul\":4965:5082   */\n      iszero\n      tag_326\n      jumpi\n        /* \"#utility.yul\":5001:5080   */\n      tag_327\n      tag_206\n      jump\t// in\n    tag_327:\n        /* \"#utility.yul\":4965:5082   */\n    tag_326:\n        /* \"#utility.yul\":5106:5169   */\n      tag_328\n        /* \"#utility.yul\":5161:5168   */\n      dup6\n        /* \"#utility.yul\":5152:5158   */\n      dup3\n        /* \"#utility.yul\":5141:5150   */\n      dup7\n        /* \"#utility.yul\":5137:5159   */\n      add\n        /* \"#utility.yul\":5106:5169   */\n      tag_224\n      jump\t// in\n    tag_328:\n        /* \"#utility.yul\":5096:5169   */\n      swap2\n      pop\n        /* \"#utility.yul\":4891:5179   */\n      pop\n        /* \"#utility.yul\":4532:5186   */\n      swap3\n      pop\n      swap3\n      swap1\n      pop\n      jump\t// out\n        /* \"#utility.yul\":5192:5269   */\n    tag_225:\n        /* \"#utility.yul\":5229:5236   */\n      0x00\n        /* \"#utility.yul\":5258:5263   */\n      dup2\n        /* \"#utility.yul\":5247:5263   */\n      swap1\n      pop\n        /* \"#utility.yul\":5192:5269   */\n      swap2\n      swap1\n      pop\n      jump\t// out\n        /* \"#utility.yul\":5275:5393   */\n    tag_226:\n        /* \"#utility.yul\":5362:5386   */\n      tag_331\n        /* \"#utility.yul\":5380:5385   */\n      dup2\n        /* \"#utility.yul\":5362:5386   */\n      tag_225\n      jump\t// in\n    tag_331:\n        /* \"#utility.yul\":5357:5360   */\n      dup3\n        /* \"#utility.yul\":5350:5387   */\n      mstore\n        /* \"#utility.yul\":5275:5393   */\n      pop\n      pop\n      jump\t// out\n        /* \"#utility.yul\":5399:5621   */\n    tag_43:\n        /* \"#utility.yul\":5492:5496   */\n      0x00\n        /* \"#utility.yul\":5530:5532   */\n      0x20\n        /* \"#utility.yul\":5519:5528   */\n      dup3\n        /* \"#utility.yul\":5515:5533   */\n      add\n        /* \"#utility.yul\":5507:5533   */\n      swap1\n      pop\n        /* \"#utility.yul\":5543:5614   */\n      tag_333\n        /* \"#utility.yul\":5611:5612   */\n      0x00\n        /* \"#utility.yul\":5600:5609   */\n      dup4\n        /* \"#utility.yul\":5596:5613   */\n      add\n        /* \"#utility.yul\":5587:5593   */\n      dup5\n        /* \"#utility.yul\":5543:5614   */\n      tag_226\n      jump\t// in\n    tag_333:\n        /* \"#utility.yul\":5399:5621   */\n      swap3\n      swap2\n      pop\n      pop\n      jump\t// out\n        /* \"#utility.yul\":5627:5749   */\n    tag_227:\n        /* \"#utility.yul\":5700:5724   */\n      tag_335\n        /* \"#utility.yul\":5718:5723   */\n      dup2\n        /* \"#utility.yul\":5700:5724   */\n      tag_225\n      jump\t// in\n    tag_335:\n        /* \"#utility.yul\":5693:5698   */\n      dup2\n        /* \"#utility.yul\":5690:5725   */\n      eq\n        /* \"#utility.yul\":5680:5743   */\n      tag_336\n      jumpi\n        /* \"#utility.yul\":5739:5740   */\n      0x00\n        /* \"#utility.yul\":5736:5737   */\n      dup1\n        /* \"#utility.yul\":5729:5741   */\n      revert\n        /* \"#utility.yul\":5680:5743   */\n    tag_336:\n        /* \"#utility.yul\":5627:5749   */\n      pop\n      jump\t// out\n        /* \"#utility.yul\":5755:5894   */\n    tag_228:\n        /* \"#utility.yul\":5801:5806   */\n      0x00\n        /* \"#utility.yul\":5839:5845   */\n      dup2\n        /* \"#utility.yul\":5826:5846   */\n      calldataload\n        /* \"#utility.yul\":5817:5846   */\n      swap1\n      pop\n        /* \"#utility.yul\":5855:5888   */\n      tag_338\n        /* \"#utility.yul\":5882:5887   */\n      dup2\n        /* \"#utility.yul\":5855:5888   */\n      tag_227\n      jump\t// in\n    tag_338:\n        /* \"#utility.yul\":5755:5894   */\n      swap3\n      swap2\n      pop\n      pop\n      jump\t// out\n        /* \"#utility.yul\":5900:6229   */\n    tag_51:\n        /* \"#utility.yul\":5959:5965   */\n      0x00\n        /* \"#utility.yul\":6008:6010   */\n      0x20\n        /* \"#utility.yul\":5996:6005   */\n      dup3\n        /* \"#utility.yul\":5987:5994   */\n      dup5\n        /* \"#utility.yul\":5983:6006   */\n      sub\n        /* \"#utility.yul\":5979:6011   */\n      slt\n        /* \"#utility.yul\":5976:6095   */\n      iszero\n      tag_340\n      jumpi\n        /* \"#utility.yul\":6014:6093   */\n      tag_341\n      tag_205\n      jump\t// in\n    tag_341:\n        /* \"#utility.yul\":5976:6095   */\n    tag_340:\n        /* \"#utility.yul\":6134:6135   */\n      0x00\n        /* \"#utility.yul\":6159:6212   */\n      tag_342\n        /* \"#utility.yul\":6204:6211   */\n      dup5\n        /* \"#utility.yul\":6195:6201   */\n      dup3\n        /* \"#utility.yul\":6184:6193   */\n      dup6\n        /* \"#utility.yul\":6180:6202   */\n      add\n        /* \"#utility.yul\":6159:6212   */\n      tag_228\n      jump\t// in\n    tag_342:\n        /* \"#utility.yul\":6149:6212   */\n      swap2\n      pop\n        /* \"#utility.yul\":6105:6222   */\n      pop\n        /* \"#utility.yul\":5900:6229   */\n      swap3\n      swap2\n      pop\n      pop\n      jump\t// out\n        /* \"#utility.yul\":6235:6564   */\n    tag_68:\n        /* \"#utility.yul\":6294:6300   */\n      0x00\n        /* \"#utility.yul\":6343:6345   */\n      0x20\n        /* \"#utility.yul\":6331:6340   */\n      dup3\n        /* \"#utility.yul\":6322:6329   */\n      dup5\n        /* \"#utility.yul\":6318:6341   */\n      sub\n        /* \"#utility.yul\":6314:6346   */\n      slt\n        /* \"#utility.yul\":6311:6430   */\n      iszero\n      tag_344\n      jumpi\n        /* \"#utility.yul\":6349:6428   */\n      tag_345\n      tag_205\n      jump\t// in\n    tag_345:\n        /* \"#utility.yul\":6311:6430   */\n    tag_344:\n        /* \"#utility.yul\":6469:6470   */\n      0x00\n        /* \"#utility.yul\":6494:6547   */\n      tag_346\n        /* \"#utility.yul\":6539:6546   */\n      dup5\n        /* \"#utility.yul\":6530:6536   */\n      dup3\n        /* \"#utility.yul\":6519:6528   */\n      dup6\n        /* \"#utility.yul\":6515:6537   */\n      add\n        /* \"#utility.yul\":6494:6547   */\n      tag_214\n      jump\t// in\n    tag_346:\n        /* \"#utility.yul\":6484:6547   */\n      swap2\n      pop\n        /* \"#utility.yul\":6440:6557   */\n      pop\n        /* \"#utility.yul\":6235:6564   */\n      swap3\n      swap2\n      pop\n      pop\n      jump\t// out\n        /* \"#utility.yul\":6570:6688   */\n    tag_229:\n        /* \"#utility.yul\":6657:6681   */\n      tag_348\n        /* \"#utility.yul\":6675:6680   */\n      dup2\n        /* \"#utility.yul\":6657:6681   */\n      tag_208\n      jump\t// in\n    tag_348:\n        /* \"#utility.yul\":6652:6655   */\n      dup3\n        /* \"#utility.yul\":6645:6682   */\n      mstore\n        /* \"#utility.yul\":6570:6688   */\n      pop\n      pop\n      jump\t// out\n        /* \"#utility.yul\":6694:6916   */\n    tag_71:\n        /* \"#utility.yul\":6787:6791   */\n      0x00\n        /* \"#utility.yul\":6825:6827   */\n      0x20\n        /* \"#utility.yul\":6814:6823   */\n      dup3\n        /* \"#utility.yul\":6810:6828   */\n      add\n        /* \"#utility.yul\":6802:6828   */\n      swap1\n      pop\n        /* \"#utility.yul\":6838:6909   */\n      tag_350\n        /* \"#utility.yul\":6906:6907   */\n      0x00\n        /* \"#utility.yul\":6895:6904   */\n      dup4\n        /* \"#utility.yul\":6891:6908   */\n      add\n        /* \"#utility.yul\":6882:6888   */\n      dup5\n        /* \"#utility.yul\":6838:6909   */\n      tag_229\n      jump\t// in\n    tag_350:\n        /* \"#utility.yul\":6694:6916   */\n      swap3\n      swap2\n      pop\n      pop\n      jump\t// out\n        /* \"#utility.yul\":6922:7091   */\n    tag_230:\n        /* \"#utility.yul\":7006:7017   */\n      0x00\n        /* \"#utility.yul\":7040:7046   */\n      dup3\n        /* \"#utility.yul\":7035:7038   */\n      dup3\n        /* \"#utility.yul\":7028:7047   */\n      mstore\n        /* \"#utility.yul\":7080:7084   */\n      0x20\n        /* \"#utility.yul\":7075:7078   */\n      dup3\n        /* \"#utility.yul\":7071:7085   */\n      add\n        /* \"#utility.yul\":7056:7085   */\n      swap1\n      pop\n        /* \"#utility.yul\":6922:7091   */\n      swap3\n      swap2\n      pop\n      pop\n      jump\t// out\n        /* \"#utility.yul\":7097:7270   */\n    tag_231:\n        /* \"#utility.yul\":7237:7262   */\n      0x4d6178696d756d20506c61796572732052656163686564000000000000000000\n        /* \"#utility.yul\":7233:7234   */\n      0x00\n        /* \"#utility.yul\":7225:7231   */\n      dup3\n        /* \"#utility.yul\":7221:7235   */\n      add\n        /* \"#utility.yul\":7214:7263   */\n      mstore\n        /* \"#utility.yul\":7097:7270   */\n      pop\n      jump\t// out\n        /* \"#utility.yul\":7276:7642   */\n    tag_232:\n        /* \"#utility.yul\":7418:7421   */\n      0x00\n        /* \"#utility.yul\":7439:7506   */\n      tag_354\n        /* \"#utility.yul\":7503:7505   */\n      0x17\n        /* \"#utility.yul\":7498:7501   */\n      dup4\n        /* \"#utility.yul\":7439:7506   */\n      tag_230\n      jump\t// in\n    tag_354:\n        /* \"#utility.yul\":7432:7506   */\n      swap2\n      pop\n        /* \"#utility.yul\":7515:7608   */\n      tag_355\n        /* \"#utility.yul\":7604:7607   */\n      dup3\n        /* \"#utility.yul\":7515:7608   */\n      tag_231\n      jump\t// in\n    tag_355:\n        /* \"#utility.yul\":7633:7635   */\n      0x20\n        /* \"#utility.yul\":7628:7631   */\n      dup3\n        /* \"#utility.yul\":7624:7636   */\n      add\n        /* \"#utility.yul\":7617:7636   */\n      swap1\n      pop\n        /* \"#utility.yul\":7276:7642   */\n      swap2\n      swap1\n      pop\n      jump\t// out\n        /* \"#utility.yul\":7648:8067   */\n    tag_75:\n        /* \"#utility.yul\":7814:7818   */\n      0x00\n        /* \"#utility.yul\":7852:7854   */\n      0x20\n        /* \"#utility.yul\":7841:7850   */\n      dup3\n        /* \"#utility.yul\":7837:7855   */\n      add\n        /* \"#utility.yul\":7829:7855   */\n      swap1\n      pop\n        /* \"#utility.yul\":7901:7910   */\n      dup2\n        /* \"#utility.yul\":7895:7899   */\n      dup2\n        /* \"#utility.yul\":7891:7911   */\n      sub\n        /* \"#utility.yul\":7887:7888   */\n      0x00\n        /* \"#utility.yul\":7876:7885   */\n      dup4\n        /* \"#utility.yul\":7872:7889   */\n      add\n        /* \"#utility.yul\":7865:7912   */\n      mstore\n        /* \"#utility.yul\":7929:8060   */\n      tag_357\n        /* \"#utility.yul\":8055:8059   */\n      dup2\n        /* \"#utility.yul\":7929:8060   */\n      tag_232\n      jump\t// in\n    tag_357:\n        /* \"#utility.yul\":7921:8060   */\n      swap1\n      pop\n        /* \"#utility.yul\":7648:8067   */\n      swap2\n      swap1\n      pop\n      jump\t// out\n        /* \"#utility.yul\":8073:8247   */\n    tag_233:\n        /* \"#utility.yul\":8213:8239   */\n      0x47616d6520616c726561647920696e2070726f67726573730000000000000000\n        /* \"#utility.yul\":8209:8210   */\n      0x00\n        /* \"#utility.yul\":8201:8207   */\n      dup3\n        /* \"#utility.yul\":8197:8211   */\n      add\n        /* \"#utility.yul\":8190:8240   */\n      mstore\n        /* \"#utility.yul\":8073:8247   */\n      pop\n      jump\t// out\n        /* \"#utility.yul\":8253:8619   */\n    tag_234:\n        /* \"#utility.yul\":8395:8398   */\n      0x00\n        /* \"#utility.yul\":8416:8483   */\n      tag_360\n        /* \"#utility.yul\":8480:8482   */\n      0x18\n        /* \"#utility.yul\":8475:8478   */\n      dup4\n        /* \"#utility.yul\":8416:8483   */\n      tag_230\n      jump\t// in\n    tag_360:\n        /* \"#utility.yul\":8409:8483   */\n      swap2\n      pop\n        /* \"#utility.yul\":8492:8585   */\n      tag_361\n        /* \"#utility.yul\":8581:8584   */\n      dup3\n        /* \"#utility.yul\":8492:8585   */\n      tag_233\n      jump\t// in\n    tag_361:\n        /* \"#utility.yul\":8610:8612   */\n      0x20\n        /* \"#utility.yul\":8605:8608   */\n      dup3\n        /* \"#utility.yul\":8601:8613   */\n      add\n        /* \"#utility.yul\":8594:8613   */\n      swap1\n      pop\n        /* \"#utility.yul\":8253:8619   */\n      swap2\n      swap1\n      pop\n      jump\t// out\n        /* \"#utility.yul\":8625:9044   */\n    tag_78:\n        /* \"#utility.yul\":8791:8795   */\n      0x00\n        /* \"#utility.yul\":8829:8831   */\n      0x20\n        /* \"#utility.yul\":8818:8827   */\n      dup3\n        /* \"#utility.yul\":8814:8832   */\n      add\n        /* \"#utility.yul\":8806:8832   */\n      swap1\n      pop\n        /* \"#utility.yul\":8878:8887   */\n      dup2\n        /* \"#utility.yul\":8872:8876   */\n      dup2\n        /* \"#utility.yul\":8868:8888   */\n      sub\n        /* \"#utility.yul\":8864:8865   */\n      0x00\n        /* \"#utility.yul\":8853:8862   */\n      dup4\n        /* \"#utility.yul\":8849:8866   */\n      add\n        /* \"#utility.yul\":8842:8889   */\n      mstore\n        /* \"#utility.yul\":8906:9037   */\n      tag_363\n        /* \"#utility.yul\":9032:9036   */\n      dup2\n        /* \"#utility.yul\":8906:9037   */\n      tag_234\n      jump\t// in\n    tag_363:\n        /* \"#utility.yul\":8898:9037   */\n      swap1\n      pop\n        /* \"#utility.yul\":8625:9044   */\n      swap2\n      swap1\n      pop\n      jump\t// out\n        /* \"#utility.yul\":9050:9230   */\n    tag_82:\n        /* \"#utility.yul\":9098:9175   */\n      0x4e487b7100000000000000000000000000000000000000000000000000000000\n        /* \"#utility.yul\":9095:9096   */\n      0x00\n        /* \"#utility.yul\":9088:9176   */\n      mstore\n        /* \"#utility.yul\":9195:9199   */\n      0x32\n        /* \"#utility.yul\":9192:9193   */\n      0x04\n        /* \"#utility.yul\":9185:9200   */\n      mstore\n        /* \"#utility.yul\":9219:9223   */\n      0x24\n        /* \"#utility.yul\":9216:9217   */\n      0x00\n        /* \"#utility.yul\":9209:9224   */\n      revert\n        /* \"#utility.yul\":9236:9413   */\n    tag_235:\n        /* \"#utility.yul\":9376:9405   */\n      0x596f752061726520616c726561647920696e207468652067616d650000000000\n        /* \"#utility.yul\":9372:9373   */\n      0x00\n        /* \"#utility.yul\":9364:9370   */\n      dup3\n        /* \"#utility.yul\":9360:9374   */\n      add\n        /* \"#utility.yul\":9353:9406   */\n      mstore\n        /* \"#utility.yul\":9236:9413   */\n      pop\n      jump\t// out\n        /* \"#utility.yul\":9419:9785   */\n    tag_236:\n        /* \"#utility.yul\":9561:9564   */\n      0x00\n        /* \"#utility.yul\":9582:9649   */\n      tag_367\n        /* \"#utility.yul\":9646:9648   */\n      0x1b\n        /* \"#utility.yul\":9641:9644   */\n      dup4\n        /* \"#utility.yul\":9582:9649   */\n      tag_230\n      jump\t// in\n    tag_367:\n        /* \"#utility.yul\":9575:9649   */\n      swap2\n      pop\n        /* \"#utility.yul\":9658:9751   */\n      tag_368\n        /* \"#utility.yul\":9747:9750   */\n      dup3\n        /* \"#utility.yul\":9658:9751   */\n      tag_235\n      jump\t// in\n    tag_368:\n        /* \"#utility.yul\":9776:9778   */\n      0x20\n        /* \"#utility.yul\":9771:9774   */\n      dup3\n        /* \"#utility.yul\":9767:9779   */\n      add\n        /* \"#utility.yul\":9760:9779   */\n      swap1\n      pop\n        /* \"#utility.yul\":9419:9785   */\n      swap2\n      swap1\n      pop\n      jump\t// out\n        /* \"#utility.yul\":9791:10210   */\n    tag_86:\n        /* \"#utility.yul\":9957:9961   */\n      0x00\n        /* \"#utility.yul\":9995:9997   */\n      0x20\n        /* \"#utility.yul\":9984:9993   */\n      dup3\n        /* \"#utility.yul\":9980:9998   */\n      add\n        /* \"#utility.yul\":9972:9998   */\n      swap1\n      pop\n        /* \"#utility.yul\":10044:10053   */\n      dup2\n        /* \"#utility.yul\":10038:10042   */\n      dup2\n        /* \"#utility.yul\":10034:10054   */\n      sub\n        /* \"#utility.yul\":10030:10031   */\n      0x00\n        /* \"#utility.yul\":10019:10028   */\n      dup4\n        /* \"#utility.yul\":10015:10032   */\n      add\n        /* \"#utility.yul\":10008:10055   */\n      mstore\n        /* \"#utility.yul\":10072:10203   */\n      tag_370\n        /* \"#utility.yul\":10198:10202   */\n      dup2\n        /* \"#utility.yul\":10072:10203   */\n      tag_236\n      jump\t// in\n    tag_370:\n        /* \"#utility.yul\":10064:10203   */\n      swap1\n      pop\n        /* \"#utility.yul\":9791:10210   */\n      swap2\n      swap1\n      pop\n      jump\t// out\n        /* \"#utility.yul\":10216:10386   */\n    tag_237:\n        /* \"#utility.yul\":10356:10378   */\n      0x456e747279206665652069732031206574686572000000000000000000000000\n        /* \"#utility.yul\":10352:10353   */\n      0x00\n        /* \"#utility.yul\":10344:10350   */\n      dup3\n        /* \"#utility.yul\":10340:10354   */\n      add\n        /* \"#utility.yul\":10333:10379   */\n      mstore\n        /* \"#utility.yul\":10216:10386   */\n      pop\n      jump\t// out\n        /* \"#utility.yul\":10392:10758   */\n    tag_238:\n        /* \"#utility.yul\":10534:10537   */\n      0x00\n        /* \"#utility.yul\":10555:10622   */\n      tag_373\n        /* \"#utility.yul\":10619:10621   */\n      0x14\n        /* \"#utility.yul\":10614:10617   */\n      dup4\n        /* \"#utility.yul\":10555:10622   */\n      tag_230\n      jump\t// in\n    tag_373:\n        /* \"#utility.yul\":10548:10622   */\n      swap2\n      pop\n        /* \"#utility.yul\":10631:10724   */\n      tag_374\n        /* \"#utility.yul\":10720:10723   */\n      dup3\n        /* \"#utility.yul\":10631:10724   */\n      tag_237\n      jump\t// in\n    tag_374:\n        /* \"#utility.yul\":10749:10751   */\n      0x20\n        /* \"#utility.yul\":10744:10747   */\n      dup3\n        /* \"#utility.yul\":10740:10752   */\n      add\n        /* \"#utility.yul\":10733:10752   */\n      swap1\n      pop\n        /* \"#utility.yul\":10392:10758   */\n      swap2\n      swap1\n      pop\n      jump\t// out\n        /* \"#utility.yul\":10764:11183   */\n    tag_89:\n        /* \"#utility.yul\":10930:10934   */\n      0x00\n        /* \"#utility.yul\":10968:10970   */\n      0x20\n        /* \"#utility.yul\":10957:10966   */\n      dup3\n        /* \"#utility.yul\":10953:10971   */\n      add\n        /* \"#utility.yul\":10945:10971   */\n      swap1\n      pop\n        /* \"#utility.yul\":11017:11026   */\n      dup2\n        /* \"#utility.yul\":11011:11015   */\n      dup2\n        /* \"#utility.yul\":11007:11027   */\n      sub\n        /* \"#utility.yul\":11003:11004   */\n      0x00\n        /* \"#utility.yul\":10992:11001   */\n      dup4\n        /* \"#utility.yul\":10988:11005   */\n      add\n        /* \"#utility.yul\":10981:11028   */\n      mstore\n        /* \"#utility.yul\":11045:11176   */\n      tag_376\n        /* \"#utility.yul\":11171:11175   */\n      dup2\n        /* \"#utility.yul\":11045:11176   */\n      tag_238\n      jump\t// in\n    tag_376:\n        /* \"#utility.yul\":11037:11176   */\n      swap1\n      pop\n        /* \"#utility.yul\":10764:11183   */\n      swap2\n      swap1\n      pop\n      jump\t// out\n        /* \"#utility.yul\":11189:11369   */\n    tag_239:\n        /* \"#utility.yul\":11237:11314   */\n      0x4e487b7100000000000000000000000000000000000000000000000000000000\n        /* \"#utility.yul\":11234:11235   */\n      0x00\n        /* \"#utility.yul\":11227:11315   */\n      mstore\n        /* \"#utility.yul\":11334:11338   */\n      0x11\n        /* \"#utility.yul\":11331:11332   */\n      0x04\n        /* \"#utility.yul\":11324:11339   */\n      mstore\n        /* \"#utility.yul\":11358:11362   */\n      0x24\n        /* \"#utility.yul\":11355:11356   */\n      0x00\n        /* \"#utility.yul\":11348:11363   */\n      revert\n        /* \"#utility.yul\":11375:11566   */\n    tag_91:\n        /* \"#utility.yul\":11415:11418   */\n      0x00\n        /* \"#utility.yul\":11434:11454   */\n      tag_379\n        /* \"#utility.yul\":11452:11453   */\n      dup3\n        /* \"#utility.yul\":11434:11454   */\n      tag_202\n      jump\t// in\n    tag_379:\n        /* \"#utility.yul\":11429:11454   */\n      swap2\n      pop\n        /* \"#utility.yul\":11468:11488   */\n      tag_380\n        /* \"#utility.yul\":11486:11487   */\n      dup4\n        /* \"#utility.yul\":11468:11488   */\n      tag_202\n      jump\t// in\n    tag_380:\n        /* \"#utility.yul\":11463:11488   */\n      swap3\n      pop\n        /* \"#utility.yul\":11511:11512   */\n      dup3\n        /* \"#utility.yul\":11508:11509   */\n      dup3\n        /* \"#utility.yul\":11504:11513   */\n      add\n        /* \"#utility.yul\":11497:11513   */\n      swap1\n      pop\n        /* \"#utility.yul\":11532:11535   */\n      dup1\n        /* \"#utility.yul\":11529:11530   */\n      dup3\n        /* \"#utility.yul\":11526:11536   */\n      gt\n        /* \"#utility.yul\":11523:11559   */\n      iszero\n      tag_381\n      jumpi\n        /* \"#utility.yul\":11539:11557   */\n      tag_382\n      tag_239\n      jump\t// in\n    tag_382:\n        /* \"#utility.yul\":11523:11559   */\n    tag_381:\n        /* \"#utility.yul\":11375:11566   */\n      swap3\n      swap2\n      pop\n      pop\n      jump\t// out\n        /* \"#utility.yul\":11572:11805   */\n    tag_94:\n        /* \"#utility.yul\":11611:11614   */\n      0x00\n        /* \"#utility.yul\":11634:11658   */\n      tag_384\n        /* \"#utility.yul\":11652:11657   */\n      dup3\n        /* \"#utility.yul\":11634:11658   */\n      tag_202\n      jump\t// in\n    tag_384:\n        /* \"#utility.yul\":11625:11658   */\n      swap2\n      pop\n        /* \"#utility.yul\":11680:11746   */\n      0xffffffffffffffffffffffffffffffffffffffffffffffffffffffffffffffff\n        /* \"#utility.yul\":11673:11678   */\n      dup3\n        /* \"#utility.yul\":11670:11747   */\n      sub\n        /* \"#utility.yul\":11667:11770   */\n      tag_385\n      jumpi\n        /* \"#utility.yul\":11750:11768   */\n      tag_386\n      tag_239\n      jump\t// in\n    tag_386:\n        /* \"#utility.yul\":11667:11770   */\n    tag_385:\n        /* \"#utility.yul\":11797:11798   */\n      0x01\n        /* \"#utility.yul\":11790:11795   */\n      dup3\n        /* \"#utility.yul\":11786:11799   */\n      add\n        /* \"#utility.yul\":11779:11799   */\n      swap1\n      pop\n        /* \"#utility.yul\":11572:11805   */\n      swap2\n      swap1\n      pop\n      jump\t// out\n        /* \"#utility.yul\":11811:11979   */\n    tag_240:\n        /* \"#utility.yul\":11951:11971   */\n      0x47616d65206973206e6f74206163746976650000000000000000000000000000\n        /* \"#utility.yul\":11947:11948   */\n      0x00\n        /* \"#utility.yul\":11939:11945   */\n      dup3\n        /* \"#utility.yul\":11935:11949   */\n      add\n        /* \"#utility.yul\":11928:11972   */\n      mstore\n        /* \"#utility.yul\":11811:11979   */\n      pop\n      jump\t// out\n        /* \"#utility.yul\":11985:12351   */\n    tag_241:\n        /* \"#utility.yul\":12127:12130   */\n      0x00\n        /* \"#utility.yul\":12148:12215   */\n      tag_389\n        /* \"#utility.yul\":12212:12214   */\n      0x12\n        /* \"#utility.yul\":12207:12210   */\n      dup4\n        /* \"#utility.yul\":12148:12215   */\n      tag_230\n      jump\t// in\n    tag_389:\n        /* \"#utility.yul\":12141:12215   */\n      swap2\n      pop\n        /* \"#utility.yul\":12224:12317   */\n      tag_390\n        /* \"#utility.yul\":12313:12316   */\n      dup3\n        /* \"#utility.yul\":12224:12317   */\n      tag_240\n      jump\t// in\n    tag_390:\n        /* \"#utility.yul\":12342:12344   */\n      0x20\n        /* \"#utility.yul\":12337:12340   */\n      dup3\n        /* \"#utility.yul\":12333:12345   */\n      add\n        /* \"#utility.yul\":12326:12345   */\n      swap1\n      pop\n        /* \"#utility.yul\":11985:12351   */\n      swap2\n      swap1\n      pop\n      jump\t// out\n        /* \"#utility.yul\":12357:12776   */\n    tag_99:\n        /* \"#utility.yul\":12523:12527   */\n      0x00\n        /* \"#utility.yul\":12561:12563   */\n      0x20\n        /* \"#utility.yul\":12550:12559   */\n      dup3\n        /* \"#utility.yul\":12546:12564   */\n      add\n        /* \"#utility.yul\":12538:12564   */\n      swap1\n      pop\n        /* \"#utility.yul\":12610:12619   */\n      dup2\n        /* \"#utility.yul\":12604:12608   */\n      dup2\n        /* \"#utility.yul\":12600:12620   */\n      sub\n        /* \"#utility.yul\":12596:12597   */\n      0x00\n        /* \"#utility.yul\":12585:12594   */\n      dup4\n        /* \"#utility.yul\":12581:12598   */\n      add\n        /* \"#utility.yul\":12574:12621   */\n      mstore\n        /* \"#utility.yul\":12638:12769   */\n      tag_392\n        /* \"#utility.yul\":12764:12768   */\n      dup2\n        /* \"#utility.yul\":12638:12769   */\n      tag_241\n      jump\t// in\n    tag_392:\n        /* \"#utility.yul\":12630:12769   */\n      swap1\n      pop\n        /* \"#utility.yul\":12357:12776   */\n      swap2\n      swap1\n      pop\n      jump\t// out\n        /* \"#utility.yul\":12782:12949   */\n    tag_242:\n        /* \"#utility.yul\":12918:12945   */\n      0x4e6f20636f6d6d697420686173206265656e206d616465293b00000000000000\n        /* \"#utility.yul\":12914:12915   */\n      0x00\n        /* \"#utility.yul\":12906:12912   */\n      dup3\n        /* \"#utility.yul\":12902:12916   */\n      add\n        /* \"#utility.yul\":12895:12946   */\n      mstore\n        /* \"#utility.yul\":12782:12949   */\n      pop\n      jump\t// out\n        /* \"#utility.yul\":12951:13301   */\n    tag_243:\n        /* \"#utility.yul\":13093:13096   */\n      0x00\n        /* \"#utility.yul\":13110:13177   */\n      tag_395\n        /* \"#utility.yul\":13174:13176   */\n      0x19\n        /* \"#utility.yul\":13169:13172   */\n      dup4\n        /* \"#utility.yul\":13110:13177   */\n      tag_230\n      jump\t// in\n    tag_395:\n        /* \"#utility.yul\":13103:13177   */\n      swap2\n      pop\n        /* \"#utility.yul\":13182:13275   */\n      tag_396\n        /* \"#utility.yul\":13271:13274   */\n      dup3\n        /* \"#utility.yul\":13182:13275   */\n      tag_242\n      jump\t// in\n    tag_396:\n        /* \"#utility.yul\":13296:13298   */\n      0x20\n        /* \"#utility.yul\":13291:13294   */\n      dup3\n        /* \"#utility.yul\":13287:13299   */\n      add\n        /* \"#utility.yul\":13280:13299   */\n      swap1\n      pop\n        /* \"#utility.yul\":12951:13301   */\n      swap2\n      swap1\n      pop\n      jump\t// out\n        /* \"#utility.yul\":13303:13706   */\n    tag_102:\n        /* \"#utility.yul\":13469:13473   */\n      0x00\n        /* \"#utility.yul\":13503:13505   */\n      0x20\n        /* \"#utility.yul\":13492:13501   */\n      dup3\n        /* \"#utility.yul\":13488:13506   */\n      add\n        /* \"#utility.yul\":13480:13506   */\n      swap1\n      pop\n        /* \"#utility.yul\":13548:13557   */\n      dup2\n        /* \"#utility.yul\":13542:13546   */\n      dup2\n        /* \"#utility.yul\":13538:13558   */\n      sub\n        /* \"#utility.yul\":13534:13535   */\n      0x00\n        /* \"#utility.yul\":13523:13532   */\n      dup4\n        /* \"#utility.yul\":13519:13536   */\n      add\n        /* \"#utility.yul\":13512:13559   */\n      mstore\n        /* \"#utility.yul\":13572:13703   */\n      tag_398\n        /* \"#utility.yul\":13698:13702   */\n      dup2\n        /* \"#utility.yul\":13572:13703   */\n      tag_243\n      jump\t// in\n    tag_398:\n        /* \"#utility.yul\":13564:13703   */\n      swap1\n      pop\n        /* \"#utility.yul\":13303:13706   */\n      swap2\n      swap1\n      pop\n      jump\t// out\n        /* \"#utility.yul\":13708:13871   */\n    tag_244:\n        /* \"#utility.yul\":13844:13867   */\n      0x4d6f766520616c72656164792072657665616c65640000000000000000000000\n        /* \"#utility.yul\":13840:13841   */\n      0x00\n        /* \"#utility.yul\":13832:13838   */\n      dup3\n        /* \"#utility.yul\":13828:13842   */\n      add\n        /* \"#utility.yul\":13821:13868   */\n      mstore\n        /* \"#utility.yul\":13708:13871   */\n      pop\n      jump\t// out\n        /* \"#utility.yul\":13873:14223   */\n    tag_245:\n        /* \"#utility.yul\":14015:14018   */\n      0x00\n        /* \"#utility.yul\":14032:14099   */\n      tag_401\n        /* \"#utility.yul\":14096:14098   */\n      0x15\n        /* \"#utility.yul\":14091:14094   */\n      dup4\n        /* \"#utility.yul\":14032:14099   */\n      tag_230\n      jump\t// in\n    tag_401:\n        /* \"#utility.yul\":14025:14099   */\n      swap2\n      pop\n        /* \"#utility.yul\":14104:14197   */\n      tag_402\n        /* \"#utility.yul\":14193:14196   */\n      dup3\n        /* \"#utility.yul\":14104:14197   */\n      tag_244\n      jump\t// in\n    tag_402:\n        /* \"#utility.yul\":14218:14220   */\n      0x20\n        /* \"#utility.yul\":14213:14216   */\n      dup3\n        /* \"#utility.yul\":14209:14221   */\n      add\n        /* \"#utility.yul\":14202:14221   */\n      swap1\n      pop\n        /* \"#utility.yul\":13873:14223   */\n      swap2\n      swap1\n      pop\n      jump\t// out\n        /* \"#utility.yul\":14225:14628   */\n    tag_105:\n        /* \"#utility.yul\":14391:14395   */\n      0x00\n        /* \"#utility.yul\":14425:14427   */\n      0x20\n        /* \"#utility.yul\":14414:14423   */\n      dup3\n        /* \"#utility.yul\":14410:14428   */\n      add\n        /* \"#utility.yul\":14402:14428   */\n      swap1\n      pop\n        /* \"#utility.yul\":14470:14479   */\n      dup2\n        /* \"#utility.yul\":14464:14468   */\n      dup2\n        /* \"#utility.yul\":14460:14480   */\n      sub\n        /* \"#utility.yul\":14456:14457   */\n      0x00\n        /* \"#utility.yul\":14445:14454   */\n      dup4\n        /* \"#utility.yul\":14441:14458   */\n      add\n        /* \"#utility.yul\":14434:14481   */\n      mstore\n        /* \"#utility.yul\":14494:14625   */\n      tag_404\n        /* \"#utility.yul\":14620:14624   */\n      dup2\n        /* \"#utility.yul\":14494:14625   */\n      tag_245\n      jump\t// in\n    tag_404:\n        /* \"#utility.yul\":14486:14625   */\n      swap1\n      pop\n        /* \"#utility.yul\":14225:14628   */\n      swap2\n      swap1\n      pop\n      jump\t// out\n        /* \"#utility.yul\":14630:14785   */\n    tag_246:\n        /* \"#utility.yul\":14766:14781   */\n      0x496e76616c696420496e70757400000000000000000000000000000000000000\n        /* \"#utility.yul\":14762:14763   */\n      0x00\n        /* \"#utility.yul\":14754:14760   */\n      dup3\n        /* \"#utility.yul\":14750:14764   */\n      add\n        /* \"#utility.yul\":14743:14782   */\n      mstore\n        /* \"#utility.yul\":14630:14785   */\n      pop\n      jump\t// out\n        /* \"#utility.yul\":14787:15137   */\n    tag_247:\n        /* \"#utility.yul\":14929:14932   */\n      0x00\n        /* \"#utility.yul\":14946:15013   */\n      tag_407\n        /* \"#utility.yul\":15010:15012   */\n      0x0d\n        /* \"#utility.yul\":15005:15008   */\n      dup4\n        /* \"#utility.yul\":14946:15013   */\n      tag_230\n      jump\t// in\n    tag_407:\n        /* \"#utility.yul\":14939:15013   */\n      swap2\n      pop\n        /* \"#utility.yul\":15018:15111   */\n      tag_408\n        /* \"#utility.yul\":15107:15110   */\n      dup3\n        /* \"#utility.yul\":15018:15111   */\n      tag_246\n      jump\t// in\n    tag_408:\n        /* \"#utility.yul\":15132:15134   */\n      0x20\n        /* \"#utility.yul\":15127:15130   */\n      dup3\n        /* \"#utility.yul\":15123:15135   */\n      add\n        /* \"#utility.yul\":15116:15135   */\n      swap1\n      pop\n        /* \"#utility.yul\":14787:15137   */\n      swap2\n      swap1\n      pop\n      jump\t// out\n        /* \"#utility.yul\":15139:15542   */\n    tag_109:\n        /* \"#utility.yul\":15305:15309   */\n      0x00\n        /* \"#utility.yul\":15339:15341   */\n      0x20\n        /* \"#utility.yul\":15328:15337   */\n      dup3\n        /* \"#utility.yul\":15324:15342   */\n      add\n        /* \"#utility.yul\":15316:15342   */\n      swap1\n      pop\n        /* \"#utility.yul\":15384:15393   */\n      dup2\n        /* \"#utility.yul\":15378:15382   */\n      dup2\n        /* \"#utility.yul\":15374:15394   */\n      sub\n        /* \"#utility.yul\":15370:15371   */\n      0x00\n        /* \"#utility.yul\":15359:15368   */\n      dup4\n        /* \"#utility.yul\":15355:15372   */\n      add\n        /* \"#utility.yul\":15348:15395   */\n      mstore\n        /* \"#utility.yul\":15408:15539   */\n      tag_410\n        /* \"#utility.yul\":15534:15538   */\n      dup2\n        /* \"#utility.yul\":15408:15539   */\n      tag_247\n      jump\t// in\n    tag_410:\n        /* \"#utility.yul\":15400:15539   */\n      swap1\n      pop\n        /* \"#utility.yul\":15139:15542   */\n      swap2\n      swap1\n      pop\n      jump\t// out\n        /* \"#utility.yul\":15544:15615   */\n    tag_248:\n        /* \"#utility.yul\":15583:15590   */\n      0x00\n        /* \"#utility.yul\":15608:15613   */\n      dup2\n        /* \"#utility.yul\":15597:15613   */\n      swap1\n      pop\n        /* \"#utility.yul\":15544:15615   */\n      swap2\n      swap1\n      pop\n      jump\t// out\n        /* \"#utility.yul\":15617:15766   */\n    tag_249:\n        /* \"#utility.yul\":15718:15763   */\n      tag_413\n        /* \"#utility.yul\":15738:15762   */\n      tag_414\n        /* \"#utility.yul\":15756:15761   */\n      dup3\n        /* \"#utility.yul\":15738:15762   */\n      tag_202\n      jump\t// in\n    tag_414:\n        /* \"#utility.yul\":15718:15763   */\n      tag_248\n      jump\t// in\n    tag_413:\n        /* \"#utility.yul\":15713:15716   */\n      dup3\n        /* \"#utility.yul\":15706:15764   */\n      mstore\n        /* \"#utility.yul\":15617:15766   */\n      pop\n      pop\n      jump\t// out\n        /* \"#utility.yul\":15768:15859   */\n    tag_250:\n        /* \"#utility.yul\":15820:15826   */\n      0x00\n        /* \"#utility.yul\":15850:15855   */\n      dup2\n        /* \"#utility.yul\":15844:15856   */\n      mload\n        /* \"#utility.yul\":15834:15856   */\n      swap1\n      pop\n        /* \"#utility.yul\":15768:15859   */\n      swap2\n      swap1\n      pop\n      jump\t// out\n        /* \"#utility.yul\":15861:16001   */\n    tag_251:\n        /* \"#utility.yul\":15963:15974   */\n      0x00\n        /* \"#utility.yul\":15996:15999   */\n      dup2\n        /* \"#utility.yul\":15981:15999   */\n      swap1\n      pop\n        /* \"#utility.yul\":15861:16001   */\n      swap3\n      swap2\n      pop\n      pop\n      jump\t// out\n        /* \"#utility.yul\":16003:16130   */\n    tag_252:\n        /* \"#utility.yul\":16088:16094   */\n      dup3\n        /* \"#utility.yul\":16083:16086   */\n      dup2\n        /* \"#utility.yul\":16078:16081   */\n      dup4\n        /* \"#utility.yul\":16072:16095   */\n      mcopy\n        /* \"#utility.yul\":16125:16126   */\n      0x00\n        /* \"#utility.yul\":16116:16122   */\n      dup4\n        /* \"#utility.yul\":16111:16114   */\n      dup4\n        /* \"#utility.yul\":16107:16123   */\n      add\n        /* \"#utility.yul\":16100:16127   */\n      mstore\n        /* \"#utility.yul\":16003:16130   */\n      pop\n      pop\n      pop\n      jump\t// out\n        /* \"#utility.yul\":16132:16502   */\n    tag_253:\n        /* \"#utility.yul\":16238:16241   */\n      0x00\n        /* \"#utility.yul\":16262:16301   */\n      tag_419\n        /* \"#utility.yul\":16295:16300   */\n      dup3\n        /* \"#utility.yul\":16262:16301   */\n      tag_250\n      jump\t// in\n    tag_419:\n        /* \"#utility.yul\":16313:16402   */\n      tag_420\n        /* \"#utility.yul\":16395:16401   */\n      dup2\n        /* \"#utility.yul\":16390:16393   */\n      dup6\n        /* \"#utility.yul\":16313:16402   */\n      tag_251\n      jump\t// in\n    tag_420:\n        /* \"#utility.yul\":16306:16402   */\n      swap4\n      pop\n        /* \"#utility.yul\":16407:16472   */\n      tag_421\n        /* \"#utility.yul\":16465:16471   */\n      dup2\n        /* \"#utility.yul\":16460:16463   */\n      dup6\n        /* \"#utility.yul\":16453:16457   */\n      0x20\n        /* \"#utility.yul\":16446:16451   */\n      dup7\n        /* \"#utility.yul\":16442:16458   */\n      add\n        /* \"#utility.yul\":16407:16472   */\n      tag_252\n      jump\t// in\n    tag_421:\n        /* \"#utility.yul\":16493:16499   */\n      dup1\n        /* \"#utility.yul\":16488:16491   */\n      dup5\n        /* \"#utility.yul\":16484:16500   */\n      add\n        /* \"#utility.yul\":16477:16500   */\n      swap2\n      pop\n        /* \"#utility.yul\":16242:16502   */\n      pop\n        /* \"#utility.yul\":16132:16502   */\n      swap3\n      swap2\n      pop\n      pop\n      jump\t// out\n        /* \"#utility.yul\":16504:16900   */\n    tag_111:\n        /* \"#utility.yul\":16664:16667   */\n      0x00\n        /* \"#utility.yul\":16675:16750   */\n      tag_423\n        /* \"#utility.yul\":16746:16749   */\n      dup3\n        /* \"#utility.yul\":16737:16743   */\n      dup6\n        /* \"#utility.yul\":16675:16750   */\n      tag_249\n      jump\t// in\n    tag_423:\n        /* \"#utility.yul\":16771:16773   */\n      0x20\n        /* \"#utility.yul\":16766:16769   */\n      dup3\n        /* \"#utility.yul\":16762:16774   */\n      add\n        /* \"#utility.yul\":16755:16774   */\n      swap2\n      pop\n        /* \"#utility.yul\":16787:16882   */\n      tag_424\n        /* \"#utility.yul\":16878:16881   */\n      dup3\n        /* \"#utility.yul\":16869:16875   */\n      dup5\n        /* \"#utility.yul\":16787:16882   */\n      tag_253\n      jump\t// in\n    tag_424:\n        /* \"#utility.yul\":16780:16882   */\n      swap2\n      pop\n        /* \"#utility.yul\":16895:16898   */\n      dup2\n        /* \"#utility.yul\":16888:16898   */\n      swap1\n      pop\n        /* \"#utility.yul\":16504:16900   */\n      swap4\n      swap3\n      pop\n      pop\n      pop\n      jump\t// out\n        /* \"#utility.yul\":16902:17058   */\n    tag_254:\n        /* \"#utility.yul\":17038:17054   */\n      0x496e76616c69642052657665616c000000000000000000000000000000000000\n        /* \"#utility.yul\":17034:17035   */\n      0x00\n        /* \"#utility.yul\":17026:17032   */\n      dup3\n        /* \"#utility.yul\":17022:17036   */\n      add\n        /* \"#utility.yul\":17015:17055   */\n      mstore\n        /* \"#utility.yul\":16902:17058   */\n      pop\n      jump\t// out\n        /* \"#utility.yul\":17060:17410   */\n    tag_255:\n        /* \"#utility.yul\":17202:17205   */\n      0x00\n        /* \"#utility.yul\":17219:17286   */\n      tag_427\n        /* \"#utility.yul\":17283:17285   */\n      0x0e\n        /* \"#utility.yul\":17278:17281   */\n      dup4\n        /* \"#utility.yul\":17219:17286   */\n      tag_230\n      jump\t// in\n    tag_427:\n        /* \"#utility.yul\":17212:17286   */\n      swap2\n      pop\n        /* \"#utility.yul\":17291:17384   */\n      tag_428\n        /* \"#utility.yul\":17380:17383   */\n      dup3\n        /* \"#utility.yul\":17291:17384   */\n      tag_254\n      jump\t// in\n    tag_428:\n        /* \"#utility.yul\":17405:17407   */\n      0x20\n        /* \"#utility.yul\":17400:17403   */\n      dup3\n        /* \"#utility.yul\":17396:17408   */\n      add\n        /* \"#utility.yul\":17389:17408   */\n      swap1\n      pop\n        /* \"#utility.yul\":17060:17410   */\n      swap2\n      swap1\n      pop\n      jump\t// out\n        /* \"#utility.yul\":17412:17815   */\n    tag_114:\n        /* \"#utility.yul\":17578:17582   */\n      0x00\n        /* \"#utility.yul\":17612:17614   */\n      0x20\n        /* \"#utility.yul\":17601:17610   */\n      dup3\n        /* \"#utility.yul\":17597:17615   */\n      add\n        /* \"#utility.yul\":17589:17615   */\n      swap1\n      pop\n        /* \"#utility.yul\":17657:17666   */\n      dup2\n        /* \"#utility.yul\":17651:17655   */\n      dup2\n        /* \"#utility.yul\":17647:17667   */\n      sub\n        /* \"#utility.yul\":17643:17644   */\n      0x00\n        /* \"#utility.yul\":17632:17641   */\n      dup4\n        /* \"#utility.yul\":17628:17645   */\n      add\n        /* \"#utility.yul\":17621:17668   */\n      mstore\n        /* \"#utility.yul\":17681:17812   */\n      tag_430\n        /* \"#utility.yul\":17807:17811   */\n      dup2\n        /* \"#utility.yul\":17681:17812   */\n      tag_255\n      jump\t// in\n    tag_430:\n        /* \"#utility.yul\":17673:17812   */\n      swap1\n      pop\n        /* \"#utility.yul\":17412:17815   */\n      swap2\n      swap1\n      pop\n      jump\t// out\n        /* \"#utility.yul\":17817:17976   */\n    tag_256:\n        /* \"#utility.yul\":17953:17972   */\n      0x4e6f7420656e6f75676820706c61796572000000000000000000000000000000\n        /* \"#utility.yul\":17949:17950   */\n      0x00\n        /* \"#utility.yul\":17941:17947   */\n      dup3\n        /* \"#utility.yul\":17937:17951   */\n      add\n        /* \"#utility.yul\":17930:17973   */\n      mstore\n        /* \"#utility.yul\":17817:17976   */\n      pop\n      jump\t// out\n        /* \"#utility.yul\":17978:18328   */\n    tag_257:\n        /* \"#utility.yul\":18120:18123   */\n      0x00\n        /* \"#utility.yul\":18137:18204   */\n      tag_433\n        /* \"#utility.yul\":18201:18203   */\n      0x11\n        /* \"#utility.yul\":18196:18199   */\n      dup4\n        /* \"#utility.yul\":18137:18204   */\n      tag_230\n      jump\t// in\n    tag_433:\n        /* \"#utility.yul\":18130:18204   */\n      swap2\n      pop\n        /* \"#utility.yul\":18209:18302   */\n      tag_434\n        /* \"#utility.yul\":18298:18301   */\n      dup3\n        /* \"#utility.yul\":18209:18302   */\n      tag_256\n      jump\t// in\n    tag_434:\n        /* \"#utility.yul\":18323:18325   */\n      0x20\n        /* \"#utility.yul\":18318:18321   */\n      dup3\n        /* \"#utility.yul\":18314:18326   */\n      add\n        /* \"#utility.yul\":18307:18326   */\n      swap1\n      pop\n        /* \"#utility.yul\":17978:18328   */\n      swap2\n      swap1\n      pop\n      jump\t// out\n        /* \"#utility.yul\":18330:18733   */\n    tag_130:\n        /* \"#utility.yul\":18496:18500   */\n      0x00\n        /* \"#utility.yul\":18530:18532   */\n      0x20\n        /* \"#utility.yul\":18519:18528   */\n      dup3\n        /* \"#utility.yul\":18515:18533   */\n      add\n        /* \"#utility.yul\":18507:18533   */\n      swap1\n      pop\n        /* \"#utility.yul\":18575:18584   */\n      dup2\n        /* \"#utility.yul\":18569:18573   */\n      dup2\n        /* \"#utility.yul\":18565:18585   */\n      sub\n        /* \"#utility.yul\":18561:18562   */\n      0x00\n        /* \"#utility.yul\":18550:18559   */\n      dup4\n        /* \"#utility.yul\":18546:18563   */\n      add\n        /* \"#utility.yul\":18539:18586   */\n      mstore\n        /* \"#utility.yul\":18599:18730   */\n      tag_436\n        /* \"#utility.yul\":18725:18729   */\n      dup2\n        /* \"#utility.yul\":18599:18730   */\n      tag_257\n      jump\t// in\n    tag_436:\n        /* \"#utility.yul\":18591:18730   */\n      swap1\n      pop\n        /* \"#utility.yul\":18330:18733   */\n      swap2\n      swap1\n      pop\n      jump\t// out\n        /* \"#utility.yul\":18735:18898   */\n    tag_258:\n        /* \"#utility.yul\":18871:18894   */\n      0x4d6f766520616c726561647920636f6d6d697465640000000000000000000000\n        /* \"#utility.yul\":18867:18868   */\n      0x00\n        /* \"#utility.yul\":18859:18865   */\n      dup3\n        /* \"#utility.yul\":18855:18869   */\n      add\n        /* \"#utility.yul\":18848:18895   */\n      mstore\n        /* \"#utility.yul\":18735:18898   */\n      pop\n      jump\t// out\n        /* \"#utility.yul\":18900:19250   */\n    tag_259:\n        /* \"#utility.yul\":19042:19045   */\n      0x00\n        /* \"#utility.yul\":19059:19126   */\n      tag_439\n        /* \"#utility.yul\":19123:19125   */\n      0x15\n        /* \"#utility.yul\":19118:19121   */\n      dup4\n        /* \"#utility.yul\":19059:19126   */\n      tag_230\n      jump\t// in\n    tag_439:\n        /* \"#utility.yul\":19052:19126   */\n      swap2\n      pop\n        /* \"#utility.yul\":19131:19224   */\n      tag_440\n        /* \"#utility.yul\":19220:19223   */\n      dup3\n        /* \"#utility.yul\":19131:19224   */\n      tag_258\n      jump\t// in\n    tag_440:\n        /* \"#utility.yul\":19245:19247   */\n      0x20\n        /* \"#utility.yul\":19240:19243   */\n      dup3\n        /* \"#utility.yul\":19236:19248   */\n      add\n        /* \"#utility.yul\":19229:19248   */\n      swap1\n      pop\n        /* \"#utility.yul\":18900:19250   */\n      swap2\n      swap1\n      pop\n      jump\t// out\n        /* \"#utility.yul\":19252:19655   */\n    tag_133:\n        /* \"#utility.yul\":19418:19422   */\n      0x00\n        /* \"#utility.yul\":19452:19454   */\n      0x20\n        /* \"#utility.yul\":19441:19450   */\n      dup3\n        /* \"#utility.yul\":19437:19455   */\n      add\n        /* \"#utility.yul\":19429:19455   */\n      swap1\n      pop\n        /* \"#utility.yul\":19497:19506   */\n      dup2\n        /* \"#utility.yul\":19491:19495   */\n      dup2\n        /* \"#utility.yul\":19487:19507   */\n      sub\n        /* \"#utility.yul\":19483:19484   */\n      0x00\n        /* \"#utility.yul\":19472:19481   */\n      dup4\n        /* \"#utility.yul\":19468:19485   */\n      add\n        /* \"#utility.yul\":19461:19508   */\n      mstore\n        /* \"#utility.yul\":19521:19652   */\n      tag_442\n        /* \"#utility.yul\":19647:19651   */\n      dup2\n        /* \"#utility.yul\":19521:19652   */\n      tag_259\n      jump\t// in\n    tag_442:\n        /* \"#utility.yul\":19513:19652   */\n      swap1\n      pop\n        /* \"#utility.yul\":19252:19655   */\n      swap2\n      swap1\n      pop\n      jump\t// out\n        /* \"#utility.yul\":19657:19818   */\n    tag_260:\n        /* \"#utility.yul\":19793:19814   */\n      0x4e6f2067616d6520746f20776974686472617700000000000000000000000000\n        /* \"#utility.yul\":19789:19790   */\n      0x00\n        /* \"#utility.yul\":19781:19787   */\n      dup3\n        /* \"#utility.yul\":19777:19791   */\n      add\n        /* \"#utility.yul\":19770:19815   */\n      mstore\n        /* \"#utility.yul\":19657:19818   */\n      pop\n      jump\t// out\n        /* \"#utility.yul\":19820:20170   */\n    tag_261:\n        /* \"#utility.yul\":19962:19965   */\n      0x00\n        /* \"#utility.yul\":19979:20046   */\n      tag_445\n        /* \"#utility.yul\":20043:20045   */\n      0x13\n        /* \"#utility.yul\":20038:20041   */\n      dup4\n        /* \"#utility.yul\":19979:20046   */\n      tag_230\n      jump\t// in\n    tag_445:\n        /* \"#utility.yul\":19972:20046   */\n      swap2\n      pop\n        /* \"#utility.yul\":20051:20144   */\n      tag_446\n        /* \"#utility.yul\":20140:20143   */\n      dup3\n        /* \"#utility.yul\":20051:20144   */\n      tag_260\n      jump\t// in\n    tag_446:\n        /* \"#utility.yul\":20165:20167   */\n      0x20\n        /* \"#utility.yul\":20160:20163   */\n      dup3\n        /* \"#utility.yul\":20156:20168   */\n      add\n        /* \"#utility.yul\":20149:20168   */\n      swap1\n      pop\n        /* \"#utility.yul\":19820:20170   */\n      swap2\n      swap1\n      pop\n      jump\t// out\n        /* \"#utility.yul\":20172:20575   */\n    tag_137:\n        /* \"#utility.yul\":20338:20342   */\n      0x00\n        /* \"#utility.yul\":20372:20374   */\n      0x20\n        /* \"#utility.yul\":20361:20370   */\n      dup3\n        /* \"#utility.yul\":20357:20375   */\n      add\n        /* \"#utility.yul\":20349:20375   */\n      swap1\n      pop\n        /* \"#utility.yul\":20417:20426   */\n      dup2\n        /* \"#utility.yul\":20411:20415   */\n      dup2\n        /* \"#utility.yul\":20407:20427   */\n      sub\n        /* \"#utility.yul\":20403:20404   */\n      0x00\n        /* \"#utility.yul\":20392:20401   */\n      dup4\n        /* \"#utility.yul\":20388:20405   */\n      add\n        /* \"#utility.yul\":20381:20428   */\n      mstore\n        /* \"#utility.yul\":20441:20572   */\n      tag_448\n        /* \"#utility.yul\":20567:20571   */\n      dup2\n        /* \"#utility.yul\":20441:20572   */\n      tag_261\n      jump\t// in\n    tag_448:\n        /* \"#utility.yul\":20433:20572   */\n      swap1\n      pop\n        /* \"#utility.yul\":20172:20575   */\n      swap2\n      swap1\n      pop\n      jump\t// out\n        /* \"#utility.yul\":20577:20858   */\n    tag_262:\n        /* \"#utility.yul\":20713:20747   */\n      0x596f752063616e206f6e6c792077697468647261772061667465722035206d69\n        /* \"#utility.yul\":20709:20710   */\n      0x00\n        /* \"#utility.yul\":20701:20707   */\n      dup3\n        /* \"#utility.yul\":20697:20711   */\n      add\n        /* \"#utility.yul\":20690:20748   */\n      mstore\n        /* \"#utility.yul\":20778:20812   */\n      0x6e75746573206966206f7468657220706c6179657220686176656e2774206d61\n        /* \"#utility.yul\":20773:20775   */\n      0x20\n        /* \"#utility.yul\":20765:20771   */\n      dup3\n        /* \"#utility.yul\":20761:20776   */\n      add\n        /* \"#utility.yul\":20754:20813   */\n      mstore\n        /* \"#utility.yul\":20843:20854   */\n      0x6b652061206d6f76650000000000000000000000000000000000000000000000\n        /* \"#utility.yul\":20838:20840   */\n      0x40\n        /* \"#utility.yul\":20830:20836   */\n      dup3\n        /* \"#utility.yul\":20826:20841   */\n      add\n        /* \"#utility.yul\":20819:20855   */\n      mstore\n        /* \"#utility.yul\":20577:20858   */\n      pop\n      jump\t// out\n        /* \"#utility.yul\":20860:21210   */\n    tag_263:\n        /* \"#utility.yul\":21002:21005   */\n      0x00\n        /* \"#utility.yul\":21019:21086   */\n      tag_451\n        /* \"#utility.yul\":21083:21085   */\n      0x49\n        /* \"#utility.yul\":21078:21081   */\n      dup4\n        /* \"#utility.yul\":21019:21086   */\n      tag_230\n      jump\t// in\n    tag_451:\n        /* \"#utility.yul\":21012:21086   */\n      swap2\n      pop\n        /* \"#utility.yul\":21091:21184   */\n      tag_452\n        /* \"#utility.yul\":21180:21183   */\n      dup3\n        /* \"#utility.yul\":21091:21184   */\n      tag_262\n      jump\t// in\n    tag_452:\n        /* \"#utility.yul\":21205:21207   */\n      0x60\n        /* \"#utility.yul\":21200:21203   */\n      dup3\n        /* \"#utility.yul\":21196:21208   */\n      add\n        /* \"#utility.yul\":21189:21208   */\n      swap1\n      pop\n        /* \"#utility.yul\":20860:21210   */\n      swap2\n      swap1\n      pop\n      jump\t// out\n        /* \"#utility.yul\":21212:21615   */\n    tag_141:\n        /* \"#utility.yul\":21378:21382   */\n      0x00\n        /* \"#utility.yul\":21412:21414   */\n      0x20\n        /* \"#utility.yul\":21401:21410   */\n      dup3\n        /* \"#utility.yul\":21397:21415   */\n      add\n        /* \"#utility.yul\":21389:21415   */\n      swap1\n      pop\n        /* \"#utility.yul\":21457:21466   */\n      dup2\n        /* \"#utility.yul\":21451:21455   */\n      dup2\n        /* \"#utility.yul\":21447:21467   */\n      sub\n        /* \"#utility.yul\":21443:21444   */\n      0x00\n        /* \"#utility.yul\":21432:21441   */\n      dup4\n        /* \"#utility.yul\":21428:21445   */\n      add\n        /* \"#utility.yul\":21421:21468   */\n      mstore\n        /* \"#utility.yul\":21481:21612   */\n      tag_454\n        /* \"#utility.yul\":21607:21611   */\n      dup2\n        /* \"#utility.yul\":21481:21612   */\n      tag_263\n      jump\t// in\n    tag_454:\n        /* \"#utility.yul\":21473:21612   */\n      swap1\n      pop\n        /* \"#utility.yul\":21212:21615   */\n      swap2\n      swap1\n      pop\n      jump\t// out\n        /* \"#utility.yul\":21617:21781   */\n    tag_264:\n        /* \"#utility.yul\":21661:21738   */\n      0x4e487b7100000000000000000000000000000000000000000000000000000000\n        /* \"#utility.yul\":21658:21659   */\n      0x00\n        /* \"#utility.yul\":21651:21739   */\n      mstore\n        /* \"#utility.yul\":21754:21758   */\n      0x12\n        /* \"#utility.yul\":21751:21752   */\n      0x04\n        /* \"#utility.yul\":21744:21759   */\n      mstore\n        /* \"#utility.yul\":21774:21778   */\n      0x24\n        /* \"#utility.yul\":21771:21772   */\n      0x00\n        /* \"#utility.yul\":21764:21779   */\n      revert\n        /* \"#utility.yul\":21783:21939   */\n    tag_168:\n        /* \"#utility.yul\":21815:21816   */\n      0x00\n        /* \"#utility.yul\":21828:21848   */\n      tag_457\n        /* \"#utility.yul\":21846:21847   */\n      dup3\n        /* \"#utility.yul\":21828:21848   */\n      tag_202\n      jump\t// in\n    tag_457:\n        /* \"#utility.yul\":21823:21848   */\n      swap2\n      pop\n        /* \"#utility.yul\":21858:21878   */\n      tag_458\n        /* \"#utility.yul\":21876:21877   */\n      dup4\n        /* \"#utility.yul\":21858:21878   */\n      tag_202\n      jump\t// in\n    tag_458:\n        /* \"#utility.yul\":21853:21878   */\n      swap3\n      pop\n        /* \"#utility.yul\":21893:21894   */\n      dup3\n        /* \"#utility.yul\":21883:21918   */\n      tag_459\n      jumpi\n        /* \"#utility.yul\":21898:21916   */\n      tag_460\n      tag_264\n      jump\t// in\n    tag_460:\n        /* \"#utility.yul\":21883:21918   */\n    tag_459:\n        /* \"#utility.yul\":21935:21936   */\n      dup3\n        /* \"#utility.yul\":21932:21933   */\n      dup3\n        /* \"#utility.yul\":21928:21937   */\n      mod\n        /* \"#utility.yul\":21923:21937   */\n      swap1\n      pop\n        /* \"#utility.yul\":21783:21939   */\n      swap3\n      swap2\n      pop\n      pop\n      jump\t// out\n        /* \"#utility.yul\":21941:22106   */\n    tag_186:\n        /* \"#utility.yul\":21981:21982   */\n      0x00\n        /* \"#utility.yul\":21994:22014   */\n      tag_462\n        /* \"#utility.yul\":22012:22013   */\n      dup3\n        /* \"#utility.yul\":21994:22014   */\n      tag_202\n      jump\t// in\n    tag_462:\n        /* \"#utility.yul\":21989:22014   */\n      swap2\n      pop\n        /* \"#utility.yul\":22024:22044   */\n      tag_463\n        /* \"#utility.yul\":22042:22043   */\n      dup4\n        /* \"#utility.yul\":22024:22044   */\n      tag_202\n      jump\t// in\n    tag_463:\n        /* \"#utility.yul\":22019:22044   */\n      swap3\n      pop\n        /* \"#utility.yul\":22059:22060   */\n      dup3\n        /* \"#utility.yul\":22049:22084   */\n      tag_464\n      jumpi\n        /* \"#utility.yul\":22064:22082   */\n      tag_465\n      tag_264\n      jump\t// in\n    tag_465:\n        /* \"#utility.yul\":22049:22084   */\n    tag_464:\n        /* \"#utility.yul\":22102:22103   */\n      dup3\n        /* \"#utility.yul\":22099:22100   */\n      dup3\n        /* \"#utility.yul\":22095:22104   */\n      div\n        /* \"#utility.yul\":22090:22104   */\n      swap1\n      pop\n        /* \"#utility.yul\":21941:22106   */\n      swap3\n      swap2\n      pop\n      pop\n      jump\t// out\n\n    auxdata: 0xa26469706673582212200c678925c747b7155434f121b9db7b47c368050bed4a22c251f9e3d448be439864736f6c634300081a0033\n}\n",
				"bytecode": {
					"linkReferences": {},
					"object": "60806040525f80555f6001555f60035f6101000a81548160ff0219169083151502179055506040518060800160405280735b38da6a701c568545dcfcb03fcb875f56beddc473ffffffffffffffffffffffffffffffffffffffff1673ffffffffffffffffffffffffffffffffffffffff16815260200173ab8483f64d9c6d1ecf9b849ae677dd3315835cb273ffffffffffffffffffffffffffffffffffffffff1673ffffffffffffffffffffffffffffffffffffffff168152602001734b20993bc481177ec7e8f571cecae8a9e22c02db73ffffffffffffffffffffffffffffffffffffffff1673ffffffffffffffffffffffffffffffffffffffff1681526020017378731d3ca6b7e34ac0f824c42a7cc18a495cabab73ffffffffffffffffffffffffffffffffffffffff1673ffffffffffffffffffffffffffffffffffffffff168152506008906004610155929190610167565b50348015610161575f80fd5b50610209565b828054828255905f5260205f209081019282156101dd579160200282015b828111156101dc578251825f6101000a81548173ffffffffffffffffffffffffffffffffffffffff021916908373ffffffffffffffffffffffffffffffffffffffff16021790555091602001919060010190610185565b5b5090506101ea91906101ee565b5090565b5b80821115610205575f815f9055506001016101ef565b5090565b611be4806102165f395ff3fe6080604052600436106100a6575f3560e01c806390d5d0c31161006357806390d5d0c3146101a8578063a9ea37b6146101d2578063aead4af2146101fa578063ee10ff1714610210578063f020044f1461024c578063f71d96cb14610276576100a6565b8063228cb733146100aa57806327b5db8a146100d457806327c0583f146100de5780632f3e83631461011a57806378e97925146101425780637b43a8e61461016c575b5f80fd5b3480156100b5575f80fd5b506100be6102b2565b6040516100cb9190611095565b60405180910390f35b6100dc6102b8565b005b3480156100e9575f80fd5b5061010460048036038101906100ff9190611119565b610508565b604051610111919061115e565b60405180910390f35b348015610125575f80fd5b50610140600480360381019061013b91906112dd565b610525565b005b34801561014d575f80fd5b50610156610942565b6040516101639190611095565b60405180910390f35b348015610177575f80fd5b50610192600480360381019061018d9190611119565b610948565b60405161019f919061134f565b60405180910390f35b3480156101b3575f80fd5b506101bc61095d565b6040516101c99190611095565b60405180910390f35b3480156101dd575f80fd5b506101f860048036038101906101f39190611392565b610962565b005b348015610205575f80fd5b5061020e610ac1565b005b34801561021b575f80fd5b5061023660048036038101906102319190611119565b610c67565b6040516102439190611095565b60405180910390f35b348015610257575f80fd5b50610260610c7c565b60405161026d919061115e565b60405180910390f35b348015610281575f80fd5b5061029c600480360381019061029791906113bd565b610c8e565b6040516102a991906113f7565b60405180910390f35b60015481565b60025f54106102fc576040517f08c379a00000000000000000000000000000000000000000000000000000000081526004016102f39061146a565b60405180910390fd5b5f151560035f9054906101000a900460ff16151514610350576040517f08c379a0000000000000000000000000000000000000000000000000000000008152600401610347906114d2565b60405180910390fd5b5f805411156104035760075f8154811061036d5761036c6114f0565b5b905f5260205f20015f9054906101000a900473ffffffffffffffffffffffffffffffffffffffff1673ffffffffffffffffffffffffffffffffffffffff163373ffffffffffffffffffffffffffffffffffffffff1603610402576040517f08c379a00000000000000000000000000000000000000000000000000000000081526004016103f990611567565b60405180910390fd5b5b670de0b6b3a7640000341461044d576040517f08c379a0000000000000000000000000000000000000000000000000000000008152600401610444906115cf565b60405180910390fd5b3460015f82825461045e919061161a565b92505081905550600733908060018154018082558091505060019003905f5260205f20015f9091909190916101000a81548173ffffffffffffffffffffffffffffffffffffffff021916908373ffffffffffffffffffffffffffffffffffffffff1602179055505f808154809291906104d69061164d565b919050555060025f540361050657600160035f6101000a81548160ff021916908315150217905550426002819055505b565b6006602052805f5260405f205f915054906101000a900460ff1681565b6001151560035f9054906101000a900460ff1615151461057a576040517f08c379a0000000000000000000000000000000000000000000000000000000008152600401610571906116de565b60405180910390fd5b5f801b60045f3373ffffffffffffffffffffffffffffffffffffffff1673ffffffffffffffffffffffffffffffffffffffff1681526020019081526020015f2054036105fb576040517f08c379a00000000000000000000000000000000000000000000000000000000081526004016105f290611746565b60405180910390fd5b5f151560065f3373ffffffffffffffffffffffffffffffffffffffff1673ffffffffffffffffffffffffffffffffffffffff1681526020019081526020015f205f9054906101000a900460ff1615151461068a576040517f08c379a0000000000000000000000000000000000000000000000000000000008152600401610681906117ae565b60405180910390fd5b5f821015801561069b575060048211155b6106da576040517f08c379a00000000000000000000000000000000000000000000000000000000081526004016106d190611816565b60405180910390fd5b5f82826040516020016106ee9291906118a6565b60405160208183030381529060405280519060200120905060045f3373ffffffffffffffffffffffffffffffffffffffff1673ffffffffffffffffffffffffffffffffffffffff1681526020019081526020015f20548114610785576040517f08c379a000000000000000000000000000000000000000000000000000000000815260040161077c90611917565b60405180910390fd5b8260055f3373ffffffffffffffffffffffffffffffffffffffff1673ffffffffffffffffffffffffffffffffffffffff1681526020019081526020015f2081905550600160065f3373ffffffffffffffffffffffffffffffffffffffff1673ffffffffffffffffffffffffffffffffffffffff1681526020019081526020015f205f6101000a81548160ff02191690831515021790555060065f60075f81548110610833576108326114f0565b5b905f5260205f20015f9054906101000a900473ffffffffffffffffffffffffffffffffffffffff1673ffffffffffffffffffffffffffffffffffffffff1673ffffffffffffffffffffffffffffffffffffffff1681526020019081526020015f205f9054906101000a900460ff16801561092f575060065f60076001815481106108c0576108bf6114f0565b5b905f5260205f20015f9054906101000a900473ffffffffffffffffffffffffffffffffffffffff1673ffffffffffffffffffffffffffffffffffffffff1673ffffffffffffffffffffffffffffffffffffffff1681526020019081526020015f205f9054906101000a900460ff165b1561093d5761093c610cc9565b5b505050565b60025481565b6004602052805f5260405f205f915090505481565b5f5481565b6001151560035f9054906101000a900460ff161515146109b7576040517f08c379a00000000000000000000000000000000000000000000000000000000081526004016109ae906116de565b60405180910390fd5b60025f54146109fb576040517f08c379a00000000000000000000000000000000000000000000000000000000081526004016109f29061197f565b60405180910390fd5b5f801b60045f3373ffffffffffffffffffffffffffffffffffffffff1673ffffffffffffffffffffffffffffffffffffffff1681526020019081526020015f205414610a7c576040517f08c379a0000000000000000000000000000000000000000000000000000000008152600401610a73906119e7565b60405180910390fd5b8060045f3373ffffffffffffffffffffffffffffffffffffffff1673ffffffffffffffffffffffffffffffffffffffff1681526020019081526020015f208190555050565b6001151560035f9054906101000a900460ff16151514610b16576040517f08c379a0000000000000000000000000000000000000000000000000000000008152600401610b0d90611a4f565b60405180910390fd5b61012c600254610b26919061161a565b4211610b67576040517f08c379a0000000000000000000000000000000000000000000000000000000008152600401610b5e90611b03565b60405180910390fd5b5f5b600780549050811015610c64575f60078281548110610b8b57610b8a6114f0565b5b905f5260205f20015f9054906101000a900473ffffffffffffffffffffffffffffffffffffffff1690505f151560065f8373ffffffffffffffffffffffffffffffffffffffff1673ffffffffffffffffffffffffffffffffffffffff1681526020019081526020015f205f9054906101000a900460ff16151503610c56578073ffffffffffffffffffffffffffffffffffffffff166108fc670de0b6b3a764000090811502906040515f60405180830381858888f19350505050158015610c54573d5f803e3d5ffd5b505b508080600101915050610b69565b50565b6005602052805f5260405f205f915090505481565b60035f9054906101000a900460ff1681565b60078181548110610c9d575f80fd5b905f5260205f20015f915054906101000a900473ffffffffffffffffffffffffffffffffffffffff1681565b5f60055f60075f81548110610ce157610ce06114f0565b5b905f5260205f20015f9054906101000a900473ffffffffffffffffffffffffffffffffffffffff1673ffffffffffffffffffffffffffffffffffffffff1673ffffffffffffffffffffffffffffffffffffffff1681526020019081526020015f205490505f60055f6007600181548110610d5e57610d5d6114f0565b5b905f5260205f20015f9054906101000a900473ffffffffffffffffffffffffffffffffffffffff1673ffffffffffffffffffffffffffffffffffffffff1673ffffffffffffffffffffffffffffffffffffffff1681526020019081526020015f205490505f60075f81548110610dd757610dd66114f0565b5b905f5260205f20015f9054906101000a900473ffffffffffffffffffffffffffffffffffffffff1690505f6007600181548110610e1757610e166114f0565b5b905f5260205f20015f9054906101000a900473ffffffffffffffffffffffffffffffffffffffff169050826005600186610e51919061161a565b610e5b9190611b4e565b1480610e7e5750826005600386610e72919061161a565b610e7c9190611b4e565b145b15610ece578073ffffffffffffffffffffffffffffffffffffffff166108fc60015490811502906040515f60405180830381858888f19350505050158015610ec8573d5f803e3d5ffd5b50611001565b836005600185610ede919061161a565b610ee89190611b4e565b1480610f0b5750836005600385610eff919061161a565b610f099190611b4e565b145b15610f5b578173ffffffffffffffffffffffffffffffffffffffff166108fc60015490811502906040515f60405180830381858888f19350505050158015610f55573d5f803e3d5ffd5b50611000565b8173ffffffffffffffffffffffffffffffffffffffff166108fc6002600154610f849190611b7e565b90811502906040515f60405180830381858888f19350505050158015610fac573d5f803e3d5ffd5b508073ffffffffffffffffffffffffffffffffffffffff166108fc6002600154610fd69190611b7e565b90811502906040515f60405180830381858888f19350505050158015610ffe573d5f803e3d5ffd5b505b5b61100961100f565b50505050565b5f80819055505f60018190555060075f6110299190611044565b5f60035f6101000a81548160ff021916908315150217905550565b5080545f8255905f5260205f209081019061105f9190611062565b50565b5b80821115611079575f815f905550600101611063565b5090565b5f819050919050565b61108f8161107d565b82525050565b5f6020820190506110a85f830184611086565b92915050565b5f604051905090565b5f80fd5b5f80fd5b5f73ffffffffffffffffffffffffffffffffffffffff82169050919050565b5f6110e8826110bf565b9050919050565b6110f8816110de565b8114611102575f80fd5b50565b5f81359050611113816110ef565b92915050565b5f6020828403121561112e5761112d6110b7565b5b5f61113b84828501611105565b91505092915050565b5f8115159050919050565b61115881611144565b82525050565b5f6020820190506111715f83018461114f565b92915050565b6111808161107d565b811461118a575f80fd5b50565b5f8135905061119b81611177565b92915050565b5f80fd5b5f80fd5b5f601f19601f8301169050919050565b7f4e487b71000000000000000000000000000000000000000000000000000000005f52604160045260245ffd5b6111ef826111a9565b810181811067ffffffffffffffff8211171561120e5761120d6111b9565b5b80604052505050565b5f6112206110ae565b905061122c82826111e6565b919050565b5f67ffffffffffffffff82111561124b5761124a6111b9565b5b611254826111a9565b9050602081019050919050565b828183375f83830152505050565b5f61128161127c84611231565b611217565b90508281526020810184848401111561129d5761129c6111a5565b5b6112a8848285611261565b509392505050565b5f82601f8301126112c4576112c36111a1565b5b81356112d484826020860161126f565b91505092915050565b5f80604083850312156112f3576112f26110b7565b5b5f6113008582860161118d565b925050602083013567ffffffffffffffff811115611321576113206110bb565b5b61132d858286016112b0565b9150509250929050565b5f819050919050565b61134981611337565b82525050565b5f6020820190506113625f830184611340565b92915050565b61137181611337565b811461137b575f80fd5b50565b5f8135905061138c81611368565b92915050565b5f602082840312156113a7576113a66110b7565b5b5f6113b48482850161137e565b91505092915050565b5f602082840312156113d2576113d16110b7565b5b5f6113df8482850161118d565b91505092915050565b6113f1816110de565b82525050565b5f60208201905061140a5f8301846113e8565b92915050565b5f82825260208201905092915050565b7f4d6178696d756d20506c617965727320526561636865640000000000000000005f82015250565b5f611454601783611410565b915061145f82611420565b602082019050919050565b5f6020820190508181035f83015261148181611448565b9050919050565b7f47616d6520616c726561647920696e2070726f677265737300000000000000005f82015250565b5f6114bc601883611410565b91506114c782611488565b602082019050919050565b5f6020820190508181035f8301526114e9816114b0565b9050919050565b7f4e487b71000000000000000000000000000000000000000000000000000000005f52603260045260245ffd5b7f596f752061726520616c726561647920696e207468652067616d6500000000005f82015250565b5f611551601b83611410565b915061155c8261151d565b602082019050919050565b5f6020820190508181035f83015261157e81611545565b9050919050565b7f456e7472792066656520697320312065746865720000000000000000000000005f82015250565b5f6115b9601483611410565b91506115c482611585565b602082019050919050565b5f6020820190508181035f8301526115e6816115ad565b9050919050565b7f4e487b71000000000000000000000000000000000000000000000000000000005f52601160045260245ffd5b5f6116248261107d565b915061162f8361107d565b9250828201905080821115611647576116466115ed565b5b92915050565b5f6116578261107d565b91507fffffffffffffffffffffffffffffffffffffffffffffffffffffffffffffffff8203611689576116886115ed565b5b600182019050919050565b7f47616d65206973206e6f742061637469766500000000000000000000000000005f82015250565b5f6116c8601283611410565b91506116d382611694565b602082019050919050565b5f6020820190508181035f8301526116f5816116bc565b9050919050565b7f4e6f20636f6d6d697420686173206265656e206d616465293b000000000000005f82015250565b5f611730601983611410565b915061173b826116fc565b602082019050919050565b5f6020820190508181035f83015261175d81611724565b9050919050565b7f4d6f766520616c72656164792072657665616c656400000000000000000000005f82015250565b5f611798601583611410565b91506117a382611764565b602082019050919050565b5f6020820190508181035f8301526117c58161178c565b9050919050565b7f496e76616c696420496e707574000000000000000000000000000000000000005f82015250565b5f611800600d83611410565b915061180b826117cc565b602082019050919050565b5f6020820190508181035f83015261182d816117f4565b9050919050565b5f819050919050565b61184e6118498261107d565b611834565b82525050565b5f81519050919050565b5f81905092915050565b8281835e5f83830152505050565b5f61188082611854565b61188a818561185e565b935061189a818560208601611868565b80840191505092915050565b5f6118b1828561183d565b6020820191506118c18284611876565b91508190509392505050565b7f496e76616c69642052657665616c0000000000000000000000000000000000005f82015250565b5f611901600e83611410565b915061190c826118cd565b602082019050919050565b5f6020820190508181035f83015261192e816118f5565b9050919050565b7f4e6f7420656e6f75676820706c617965720000000000000000000000000000005f82015250565b5f611969601183611410565b915061197482611935565b602082019050919050565b5f6020820190508181035f8301526119968161195d565b9050919050565b7f4d6f766520616c726561647920636f6d6d6974656400000000000000000000005f82015250565b5f6119d1601583611410565b91506119dc8261199d565b602082019050919050565b5f6020820190508181035f8301526119fe816119c5565b9050919050565b7f4e6f2067616d6520746f207769746864726177000000000000000000000000005f82015250565b5f611a39601383611410565b9150611a4482611a05565b602082019050919050565b5f6020820190508181035f830152611a6681611a2d565b9050919050565b7f596f752063616e206f6e6c792077697468647261772061667465722035206d695f8201527f6e75746573206966206f7468657220706c6179657220686176656e2774206d6160208201527f6b652061206d6f76650000000000000000000000000000000000000000000000604082015250565b5f611aed604983611410565b9150611af882611a6d565b606082019050919050565b5f6020820190508181035f830152611b1a81611ae1565b9050919050565b7f4e487b71000000000000000000000000000000000000000000000000000000005f52601260045260245ffd5b5f611b588261107d565b9150611b638361107d565b925082611b7357611b72611b21565b5b828206905092915050565b5f611b888261107d565b9150611b938361107d565b925082611ba357611ba2611b21565b5b82820490509291505056fea26469706673582212200c678925c747b7155434f121b9db7b47c368050bed4a22c251f9e3d448be439864736f6c634300081a0033",
					"opcodes": "PUSH1 0x80 PUSH1 0x40 MSTORE PUSH0 DUP1 SSTORE PUSH0 PUSH1 0x1 SSTORE PUSH0 PUSH1 0x3 PUSH0 PUSH2 0x100 EXP DUP2 SLOAD DUP2 PUSH1 0xFF MUL NOT AND SWAP1 DUP4 ISZERO ISZERO MUL OR SWAP1 SSTORE POP PUSH1 0x40 MLOAD DUP1 PUSH1 0x80 ADD PUSH1 0x40 MSTORE DUP1 PUSH20 0x5B38DA6A701C568545DCFCB03FCB875F56BEDDC4 PUSH20 0xFFFFFFFFFFFFFFFFFFFFFFFFFFFFFFFFFFFFFFFF AND PUSH20 0xFFFFFFFFFFFFFFFFFFFFFFFFFFFFFFFFFFFFFFFF AND DUP2 MSTORE PUSH1 0x20 ADD PUSH20 0xAB8483F64D9C6D1ECF9B849AE677DD3315835CB2 PUSH20 0xFFFFFFFFFFFFFFFFFFFFFFFFFFFFFFFFFFFFFFFF AND PUSH20 0xFFFFFFFFFFFFFFFFFFFFFFFFFFFFFFFFFFFFFFFF AND DUP2 MSTORE PUSH1 0x20 ADD PUSH20 0x4B20993BC481177EC7E8F571CECAE8A9E22C02DB PUSH20 0xFFFFFFFFFFFFFFFFFFFFFFFFFFFFFFFFFFFFFFFF AND PUSH20 0xFFFFFFFFFFFFFFFFFFFFFFFFFFFFFFFFFFFFFFFF AND DUP2 MSTORE PUSH1 0x20 ADD PUSH20 0x78731D3CA6B7E34AC0F824C42A7CC18A495CABAB PUSH20 0xFFFFFFFFFFFFFFFFFFFFFFFFFFFFFFFFFFFFFFFF AND PUSH20 0xFFFFFFFFFFFFFFFFFFFFFFFFFFFFFFFFFFFFFFFF AND DUP2 MSTORE POP PUSH1 0x8 SWAP1 PUSH1 0x4 PUSH2 0x155 SWAP3 SWAP2 SWAP1 PUSH2 0x167 JUMP JUMPDEST POP CALLVALUE DUP1 ISZERO PUSH2 0x161 JUMPI PUSH0 DUP1 REVERT JUMPDEST POP PUSH2 0x209 JUMP JUMPDEST DUP3 DUP1 SLOAD DUP3 DUP3 SSTORE SWAP1 PUSH0 MSTORE PUSH1 0x20 PUSH0 KECCAK256 SWAP1 DUP2 ADD SWAP3 DUP3 ISZERO PUSH2 0x1DD JUMPI SWAP2 PUSH1 0x20 MUL DUP3 ADD JUMPDEST DUP3 DUP2 GT ISZERO PUSH2 0x1DC JUMPI DUP3 MLOAD DUP3 PUSH0 PUSH2 0x100 EXP DUP2 SLOAD DUP2 PUSH20 0xFFFFFFFFFFFFFFFFFFFFFFFFFFFFFFFFFFFFFFFF MUL NOT AND SWAP1 DUP4 PUSH20 0xFFFFFFFFFFFFFFFFFFFFFFFFFFFFFFFFFFFFFFFF AND MUL OR SWAP1 SSTORE POP SWAP2 PUSH1 0x20 ADD SWAP2 SWAP1 PUSH1 0x1 ADD SWAP1 PUSH2 0x185 JUMP JUMPDEST JUMPDEST POP SWAP1 POP PUSH2 0x1EA SWAP2 SWAP1 PUSH2 0x1EE JUMP JUMPDEST POP SWAP1 JUMP JUMPDEST JUMPDEST DUP1 DUP3 GT ISZERO PUSH2 0x205 JUMPI PUSH0 DUP2 PUSH0 SWAP1 SSTORE POP PUSH1 0x1 ADD PUSH2 0x1EF JUMP JUMPDEST POP SWAP1 JUMP JUMPDEST PUSH2 0x1BE4 DUP1 PUSH2 0x216 PUSH0 CODECOPY PUSH0 RETURN INVALID PUSH1 0x80 PUSH1 0x40 MSTORE PUSH1 0x4 CALLDATASIZE LT PUSH2 0xA6 JUMPI PUSH0 CALLDATALOAD PUSH1 0xE0 SHR DUP1 PUSH4 0x90D5D0C3 GT PUSH2 0x63 JUMPI DUP1 PUSH4 0x90D5D0C3 EQ PUSH2 0x1A8 JUMPI DUP1 PUSH4 0xA9EA37B6 EQ PUSH2 0x1D2 JUMPI DUP1 PUSH4 0xAEAD4AF2 EQ PUSH2 0x1FA JUMPI DUP1 PUSH4 0xEE10FF17 EQ PUSH2 0x210 JUMPI DUP1 PUSH4 0xF020044F EQ PUSH2 0x24C JUMPI DUP1 PUSH4 0xF71D96CB EQ PUSH2 0x276 JUMPI PUSH2 0xA6 JUMP JUMPDEST DUP1 PUSH4 0x228CB733 EQ PUSH2 0xAA JUMPI DUP1 PUSH4 0x27B5DB8A EQ PUSH2 0xD4 JUMPI DUP1 PUSH4 0x27C0583F EQ PUSH2 0xDE JUMPI DUP1 PUSH4 0x2F3E8363 EQ PUSH2 0x11A JUMPI DUP1 PUSH4 0x78E97925 EQ PUSH2 0x142 JUMPI DUP1 PUSH4 0x7B43A8E6 EQ PUSH2 0x16C JUMPI JUMPDEST PUSH0 DUP1 REVERT JUMPDEST CALLVALUE DUP1 ISZERO PUSH2 0xB5 JUMPI PUSH0 DUP1 REVERT JUMPDEST POP PUSH2 0xBE PUSH2 0x2B2 JUMP JUMPDEST PUSH1 0x40 MLOAD PUSH2 0xCB SWAP2 SWAP1 PUSH2 0x1095 JUMP JUMPDEST PUSH1 0x40 MLOAD DUP1 SWAP2 SUB SWAP1 RETURN JUMPDEST PUSH2 0xDC PUSH2 0x2B8 JUMP JUMPDEST STOP JUMPDEST CALLVALUE DUP1 ISZERO PUSH2 0xE9 JUMPI PUSH0 DUP1 REVERT JUMPDEST POP PUSH2 0x104 PUSH1 0x4 DUP1 CALLDATASIZE SUB DUP2 ADD SWAP1 PUSH2 0xFF SWAP2 SWAP1 PUSH2 0x1119 JUMP JUMPDEST PUSH2 0x508 JUMP JUMPDEST PUSH1 0x40 MLOAD PUSH2 0x111 SWAP2 SWAP1 PUSH2 0x115E JUMP JUMPDEST PUSH1 0x40 MLOAD DUP1 SWAP2 SUB SWAP1 RETURN JUMPDEST CALLVALUE DUP1 ISZERO PUSH2 0x125 JUMPI PUSH0 DUP1 REVERT JUMPDEST POP PUSH2 0x140 PUSH1 0x4 DUP1 CALLDATASIZE SUB DUP2 ADD SWAP1 PUSH2 0x13B SWAP2 SWAP1 PUSH2 0x12DD JUMP JUMPDEST PUSH2 0x525 JUMP JUMPDEST STOP JUMPDEST CALLVALUE DUP1 ISZERO PUSH2 0x14D JUMPI PUSH0 DUP1 REVERT JUMPDEST POP PUSH2 0x156 PUSH2 0x942 JUMP JUMPDEST PUSH1 0x40 MLOAD PUSH2 0x163 SWAP2 SWAP1 PUSH2 0x1095 JUMP JUMPDEST PUSH1 0x40 MLOAD DUP1 SWAP2 SUB SWAP1 RETURN JUMPDEST CALLVALUE DUP1 ISZERO PUSH2 0x177 JUMPI PUSH0 DUP1 REVERT JUMPDEST POP PUSH2 0x192 PUSH1 0x4 DUP1 CALLDATASIZE SUB DUP2 ADD SWAP1 PUSH2 0x18D SWAP2 SWAP1 PUSH2 0x1119 JUMP JUMPDEST PUSH2 0x948 JUMP JUMPDEST PUSH1 0x40 MLOAD PUSH2 0x19F SWAP2 SWAP1 PUSH2 0x134F JUMP JUMPDEST PUSH1 0x40 MLOAD DUP1 SWAP2 SUB SWAP1 RETURN JUMPDEST CALLVALUE DUP1 ISZERO PUSH2 0x1B3 JUMPI PUSH0 DUP1 REVERT JUMPDEST POP PUSH2 0x1BC PUSH2 0x95D JUMP JUMPDEST PUSH1 0x40 MLOAD PUSH2 0x1C9 SWAP2 SWAP1 PUSH2 0x1095 JUMP JUMPDEST PUSH1 0x40 MLOAD DUP1 SWAP2 SUB SWAP1 RETURN JUMPDEST CALLVALUE DUP1 ISZERO PUSH2 0x1DD JUMPI PUSH0 DUP1 REVERT JUMPDEST POP PUSH2 0x1F8 PUSH1 0x4 DUP1 CALLDATASIZE SUB DUP2 ADD SWAP1 PUSH2 0x1F3 SWAP2 SWAP1 PUSH2 0x1392 JUMP JUMPDEST PUSH2 0x962 JUMP JUMPDEST STOP JUMPDEST CALLVALUE DUP1 ISZERO PUSH2 0x205 JUMPI PUSH0 DUP1 REVERT JUMPDEST POP PUSH2 0x20E PUSH2 0xAC1 JUMP JUMPDEST STOP JUMPDEST CALLVALUE DUP1 ISZERO PUSH2 0x21B JUMPI PUSH0 DUP1 REVERT JUMPDEST POP PUSH2 0x236 PUSH1 0x4 DUP1 CALLDATASIZE SUB DUP2 ADD SWAP1 PUSH2 0x231 SWAP2 SWAP1 PUSH2 0x1119 JUMP JUMPDEST PUSH2 0xC67 JUMP JUMPDEST PUSH1 0x40 MLOAD PUSH2 0x243 SWAP2 SWAP1 PUSH2 0x1095 JUMP JUMPDEST PUSH1 0x40 MLOAD DUP1 SWAP2 SUB SWAP1 RETURN JUMPDEST CALLVALUE DUP1 ISZERO PUSH2 0x257 JUMPI PUSH0 DUP1 REVERT JUMPDEST POP PUSH2 0x260 PUSH2 0xC7C JUMP JUMPDEST PUSH1 0x40 MLOAD PUSH2 0x26D SWAP2 SWAP1 PUSH2 0x115E JUMP JUMPDEST PUSH1 0x40 MLOAD DUP1 SWAP2 SUB SWAP1 RETURN JUMPDEST CALLVALUE DUP1 ISZERO PUSH2 0x281 JUMPI PUSH0 DUP1 REVERT JUMPDEST POP PUSH2 0x29C PUSH1 0x4 DUP1 CALLDATASIZE SUB DUP2 ADD SWAP1 PUSH2 0x297 SWAP2 SWAP1 PUSH2 0x13BD JUMP JUMPDEST PUSH2 0xC8E JUMP JUMPDEST PUSH1 0x40 MLOAD PUSH2 0x2A9 SWAP2 SWAP1 PUSH2 0x13F7 JUMP JUMPDEST PUSH1 0x40 MLOAD DUP1 SWAP2 SUB SWAP1 RETURN JUMPDEST PUSH1 0x1 SLOAD DUP2 JUMP JUMPDEST PUSH1 0x2 PUSH0 SLOAD LT PUSH2 0x2FC JUMPI PUSH1 0x40 MLOAD PUSH32 0x8C379A000000000000000000000000000000000000000000000000000000000 DUP2 MSTORE PUSH1 0x4 ADD PUSH2 0x2F3 SWAP1 PUSH2 0x146A JUMP JUMPDEST PUSH1 0x40 MLOAD DUP1 SWAP2 SUB SWAP1 REVERT JUMPDEST PUSH0 ISZERO ISZERO PUSH1 0x3 PUSH0 SWAP1 SLOAD SWAP1 PUSH2 0x100 EXP SWAP1 DIV PUSH1 0xFF AND ISZERO ISZERO EQ PUSH2 0x350 JUMPI PUSH1 0x40 MLOAD PUSH32 0x8C379A000000000000000000000000000000000000000000000000000000000 DUP2 MSTORE PUSH1 0x4 ADD PUSH2 0x347 SWAP1 PUSH2 0x14D2 JUMP JUMPDEST PUSH1 0x40 MLOAD DUP1 SWAP2 SUB SWAP1 REVERT JUMPDEST PUSH0 DUP1 SLOAD GT ISZERO PUSH2 0x403 JUMPI PUSH1 0x7 PUSH0 DUP2 SLOAD DUP2 LT PUSH2 0x36D JUMPI PUSH2 0x36C PUSH2 0x14F0 JUMP JUMPDEST JUMPDEST SWAP1 PUSH0 MSTORE PUSH1 0x20 PUSH0 KECCAK256 ADD PUSH0 SWAP1 SLOAD SWAP1 PUSH2 0x100 EXP SWAP1 DIV PUSH20 0xFFFFFFFFFFFFFFFFFFFFFFFFFFFFFFFFFFFFFFFF AND PUSH20 0xFFFFFFFFFFFFFFFFFFFFFFFFFFFFFFFFFFFFFFFF AND CALLER PUSH20 0xFFFFFFFFFFFFFFFFFFFFFFFFFFFFFFFFFFFFFFFF AND SUB PUSH2 0x402 JUMPI PUSH1 0x40 MLOAD PUSH32 0x8C379A000000000000000000000000000000000000000000000000000000000 DUP2 MSTORE PUSH1 0x4 ADD PUSH2 0x3F9 SWAP1 PUSH2 0x1567 JUMP JUMPDEST PUSH1 0x40 MLOAD DUP1 SWAP2 SUB SWAP1 REVERT JUMPDEST JUMPDEST PUSH8 0xDE0B6B3A7640000 CALLVALUE EQ PUSH2 0x44D JUMPI PUSH1 0x40 MLOAD PUSH32 0x8C379A000000000000000000000000000000000000000000000000000000000 DUP2 MSTORE PUSH1 0x4 ADD PUSH2 0x444 SWAP1 PUSH2 0x15CF JUMP JUMPDEST PUSH1 0x40 MLOAD DUP1 SWAP2 SUB SWAP1 REVERT JUMPDEST CALLVALUE PUSH1 0x1 PUSH0 DUP3 DUP3 SLOAD PUSH2 0x45E SWAP2 SWAP1 PUSH2 0x161A JUMP JUMPDEST SWAP3 POP POP DUP2 SWAP1 SSTORE POP PUSH1 0x7 CALLER SWAP1 DUP1 PUSH1 0x1 DUP2 SLOAD ADD DUP1 DUP3 SSTORE DUP1 SWAP2 POP POP PUSH1 0x1 SWAP1 SUB SWAP1 PUSH0 MSTORE PUSH1 0x20 PUSH0 KECCAK256 ADD PUSH0 SWAP1 SWAP2 SWAP1 SWAP2 SWAP1 SWAP2 PUSH2 0x100 EXP DUP2 SLOAD DUP2 PUSH20 0xFFFFFFFFFFFFFFFFFFFFFFFFFFFFFFFFFFFFFFFF MUL NOT AND SWAP1 DUP4 PUSH20 0xFFFFFFFFFFFFFFFFFFFFFFFFFFFFFFFFFFFFFFFF AND MUL OR SWAP1 SSTORE POP PUSH0 DUP1 DUP2 SLOAD DUP1 SWAP3 SWAP2 SWAP1 PUSH2 0x4D6 SWAP1 PUSH2 0x164D JUMP JUMPDEST SWAP2 SWAP1 POP SSTORE POP PUSH1 0x2 PUSH0 SLOAD SUB PUSH2 0x506 JUMPI PUSH1 0x1 PUSH1 0x3 PUSH0 PUSH2 0x100 EXP DUP2 SLOAD DUP2 PUSH1 0xFF MUL NOT AND SWAP1 DUP4 ISZERO ISZERO MUL OR SWAP1 SSTORE POP TIMESTAMP PUSH1 0x2 DUP2 SWAP1 SSTORE POP JUMPDEST JUMP JUMPDEST PUSH1 0x6 PUSH1 0x20 MSTORE DUP1 PUSH0 MSTORE PUSH1 0x40 PUSH0 KECCAK256 PUSH0 SWAP2 POP SLOAD SWAP1 PUSH2 0x100 EXP SWAP1 DIV PUSH1 0xFF AND DUP2 JUMP JUMPDEST PUSH1 0x1 ISZERO ISZERO PUSH1 0x3 PUSH0 SWAP1 SLOAD SWAP1 PUSH2 0x100 EXP SWAP1 DIV PUSH1 0xFF AND ISZERO ISZERO EQ PUSH2 0x57A JUMPI PUSH1 0x40 MLOAD PUSH32 0x8C379A000000000000000000000000000000000000000000000000000000000 DUP2 MSTORE PUSH1 0x4 ADD PUSH2 0x571 SWAP1 PUSH2 0x16DE JUMP JUMPDEST PUSH1 0x40 MLOAD DUP1 SWAP2 SUB SWAP1 REVERT JUMPDEST PUSH0 DUP1 SHL PUSH1 0x4 PUSH0 CALLER PUSH20 0xFFFFFFFFFFFFFFFFFFFFFFFFFFFFFFFFFFFFFFFF AND PUSH20 0xFFFFFFFFFFFFFFFFFFFFFFFFFFFFFFFFFFFFFFFF AND DUP2 MSTORE PUSH1 0x20 ADD SWAP1 DUP2 MSTORE PUSH1 0x20 ADD PUSH0 KECCAK256 SLOAD SUB PUSH2 0x5FB JUMPI PUSH1 0x40 MLOAD PUSH32 0x8C379A000000000000000000000000000000000000000000000000000000000 DUP2 MSTORE PUSH1 0x4 ADD PUSH2 0x5F2 SWAP1 PUSH2 0x1746 JUMP JUMPDEST PUSH1 0x40 MLOAD DUP1 SWAP2 SUB SWAP1 REVERT JUMPDEST PUSH0 ISZERO ISZERO PUSH1 0x6 PUSH0 CALLER PUSH20 0xFFFFFFFFFFFFFFFFFFFFFFFFFFFFFFFFFFFFFFFF AND PUSH20 0xFFFFFFFFFFFFFFFFFFFFFFFFFFFFFFFFFFFFFFFF AND DUP2 MSTORE PUSH1 0x20 ADD SWAP1 DUP2 MSTORE PUSH1 0x20 ADD PUSH0 KECCAK256 PUSH0 SWAP1 SLOAD SWAP1 PUSH2 0x100 EXP SWAP1 DIV PUSH1 0xFF AND ISZERO ISZERO EQ PUSH2 0x68A JUMPI PUSH1 0x40 MLOAD PUSH32 0x8C379A000000000000000000000000000000000000000000000000000000000 DUP2 MSTORE PUSH1 0x4 ADD PUSH2 0x681 SWAP1 PUSH2 0x17AE JUMP JUMPDEST PUSH1 0x40 MLOAD DUP1 SWAP2 SUB SWAP1 REVERT JUMPDEST PUSH0 DUP3 LT ISZERO DUP1 ISZERO PUSH2 0x69B JUMPI POP PUSH1 0x4 DUP3 GT ISZERO JUMPDEST PUSH2 0x6DA JUMPI PUSH1 0x40 MLOAD PUSH32 0x8C379A000000000000000000000000000000000000000000000000000000000 DUP2 MSTORE PUSH1 0x4 ADD PUSH2 0x6D1 SWAP1 PUSH2 0x1816 JUMP JUMPDEST PUSH1 0x40 MLOAD DUP1 SWAP2 SUB SWAP1 REVERT JUMPDEST PUSH0 DUP3 DUP3 PUSH1 0x40 MLOAD PUSH1 0x20 ADD PUSH2 0x6EE SWAP3 SWAP2 SWAP1 PUSH2 0x18A6 JUMP JUMPDEST PUSH1 0x40 MLOAD PUSH1 0x20 DUP2 DUP4 SUB SUB DUP2 MSTORE SWAP1 PUSH1 0x40 MSTORE DUP1 MLOAD SWAP1 PUSH1 0x20 ADD KECCAK256 SWAP1 POP PUSH1 0x4 PUSH0 CALLER PUSH20 0xFFFFFFFFFFFFFFFFFFFFFFFFFFFFFFFFFFFFFFFF AND PUSH20 0xFFFFFFFFFFFFFFFFFFFFFFFFFFFFFFFFFFFFFFFF AND DUP2 MSTORE PUSH1 0x20 ADD SWAP1 DUP2 MSTORE PUSH1 0x20 ADD PUSH0 KECCAK256 SLOAD DUP2 EQ PUSH2 0x785 JUMPI PUSH1 0x40 MLOAD PUSH32 0x8C379A000000000000000000000000000000000000000000000000000000000 DUP2 MSTORE PUSH1 0x4 ADD PUSH2 0x77C SWAP1 PUSH2 0x1917 JUMP JUMPDEST PUSH1 0x40 MLOAD DUP1 SWAP2 SUB SWAP1 REVERT JUMPDEST DUP3 PUSH1 0x5 PUSH0 CALLER PUSH20 0xFFFFFFFFFFFFFFFFFFFFFFFFFFFFFFFFFFFFFFFF AND PUSH20 0xFFFFFFFFFFFFFFFFFFFFFFFFFFFFFFFFFFFFFFFF AND DUP2 MSTORE PUSH1 0x20 ADD SWAP1 DUP2 MSTORE PUSH1 0x20 ADD PUSH0 KECCAK256 DUP2 SWAP1 SSTORE POP PUSH1 0x1 PUSH1 0x6 PUSH0 CALLER PUSH20 0xFFFFFFFFFFFFFFFFFFFFFFFFFFFFFFFFFFFFFFFF AND PUSH20 0xFFFFFFFFFFFFFFFFFFFFFFFFFFFFFFFFFFFFFFFF AND DUP2 MSTORE PUSH1 0x20 ADD SWAP1 DUP2 MSTORE PUSH1 0x20 ADD PUSH0 KECCAK256 PUSH0 PUSH2 0x100 EXP DUP2 SLOAD DUP2 PUSH1 0xFF MUL NOT AND SWAP1 DUP4 ISZERO ISZERO MUL OR SWAP1 SSTORE POP PUSH1 0x6 PUSH0 PUSH1 0x7 PUSH0 DUP2 SLOAD DUP2 LT PUSH2 0x833 JUMPI PUSH2 0x832 PUSH2 0x14F0 JUMP JUMPDEST JUMPDEST SWAP1 PUSH0 MSTORE PUSH1 0x20 PUSH0 KECCAK256 ADD PUSH0 SWAP1 SLOAD SWAP1 PUSH2 0x100 EXP SWAP1 DIV PUSH20 0xFFFFFFFFFFFFFFFFFFFFFFFFFFFFFFFFFFFFFFFF AND PUSH20 0xFFFFFFFFFFFFFFFFFFFFFFFFFFFFFFFFFFFFFFFF AND PUSH20 0xFFFFFFFFFFFFFFFFFFFFFFFFFFFFFFFFFFFFFFFF AND DUP2 MSTORE PUSH1 0x20 ADD SWAP1 DUP2 MSTORE PUSH1 0x20 ADD PUSH0 KECCAK256 PUSH0 SWAP1 SLOAD SWAP1 PUSH2 0x100 EXP SWAP1 DIV PUSH1 0xFF AND DUP1 ISZERO PUSH2 0x92F JUMPI POP PUSH1 0x6 PUSH0 PUSH1 0x7 PUSH1 0x1 DUP2 SLOAD DUP2 LT PUSH2 0x8C0 JUMPI PUSH2 0x8BF PUSH2 0x14F0 JUMP JUMPDEST JUMPDEST SWAP1 PUSH0 MSTORE PUSH1 0x20 PUSH0 KECCAK256 ADD PUSH0 SWAP1 SLOAD SWAP1 PUSH2 0x100 EXP SWAP1 DIV PUSH20 0xFFFFFFFFFFFFFFFFFFFFFFFFFFFFFFFFFFFFFFFF AND PUSH20 0xFFFFFFFFFFFFFFFFFFFFFFFFFFFFFFFFFFFFFFFF AND PUSH20 0xFFFFFFFFFFFFFFFFFFFFFFFFFFFFFFFFFFFFFFFF AND DUP2 MSTORE PUSH1 0x20 ADD SWAP1 DUP2 MSTORE PUSH1 0x20 ADD PUSH0 KECCAK256 PUSH0 SWAP1 SLOAD SWAP1 PUSH2 0x100 EXP SWAP1 DIV PUSH1 0xFF AND JUMPDEST ISZERO PUSH2 0x93D JUMPI PUSH2 0x93C PUSH2 0xCC9 JUMP JUMPDEST JUMPDEST POP POP POP JUMP JUMPDEST PUSH1 0x2 SLOAD DUP2 JUMP JUMPDEST PUSH1 0x4 PUSH1 0x20 MSTORE DUP1 PUSH0 MSTORE PUSH1 0x40 PUSH0 KECCAK256 PUSH0 SWAP2 POP SWAP1 POP SLOAD DUP2 JUMP JUMPDEST PUSH0 SLOAD DUP2 JUMP JUMPDEST PUSH1 0x1 ISZERO ISZERO PUSH1 0x3 PUSH0 SWAP1 SLOAD SWAP1 PUSH2 0x100 EXP SWAP1 DIV PUSH1 0xFF AND ISZERO ISZERO EQ PUSH2 0x9B7 JUMPI PUSH1 0x40 MLOAD PUSH32 0x8C379A000000000000000000000000000000000000000000000000000000000 DUP2 MSTORE PUSH1 0x4 ADD PUSH2 0x9AE SWAP1 PUSH2 0x16DE JUMP JUMPDEST PUSH1 0x40 MLOAD DUP1 SWAP2 SUB SWAP1 REVERT JUMPDEST PUSH1 0x2 PUSH0 SLOAD EQ PUSH2 0x9FB JUMPI PUSH1 0x40 MLOAD PUSH32 0x8C379A000000000000000000000000000000000000000000000000000000000 DUP2 MSTORE PUSH1 0x4 ADD PUSH2 0x9F2 SWAP1 PUSH2 0x197F JUMP JUMPDEST PUSH1 0x40 MLOAD DUP1 SWAP2 SUB SWAP1 REVERT JUMPDEST PUSH0 DUP1 SHL PUSH1 0x4 PUSH0 CALLER PUSH20 0xFFFFFFFFFFFFFFFFFFFFFFFFFFFFFFFFFFFFFFFF AND PUSH20 0xFFFFFFFFFFFFFFFFFFFFFFFFFFFFFFFFFFFFFFFF AND DUP2 MSTORE PUSH1 0x20 ADD SWAP1 DUP2 MSTORE PUSH1 0x20 ADD PUSH0 KECCAK256 SLOAD EQ PUSH2 0xA7C JUMPI PUSH1 0x40 MLOAD PUSH32 0x8C379A000000000000000000000000000000000000000000000000000000000 DUP2 MSTORE PUSH1 0x4 ADD PUSH2 0xA73 SWAP1 PUSH2 0x19E7 JUMP JUMPDEST PUSH1 0x40 MLOAD DUP1 SWAP2 SUB SWAP1 REVERT JUMPDEST DUP1 PUSH1 0x4 PUSH0 CALLER PUSH20 0xFFFFFFFFFFFFFFFFFFFFFFFFFFFFFFFFFFFFFFFF AND PUSH20 0xFFFFFFFFFFFFFFFFFFFFFFFFFFFFFFFFFFFFFFFF AND DUP2 MSTORE PUSH1 0x20 ADD SWAP1 DUP2 MSTORE PUSH1 0x20 ADD PUSH0 KECCAK256 DUP2 SWAP1 SSTORE POP POP JUMP JUMPDEST PUSH1 0x1 ISZERO ISZERO PUSH1 0x3 PUSH0 SWAP1 SLOAD SWAP1 PUSH2 0x100 EXP SWAP1 DIV PUSH1 0xFF AND ISZERO ISZERO EQ PUSH2 0xB16 JUMPI PUSH1 0x40 MLOAD PUSH32 0x8C379A000000000000000000000000000000000000000000000000000000000 DUP2 MSTORE PUSH1 0x4 ADD PUSH2 0xB0D SWAP1 PUSH2 0x1A4F JUMP JUMPDEST PUSH1 0x40 MLOAD DUP1 SWAP2 SUB SWAP1 REVERT JUMPDEST PUSH2 0x12C PUSH1 0x2 SLOAD PUSH2 0xB26 SWAP2 SWAP1 PUSH2 0x161A JUMP JUMPDEST TIMESTAMP GT PUSH2 0xB67 JUMPI PUSH1 0x40 MLOAD PUSH32 0x8C379A000000000000000000000000000000000000000000000000000000000 DUP2 MSTORE PUSH1 0x4 ADD PUSH2 0xB5E SWAP1 PUSH2 0x1B03 JUMP JUMPDEST PUSH1 0x40 MLOAD DUP1 SWAP2 SUB SWAP1 REVERT JUMPDEST PUSH0 JUMPDEST PUSH1 0x7 DUP1 SLOAD SWAP1 POP DUP2 LT ISZERO PUSH2 0xC64 JUMPI PUSH0 PUSH1 0x7 DUP3 DUP2 SLOAD DUP2 LT PUSH2 0xB8B JUMPI PUSH2 0xB8A PUSH2 0x14F0 JUMP JUMPDEST JUMPDEST SWAP1 PUSH0 MSTORE PUSH1 0x20 PUSH0 KECCAK256 ADD PUSH0 SWAP1 SLOAD SWAP1 PUSH2 0x100 EXP SWAP1 DIV PUSH20 0xFFFFFFFFFFFFFFFFFFFFFFFFFFFFFFFFFFFFFFFF AND SWAP1 POP PUSH0 ISZERO ISZERO PUSH1 0x6 PUSH0 DUP4 PUSH20 0xFFFFFFFFFFFFFFFFFFFFFFFFFFFFFFFFFFFFFFFF AND PUSH20 0xFFFFFFFFFFFFFFFFFFFFFFFFFFFFFFFFFFFFFFFF AND DUP2 MSTORE PUSH1 0x20 ADD SWAP1 DUP2 MSTORE PUSH1 0x20 ADD PUSH0 KECCAK256 PUSH0 SWAP1 SLOAD SWAP1 PUSH2 0x100 EXP SWAP1 DIV PUSH1 0xFF AND ISZERO ISZERO SUB PUSH2 0xC56 JUMPI DUP1 PUSH20 0xFFFFFFFFFFFFFFFFFFFFFFFFFFFFFFFFFFFFFFFF AND PUSH2 0x8FC PUSH8 0xDE0B6B3A7640000 SWAP1 DUP2 ISZERO MUL SWAP1 PUSH1 0x40 MLOAD PUSH0 PUSH1 0x40 MLOAD DUP1 DUP4 SUB DUP2 DUP6 DUP9 DUP9 CALL SWAP4 POP POP POP POP ISZERO DUP1 ISZERO PUSH2 0xC54 JUMPI RETURNDATASIZE PUSH0 DUP1 RETURNDATACOPY RETURNDATASIZE PUSH0 REVERT JUMPDEST POP JUMPDEST POP DUP1 DUP1 PUSH1 0x1 ADD SWAP2 POP POP PUSH2 0xB69 JUMP JUMPDEST POP JUMP JUMPDEST PUSH1 0x5 PUSH1 0x20 MSTORE DUP1 PUSH0 MSTORE PUSH1 0x40 PUSH0 KECCAK256 PUSH0 SWAP2 POP SWAP1 POP SLOAD DUP2 JUMP JUMPDEST PUSH1 0x3 PUSH0 SWAP1 SLOAD SWAP1 PUSH2 0x100 EXP SWAP1 DIV PUSH1 0xFF AND DUP2 JUMP JUMPDEST PUSH1 0x7 DUP2 DUP2 SLOAD DUP2 LT PUSH2 0xC9D JUMPI PUSH0 DUP1 REVERT JUMPDEST SWAP1 PUSH0 MSTORE PUSH1 0x20 PUSH0 KECCAK256 ADD PUSH0 SWAP2 POP SLOAD SWAP1 PUSH2 0x100 EXP SWAP1 DIV PUSH20 0xFFFFFFFFFFFFFFFFFFFFFFFFFFFFFFFFFFFFFFFF AND DUP2 JUMP JUMPDEST PUSH0 PUSH1 0x5 PUSH0 PUSH1 0x7 PUSH0 DUP2 SLOAD DUP2 LT PUSH2 0xCE1 JUMPI PUSH2 0xCE0 PUSH2 0x14F0 JUMP JUMPDEST JUMPDEST SWAP1 PUSH0 MSTORE PUSH1 0x20 PUSH0 KECCAK256 ADD PUSH0 SWAP1 SLOAD SWAP1 PUSH2 0x100 EXP SWAP1 DIV PUSH20 0xFFFFFFFFFFFFFFFFFFFFFFFFFFFFFFFFFFFFFFFF AND PUSH20 0xFFFFFFFFFFFFFFFFFFFFFFFFFFFFFFFFFFFFFFFF AND PUSH20 0xFFFFFFFFFFFFFFFFFFFFFFFFFFFFFFFFFFFFFFFF AND DUP2 MSTORE PUSH1 0x20 ADD SWAP1 DUP2 MSTORE PUSH1 0x20 ADD PUSH0 KECCAK256 SLOAD SWAP1 POP PUSH0 PUSH1 0x5 PUSH0 PUSH1 0x7 PUSH1 0x1 DUP2 SLOAD DUP2 LT PUSH2 0xD5E JUMPI PUSH2 0xD5D PUSH2 0x14F0 JUMP JUMPDEST JUMPDEST SWAP1 PUSH0 MSTORE PUSH1 0x20 PUSH0 KECCAK256 ADD PUSH0 SWAP1 SLOAD SWAP1 PUSH2 0x100 EXP SWAP1 DIV PUSH20 0xFFFFFFFFFFFFFFFFFFFFFFFFFFFFFFFFFFFFFFFF AND PUSH20 0xFFFFFFFFFFFFFFFFFFFFFFFFFFFFFFFFFFFFFFFF AND PUSH20 0xFFFFFFFFFFFFFFFFFFFFFFFFFFFFFFFFFFFFFFFF AND DUP2 MSTORE PUSH1 0x20 ADD SWAP1 DUP2 MSTORE PUSH1 0x20 ADD PUSH0 KECCAK256 SLOAD SWAP1 POP PUSH0 PUSH1 0x7 PUSH0 DUP2 SLOAD DUP2 LT PUSH2 0xDD7 JUMPI PUSH2 0xDD6 PUSH2 0x14F0 JUMP JUMPDEST JUMPDEST SWAP1 PUSH0 MSTORE PUSH1 0x20 PUSH0 KECCAK256 ADD PUSH0 SWAP1 SLOAD SWAP1 PUSH2 0x100 EXP SWAP1 DIV PUSH20 0xFFFFFFFFFFFFFFFFFFFFFFFFFFFFFFFFFFFFFFFF AND SWAP1 POP PUSH0 PUSH1 0x7 PUSH1 0x1 DUP2 SLOAD DUP2 LT PUSH2 0xE17 JUMPI PUSH2 0xE16 PUSH2 0x14F0 JUMP JUMPDEST JUMPDEST SWAP1 PUSH0 MSTORE PUSH1 0x20 PUSH0 KECCAK256 ADD PUSH0 SWAP1 SLOAD SWAP1 PUSH2 0x100 EXP SWAP1 DIV PUSH20 0xFFFFFFFFFFFFFFFFFFFFFFFFFFFFFFFFFFFFFFFF AND SWAP1 POP DUP3 PUSH1 0x5 PUSH1 0x1 DUP7 PUSH2 0xE51 SWAP2 SWAP1 PUSH2 0x161A JUMP JUMPDEST PUSH2 0xE5B SWAP2 SWAP1 PUSH2 0x1B4E JUMP JUMPDEST EQ DUP1 PUSH2 0xE7E JUMPI POP DUP3 PUSH1 0x5 PUSH1 0x3 DUP7 PUSH2 0xE72 SWAP2 SWAP1 PUSH2 0x161A JUMP JUMPDEST PUSH2 0xE7C SWAP2 SWAP1 PUSH2 0x1B4E JUMP JUMPDEST EQ JUMPDEST ISZERO PUSH2 0xECE JUMPI DUP1 PUSH20 0xFFFFFFFFFFFFFFFFFFFFFFFFFFFFFFFFFFFFFFFF AND PUSH2 0x8FC PUSH1 0x1 SLOAD SWAP1 DUP2 ISZERO MUL SWAP1 PUSH1 0x40 MLOAD PUSH0 PUSH1 0x40 MLOAD DUP1 DUP4 SUB DUP2 DUP6 DUP9 DUP9 CALL SWAP4 POP POP POP POP ISZERO DUP1 ISZERO PUSH2 0xEC8 JUMPI RETURNDATASIZE PUSH0 DUP1 RETURNDATACOPY RETURNDATASIZE PUSH0 REVERT JUMPDEST POP PUSH2 0x1001 JUMP JUMPDEST DUP4 PUSH1 0x5 PUSH1 0x1 DUP6 PUSH2 0xEDE SWAP2 SWAP1 PUSH2 0x161A JUMP JUMPDEST PUSH2 0xEE8 SWAP2 SWAP1 PUSH2 0x1B4E JUMP JUMPDEST EQ DUP1 PUSH2 0xF0B JUMPI POP DUP4 PUSH1 0x5 PUSH1 0x3 DUP6 PUSH2 0xEFF SWAP2 SWAP1 PUSH2 0x161A JUMP JUMPDEST PUSH2 0xF09 SWAP2 SWAP1 PUSH2 0x1B4E JUMP JUMPDEST EQ JUMPDEST ISZERO PUSH2 0xF5B JUMPI DUP2 PUSH20 0xFFFFFFFFFFFFFFFFFFFFFFFFFFFFFFFFFFFFFFFF AND PUSH2 0x8FC PUSH1 0x1 SLOAD SWAP1 DUP2 ISZERO MUL SWAP1 PUSH1 0x40 MLOAD PUSH0 PUSH1 0x40 MLOAD DUP1 DUP4 SUB DUP2 DUP6 DUP9 DUP9 CALL SWAP4 POP POP POP POP ISZERO DUP1 ISZERO PUSH2 0xF55 JUMPI RETURNDATASIZE PUSH0 DUP1 RETURNDATACOPY RETURNDATASIZE PUSH0 REVERT JUMPDEST POP PUSH2 0x1000 JUMP JUMPDEST DUP2 PUSH20 0xFFFFFFFFFFFFFFFFFFFFFFFFFFFFFFFFFFFFFFFF AND PUSH2 0x8FC PUSH1 0x2 PUSH1 0x1 SLOAD PUSH2 0xF84 SWAP2 SWAP1 PUSH2 0x1B7E JUMP JUMPDEST SWAP1 DUP2 ISZERO MUL SWAP1 PUSH1 0x40 MLOAD PUSH0 PUSH1 0x40 MLOAD DUP1 DUP4 SUB DUP2 DUP6 DUP9 DUP9 CALL SWAP4 POP POP POP POP ISZERO DUP1 ISZERO PUSH2 0xFAC JUMPI RETURNDATASIZE PUSH0 DUP1 RETURNDATACOPY RETURNDATASIZE PUSH0 REVERT JUMPDEST POP DUP1 PUSH20 0xFFFFFFFFFFFFFFFFFFFFFFFFFFFFFFFFFFFFFFFF AND PUSH2 0x8FC PUSH1 0x2 PUSH1 0x1 SLOAD PUSH2 0xFD6 SWAP2 SWAP1 PUSH2 0x1B7E JUMP JUMPDEST SWAP1 DUP2 ISZERO MUL SWAP1 PUSH1 0x40 MLOAD PUSH0 PUSH1 0x40 MLOAD DUP1 DUP4 SUB DUP2 DUP6 DUP9 DUP9 CALL SWAP4 POP POP POP POP ISZERO DUP1 ISZERO PUSH2 0xFFE JUMPI RETURNDATASIZE PUSH0 DUP1 RETURNDATACOPY RETURNDATASIZE PUSH0 REVERT JUMPDEST POP JUMPDEST JUMPDEST PUSH2 0x1009 PUSH2 0x100F JUMP JUMPDEST POP POP POP POP JUMP JUMPDEST PUSH0 DUP1 DUP2 SWAP1 SSTORE POP PUSH0 PUSH1 0x1 DUP2 SWAP1 SSTORE POP PUSH1 0x7 PUSH0 PUSH2 0x1029 SWAP2 SWAP1 PUSH2 0x1044 JUMP JUMPDEST PUSH0 PUSH1 0x3 PUSH0 PUSH2 0x100 EXP DUP2 SLOAD DUP2 PUSH1 0xFF MUL NOT AND SWAP1 DUP4 ISZERO ISZERO MUL OR SWAP1 SSTORE POP JUMP JUMPDEST POP DUP1 SLOAD PUSH0 DUP3 SSTORE SWAP1 PUSH0 MSTORE PUSH1 0x20 PUSH0 KECCAK256 SWAP1 DUP2 ADD SWAP1 PUSH2 0x105F SWAP2 SWAP1 PUSH2 0x1062 JUMP JUMPDEST POP JUMP JUMPDEST JUMPDEST DUP1 DUP3 GT ISZERO PUSH2 0x1079 JUMPI PUSH0 DUP2 PUSH0 SWAP1 SSTORE POP PUSH1 0x1 ADD PUSH2 0x1063 JUMP JUMPDEST POP SWAP1 JUMP JUMPDEST PUSH0 DUP2 SWAP1 POP SWAP2 SWAP1 POP JUMP JUMPDEST PUSH2 0x108F DUP2 PUSH2 0x107D JUMP JUMPDEST DUP3 MSTORE POP POP JUMP JUMPDEST PUSH0 PUSH1 0x20 DUP3 ADD SWAP1 POP PUSH2 0x10A8 PUSH0 DUP4 ADD DUP5 PUSH2 0x1086 JUMP JUMPDEST SWAP3 SWAP2 POP POP JUMP JUMPDEST PUSH0 PUSH1 0x40 MLOAD SWAP1 POP SWAP1 JUMP JUMPDEST PUSH0 DUP1 REVERT JUMPDEST PUSH0 DUP1 REVERT JUMPDEST PUSH0 PUSH20 0xFFFFFFFFFFFFFFFFFFFFFFFFFFFFFFFFFFFFFFFF DUP3 AND SWAP1 POP SWAP2 SWAP1 POP JUMP JUMPDEST PUSH0 PUSH2 0x10E8 DUP3 PUSH2 0x10BF JUMP JUMPDEST SWAP1 POP SWAP2 SWAP1 POP JUMP JUMPDEST PUSH2 0x10F8 DUP2 PUSH2 0x10DE JUMP JUMPDEST DUP2 EQ PUSH2 0x1102 JUMPI PUSH0 DUP1 REVERT JUMPDEST POP JUMP JUMPDEST PUSH0 DUP2 CALLDATALOAD SWAP1 POP PUSH2 0x1113 DUP2 PUSH2 0x10EF JUMP JUMPDEST SWAP3 SWAP2 POP POP JUMP JUMPDEST PUSH0 PUSH1 0x20 DUP3 DUP5 SUB SLT ISZERO PUSH2 0x112E JUMPI PUSH2 0x112D PUSH2 0x10B7 JUMP JUMPDEST JUMPDEST PUSH0 PUSH2 0x113B DUP5 DUP3 DUP6 ADD PUSH2 0x1105 JUMP JUMPDEST SWAP2 POP POP SWAP3 SWAP2 POP POP JUMP JUMPDEST PUSH0 DUP2 ISZERO ISZERO SWAP1 POP SWAP2 SWAP1 POP JUMP JUMPDEST PUSH2 0x1158 DUP2 PUSH2 0x1144 JUMP JUMPDEST DUP3 MSTORE POP POP JUMP JUMPDEST PUSH0 PUSH1 0x20 DUP3 ADD SWAP1 POP PUSH2 0x1171 PUSH0 DUP4 ADD DUP5 PUSH2 0x114F JUMP JUMPDEST SWAP3 SWAP2 POP POP JUMP JUMPDEST PUSH2 0x1180 DUP2 PUSH2 0x107D JUMP JUMPDEST DUP2 EQ PUSH2 0x118A JUMPI PUSH0 DUP1 REVERT JUMPDEST POP JUMP JUMPDEST PUSH0 DUP2 CALLDATALOAD SWAP1 POP PUSH2 0x119B DUP2 PUSH2 0x1177 JUMP JUMPDEST SWAP3 SWAP2 POP POP JUMP JUMPDEST PUSH0 DUP1 REVERT JUMPDEST PUSH0 DUP1 REVERT JUMPDEST PUSH0 PUSH1 0x1F NOT PUSH1 0x1F DUP4 ADD AND SWAP1 POP SWAP2 SWAP1 POP JUMP JUMPDEST PUSH32 0x4E487B7100000000000000000000000000000000000000000000000000000000 PUSH0 MSTORE PUSH1 0x41 PUSH1 0x4 MSTORE PUSH1 0x24 PUSH0 REVERT JUMPDEST PUSH2 0x11EF DUP3 PUSH2 0x11A9 JUMP JUMPDEST DUP2 ADD DUP2 DUP2 LT PUSH8 0xFFFFFFFFFFFFFFFF DUP3 GT OR ISZERO PUSH2 0x120E JUMPI PUSH2 0x120D PUSH2 0x11B9 JUMP JUMPDEST JUMPDEST DUP1 PUSH1 0x40 MSTORE POP POP POP JUMP JUMPDEST PUSH0 PUSH2 0x1220 PUSH2 0x10AE JUMP JUMPDEST SWAP1 POP PUSH2 0x122C DUP3 DUP3 PUSH2 0x11E6 JUMP JUMPDEST SWAP2 SWAP1 POP JUMP JUMPDEST PUSH0 PUSH8 0xFFFFFFFFFFFFFFFF DUP3 GT ISZERO PUSH2 0x124B JUMPI PUSH2 0x124A PUSH2 0x11B9 JUMP JUMPDEST JUMPDEST PUSH2 0x1254 DUP3 PUSH2 0x11A9 JUMP JUMPDEST SWAP1 POP PUSH1 0x20 DUP2 ADD SWAP1 POP SWAP2 SWAP1 POP JUMP JUMPDEST DUP3 DUP2 DUP4 CALLDATACOPY PUSH0 DUP4 DUP4 ADD MSTORE POP POP POP JUMP JUMPDEST PUSH0 PUSH2 0x1281 PUSH2 0x127C DUP5 PUSH2 0x1231 JUMP JUMPDEST PUSH2 0x1217 JUMP JUMPDEST SWAP1 POP DUP3 DUP2 MSTORE PUSH1 0x20 DUP2 ADD DUP5 DUP5 DUP5 ADD GT ISZERO PUSH2 0x129D JUMPI PUSH2 0x129C PUSH2 0x11A5 JUMP JUMPDEST JUMPDEST PUSH2 0x12A8 DUP5 DUP3 DUP6 PUSH2 0x1261 JUMP JUMPDEST POP SWAP4 SWAP3 POP POP POP JUMP JUMPDEST PUSH0 DUP3 PUSH1 0x1F DUP4 ADD SLT PUSH2 0x12C4 JUMPI PUSH2 0x12C3 PUSH2 0x11A1 JUMP JUMPDEST JUMPDEST DUP2 CALLDATALOAD PUSH2 0x12D4 DUP5 DUP3 PUSH1 0x20 DUP7 ADD PUSH2 0x126F JUMP JUMPDEST SWAP2 POP POP SWAP3 SWAP2 POP POP JUMP JUMPDEST PUSH0 DUP1 PUSH1 0x40 DUP4 DUP6 SUB SLT ISZERO PUSH2 0x12F3 JUMPI PUSH2 0x12F2 PUSH2 0x10B7 JUMP JUMPDEST JUMPDEST PUSH0 PUSH2 0x1300 DUP6 DUP3 DUP7 ADD PUSH2 0x118D JUMP JUMPDEST SWAP3 POP POP PUSH1 0x20 DUP4 ADD CALLDATALOAD PUSH8 0xFFFFFFFFFFFFFFFF DUP2 GT ISZERO PUSH2 0x1321 JUMPI PUSH2 0x1320 PUSH2 0x10BB JUMP JUMPDEST JUMPDEST PUSH2 0x132D DUP6 DUP3 DUP7 ADD PUSH2 0x12B0 JUMP JUMPDEST SWAP2 POP POP SWAP3 POP SWAP3 SWAP1 POP JUMP JUMPDEST PUSH0 DUP2 SWAP1 POP SWAP2 SWAP1 POP JUMP JUMPDEST PUSH2 0x1349 DUP2 PUSH2 0x1337 JUMP JUMPDEST DUP3 MSTORE POP POP JUMP JUMPDEST PUSH0 PUSH1 0x20 DUP3 ADD SWAP1 POP PUSH2 0x1362 PUSH0 DUP4 ADD DUP5 PUSH2 0x1340 JUMP JUMPDEST SWAP3 SWAP2 POP POP JUMP JUMPDEST PUSH2 0x1371 DUP2 PUSH2 0x1337 JUMP JUMPDEST DUP2 EQ PUSH2 0x137B JUMPI PUSH0 DUP1 REVERT JUMPDEST POP JUMP JUMPDEST PUSH0 DUP2 CALLDATALOAD SWAP1 POP PUSH2 0x138C DUP2 PUSH2 0x1368 JUMP JUMPDEST SWAP3 SWAP2 POP POP JUMP JUMPDEST PUSH0 PUSH1 0x20 DUP3 DUP5 SUB SLT ISZERO PUSH2 0x13A7 JUMPI PUSH2 0x13A6 PUSH2 0x10B7 JUMP JUMPDEST JUMPDEST PUSH0 PUSH2 0x13B4 DUP5 DUP3 DUP6 ADD PUSH2 0x137E JUMP JUMPDEST SWAP2 POP POP SWAP3 SWAP2 POP POP JUMP JUMPDEST PUSH0 PUSH1 0x20 DUP3 DUP5 SUB SLT ISZERO PUSH2 0x13D2 JUMPI PUSH2 0x13D1 PUSH2 0x10B7 JUMP JUMPDEST JUMPDEST PUSH0 PUSH2 0x13DF DUP5 DUP3 DUP6 ADD PUSH2 0x118D JUMP JUMPDEST SWAP2 POP POP SWAP3 SWAP2 POP POP JUMP JUMPDEST PUSH2 0x13F1 DUP2 PUSH2 0x10DE JUMP JUMPDEST DUP3 MSTORE POP POP JUMP JUMPDEST PUSH0 PUSH1 0x20 DUP3 ADD SWAP1 POP PUSH2 0x140A PUSH0 DUP4 ADD DUP5 PUSH2 0x13E8 JUMP JUMPDEST SWAP3 SWAP2 POP POP JUMP JUMPDEST PUSH0 DUP3 DUP3 MSTORE PUSH1 0x20 DUP3 ADD SWAP1 POP SWAP3 SWAP2 POP POP JUMP JUMPDEST PUSH32 0x4D6178696D756D20506C61796572732052656163686564000000000000000000 PUSH0 DUP3 ADD MSTORE POP JUMP JUMPDEST PUSH0 PUSH2 0x1454 PUSH1 0x17 DUP4 PUSH2 0x1410 JUMP JUMPDEST SWAP2 POP PUSH2 0x145F DUP3 PUSH2 0x1420 JUMP JUMPDEST PUSH1 0x20 DUP3 ADD SWAP1 POP SWAP2 SWAP1 POP JUMP JUMPDEST PUSH0 PUSH1 0x20 DUP3 ADD SWAP1 POP DUP2 DUP2 SUB PUSH0 DUP4 ADD MSTORE PUSH2 0x1481 DUP2 PUSH2 0x1448 JUMP JUMPDEST SWAP1 POP SWAP2 SWAP1 POP JUMP JUMPDEST PUSH32 0x47616D6520616C726561647920696E2070726F67726573730000000000000000 PUSH0 DUP3 ADD MSTORE POP JUMP JUMPDEST PUSH0 PUSH2 0x14BC PUSH1 0x18 DUP4 PUSH2 0x1410 JUMP JUMPDEST SWAP2 POP PUSH2 0x14C7 DUP3 PUSH2 0x1488 JUMP JUMPDEST PUSH1 0x20 DUP3 ADD SWAP1 POP SWAP2 SWAP1 POP JUMP JUMPDEST PUSH0 PUSH1 0x20 DUP3 ADD SWAP1 POP DUP2 DUP2 SUB PUSH0 DUP4 ADD MSTORE PUSH2 0x14E9 DUP2 PUSH2 0x14B0 JUMP JUMPDEST SWAP1 POP SWAP2 SWAP1 POP JUMP JUMPDEST PUSH32 0x4E487B7100000000000000000000000000000000000000000000000000000000 PUSH0 MSTORE PUSH1 0x32 PUSH1 0x4 MSTORE PUSH1 0x24 PUSH0 REVERT JUMPDEST PUSH32 0x596F752061726520616C726561647920696E207468652067616D650000000000 PUSH0 DUP3 ADD MSTORE POP JUMP JUMPDEST PUSH0 PUSH2 0x1551 PUSH1 0x1B DUP4 PUSH2 0x1410 JUMP JUMPDEST SWAP2 POP PUSH2 0x155C DUP3 PUSH2 0x151D JUMP JUMPDEST PUSH1 0x20 DUP3 ADD SWAP1 POP SWAP2 SWAP1 POP JUMP JUMPDEST PUSH0 PUSH1 0x20 DUP3 ADD SWAP1 POP DUP2 DUP2 SUB PUSH0 DUP4 ADD MSTORE PUSH2 0x157E DUP2 PUSH2 0x1545 JUMP JUMPDEST SWAP1 POP SWAP2 SWAP1 POP JUMP JUMPDEST PUSH32 0x456E747279206665652069732031206574686572000000000000000000000000 PUSH0 DUP3 ADD MSTORE POP JUMP JUMPDEST PUSH0 PUSH2 0x15B9 PUSH1 0x14 DUP4 PUSH2 0x1410 JUMP JUMPDEST SWAP2 POP PUSH2 0x15C4 DUP3 PUSH2 0x1585 JUMP JUMPDEST PUSH1 0x20 DUP3 ADD SWAP1 POP SWAP2 SWAP1 POP JUMP JUMPDEST PUSH0 PUSH1 0x20 DUP3 ADD SWAP1 POP DUP2 DUP2 SUB PUSH0 DUP4 ADD MSTORE PUSH2 0x15E6 DUP2 PUSH2 0x15AD JUMP JUMPDEST SWAP1 POP SWAP2 SWAP1 POP JUMP JUMPDEST PUSH32 0x4E487B7100000000000000000000000000000000000000000000000000000000 PUSH0 MSTORE PUSH1 0x11 PUSH1 0x4 MSTORE PUSH1 0x24 PUSH0 REVERT JUMPDEST PUSH0 PUSH2 0x1624 DUP3 PUSH2 0x107D JUMP JUMPDEST SWAP2 POP PUSH2 0x162F DUP4 PUSH2 0x107D JUMP JUMPDEST SWAP3 POP DUP3 DUP3 ADD SWAP1 POP DUP1 DUP3 GT ISZERO PUSH2 0x1647 JUMPI PUSH2 0x1646 PUSH2 0x15ED JUMP JUMPDEST JUMPDEST SWAP3 SWAP2 POP POP JUMP JUMPDEST PUSH0 PUSH2 0x1657 DUP3 PUSH2 0x107D JUMP JUMPDEST SWAP2 POP PUSH32 0xFFFFFFFFFFFFFFFFFFFFFFFFFFFFFFFFFFFFFFFFFFFFFFFFFFFFFFFFFFFFFFFF DUP3 SUB PUSH2 0x1689 JUMPI PUSH2 0x1688 PUSH2 0x15ED JUMP JUMPDEST JUMPDEST PUSH1 0x1 DUP3 ADD SWAP1 POP SWAP2 SWAP1 POP JUMP JUMPDEST PUSH32 0x47616D65206973206E6F74206163746976650000000000000000000000000000 PUSH0 DUP3 ADD MSTORE POP JUMP JUMPDEST PUSH0 PUSH2 0x16C8 PUSH1 0x12 DUP4 PUSH2 0x1410 JUMP JUMPDEST SWAP2 POP PUSH2 0x16D3 DUP3 PUSH2 0x1694 JUMP JUMPDEST PUSH1 0x20 DUP3 ADD SWAP1 POP SWAP2 SWAP1 POP JUMP JUMPDEST PUSH0 PUSH1 0x20 DUP3 ADD SWAP1 POP DUP2 DUP2 SUB PUSH0 DUP4 ADD MSTORE PUSH2 0x16F5 DUP2 PUSH2 0x16BC JUMP JUMPDEST SWAP1 POP SWAP2 SWAP1 POP JUMP JUMPDEST PUSH32 0x4E6F20636F6D6D697420686173206265656E206D616465293B00000000000000 PUSH0 DUP3 ADD MSTORE POP JUMP JUMPDEST PUSH0 PUSH2 0x1730 PUSH1 0x19 DUP4 PUSH2 0x1410 JUMP JUMPDEST SWAP2 POP PUSH2 0x173B DUP3 PUSH2 0x16FC JUMP JUMPDEST PUSH1 0x20 DUP3 ADD SWAP1 POP SWAP2 SWAP1 POP JUMP JUMPDEST PUSH0 PUSH1 0x20 DUP3 ADD SWAP1 POP DUP2 DUP2 SUB PUSH0 DUP4 ADD MSTORE PUSH2 0x175D DUP2 PUSH2 0x1724 JUMP JUMPDEST SWAP1 POP SWAP2 SWAP1 POP JUMP JUMPDEST PUSH32 0x4D6F766520616C72656164792072657665616C65640000000000000000000000 PUSH0 DUP3 ADD MSTORE POP JUMP JUMPDEST PUSH0 PUSH2 0x1798 PUSH1 0x15 DUP4 PUSH2 0x1410 JUMP JUMPDEST SWAP2 POP PUSH2 0x17A3 DUP3 PUSH2 0x1764 JUMP JUMPDEST PUSH1 0x20 DUP3 ADD SWAP1 POP SWAP2 SWAP1 POP JUMP JUMPDEST PUSH0 PUSH1 0x20 DUP3 ADD SWAP1 POP DUP2 DUP2 SUB PUSH0 DUP4 ADD MSTORE PUSH2 0x17C5 DUP2 PUSH2 0x178C JUMP JUMPDEST SWAP1 POP SWAP2 SWAP1 POP JUMP JUMPDEST PUSH32 0x496E76616C696420496E70757400000000000000000000000000000000000000 PUSH0 DUP3 ADD MSTORE POP JUMP JUMPDEST PUSH0 PUSH2 0x1800 PUSH1 0xD DUP4 PUSH2 0x1410 JUMP JUMPDEST SWAP2 POP PUSH2 0x180B DUP3 PUSH2 0x17CC JUMP JUMPDEST PUSH1 0x20 DUP3 ADD SWAP1 POP SWAP2 SWAP1 POP JUMP JUMPDEST PUSH0 PUSH1 0x20 DUP3 ADD SWAP1 POP DUP2 DUP2 SUB PUSH0 DUP4 ADD MSTORE PUSH2 0x182D DUP2 PUSH2 0x17F4 JUMP JUMPDEST SWAP1 POP SWAP2 SWAP1 POP JUMP JUMPDEST PUSH0 DUP2 SWAP1 POP SWAP2 SWAP1 POP JUMP JUMPDEST PUSH2 0x184E PUSH2 0x1849 DUP3 PUSH2 0x107D JUMP JUMPDEST PUSH2 0x1834 JUMP JUMPDEST DUP3 MSTORE POP POP JUMP JUMPDEST PUSH0 DUP2 MLOAD SWAP1 POP SWAP2 SWAP1 POP JUMP JUMPDEST PUSH0 DUP2 SWAP1 POP SWAP3 SWAP2 POP POP JUMP JUMPDEST DUP3 DUP2 DUP4 MCOPY PUSH0 DUP4 DUP4 ADD MSTORE POP POP POP JUMP JUMPDEST PUSH0 PUSH2 0x1880 DUP3 PUSH2 0x1854 JUMP JUMPDEST PUSH2 0x188A DUP2 DUP6 PUSH2 0x185E JUMP JUMPDEST SWAP4 POP PUSH2 0x189A DUP2 DUP6 PUSH1 0x20 DUP7 ADD PUSH2 0x1868 JUMP JUMPDEST DUP1 DUP5 ADD SWAP2 POP POP SWAP3 SWAP2 POP POP JUMP JUMPDEST PUSH0 PUSH2 0x18B1 DUP3 DUP6 PUSH2 0x183D JUMP JUMPDEST PUSH1 0x20 DUP3 ADD SWAP2 POP PUSH2 0x18C1 DUP3 DUP5 PUSH2 0x1876 JUMP JUMPDEST SWAP2 POP DUP2 SWAP1 POP SWAP4 SWAP3 POP POP POP JUMP JUMPDEST PUSH32 0x496E76616C69642052657665616C000000000000000000000000000000000000 PUSH0 DUP3 ADD MSTORE POP JUMP JUMPDEST PUSH0 PUSH2 0x1901 PUSH1 0xE DUP4 PUSH2 0x1410 JUMP JUMPDEST SWAP2 POP PUSH2 0x190C DUP3 PUSH2 0x18CD JUMP JUMPDEST PUSH1 0x20 DUP3 ADD SWAP1 POP SWAP2 SWAP1 POP JUMP JUMPDEST PUSH0 PUSH1 0x20 DUP3 ADD SWAP1 POP DUP2 DUP2 SUB PUSH0 DUP4 ADD MSTORE PUSH2 0x192E DUP2 PUSH2 0x18F5 JUMP JUMPDEST SWAP1 POP SWAP2 SWAP1 POP JUMP JUMPDEST PUSH32 0x4E6F7420656E6F75676820706C61796572000000000000000000000000000000 PUSH0 DUP3 ADD MSTORE POP JUMP JUMPDEST PUSH0 PUSH2 0x1969 PUSH1 0x11 DUP4 PUSH2 0x1410 JUMP JUMPDEST SWAP2 POP PUSH2 0x1974 DUP3 PUSH2 0x1935 JUMP JUMPDEST PUSH1 0x20 DUP3 ADD SWAP1 POP SWAP2 SWAP1 POP JUMP JUMPDEST PUSH0 PUSH1 0x20 DUP3 ADD SWAP1 POP DUP2 DUP2 SUB PUSH0 DUP4 ADD MSTORE PUSH2 0x1996 DUP2 PUSH2 0x195D JUMP JUMPDEST SWAP1 POP SWAP2 SWAP1 POP JUMP JUMPDEST PUSH32 0x4D6F766520616C726561647920636F6D6D697465640000000000000000000000 PUSH0 DUP3 ADD MSTORE POP JUMP JUMPDEST PUSH0 PUSH2 0x19D1 PUSH1 0x15 DUP4 PUSH2 0x1410 JUMP JUMPDEST SWAP2 POP PUSH2 0x19DC DUP3 PUSH2 0x199D JUMP JUMPDEST PUSH1 0x20 DUP3 ADD SWAP1 POP SWAP2 SWAP1 POP JUMP JUMPDEST PUSH0 PUSH1 0x20 DUP3 ADD SWAP1 POP DUP2 DUP2 SUB PUSH0 DUP4 ADD MSTORE PUSH2 0x19FE DUP2 PUSH2 0x19C5 JUMP JUMPDEST SWAP1 POP SWAP2 SWAP1 POP JUMP JUMPDEST PUSH32 0x4E6F2067616D6520746F20776974686472617700000000000000000000000000 PUSH0 DUP3 ADD MSTORE POP JUMP JUMPDEST PUSH0 PUSH2 0x1A39 PUSH1 0x13 DUP4 PUSH2 0x1410 JUMP JUMPDEST SWAP2 POP PUSH2 0x1A44 DUP3 PUSH2 0x1A05 JUMP JUMPDEST PUSH1 0x20 DUP3 ADD SWAP1 POP SWAP2 SWAP1 POP JUMP JUMPDEST PUSH0 PUSH1 0x20 DUP3 ADD SWAP1 POP DUP2 DUP2 SUB PUSH0 DUP4 ADD MSTORE PUSH2 0x1A66 DUP2 PUSH2 0x1A2D JUMP JUMPDEST SWAP1 POP SWAP2 SWAP1 POP JUMP JUMPDEST PUSH32 0x596F752063616E206F6E6C792077697468647261772061667465722035206D69 PUSH0 DUP3 ADD MSTORE PUSH32 0x6E75746573206966206F7468657220706C6179657220686176656E2774206D61 PUSH1 0x20 DUP3 ADD MSTORE PUSH32 0x6B652061206D6F76650000000000000000000000000000000000000000000000 PUSH1 0x40 DUP3 ADD MSTORE POP JUMP JUMPDEST PUSH0 PUSH2 0x1AED PUSH1 0x49 DUP4 PUSH2 0x1410 JUMP JUMPDEST SWAP2 POP PUSH2 0x1AF8 DUP3 PUSH2 0x1A6D JUMP JUMPDEST PUSH1 0x60 DUP3 ADD SWAP1 POP SWAP2 SWAP1 POP JUMP JUMPDEST PUSH0 PUSH1 0x20 DUP3 ADD SWAP1 POP DUP2 DUP2 SUB PUSH0 DUP4 ADD MSTORE PUSH2 0x1B1A DUP2 PUSH2 0x1AE1 JUMP JUMPDEST SWAP1 POP SWAP2 SWAP1 POP JUMP JUMPDEST PUSH32 0x4E487B7100000000000000000000000000000000000000000000000000000000 PUSH0 MSTORE PUSH1 0x12 PUSH1 0x4 MSTORE PUSH1 0x24 PUSH0 REVERT JUMPDEST PUSH0 PUSH2 0x1B58 DUP3 PUSH2 0x107D JUMP JUMPDEST SWAP2 POP PUSH2 0x1B63 DUP4 PUSH2 0x107D JUMP JUMPDEST SWAP3 POP DUP3 PUSH2 0x1B73 JUMPI PUSH2 0x1B72 PUSH2 0x1B21 JUMP JUMPDEST JUMPDEST DUP3 DUP3 MOD SWAP1 POP SWAP3 SWAP2 POP POP JUMP JUMPDEST PUSH0 PUSH2 0x1B88 DUP3 PUSH2 0x107D JUMP JUMPDEST SWAP2 POP PUSH2 0x1B93 DUP4 PUSH2 0x107D JUMP JUMPDEST SWAP3 POP DUP3 PUSH2 0x1BA3 JUMPI PUSH2 0x1BA2 PUSH2 0x1B21 JUMP JUMPDEST JUMPDEST DUP3 DUP3 DIV SWAP1 POP SWAP3 SWAP2 POP POP JUMP INVALID LOG2 PUSH5 0x6970667358 0x22 SLT KECCAK256 0xC PUSH8 0x8925C747B7155434 CALL 0x21 0xB9 0xDB PUSH28 0x47C368050BED4A22C251F9E3D448BE439864736F6C634300081A0033 "
				},
				"gasEstimates": {
					"creation": {
						"codeDepositCost": "1428000",
						"executionCost": "infinite",
						"totalCost": "infinite"
					},
					"external": {
						"addPlayer()": "infinite",
						"commitMove(bytes32)": "29131",
						"commits(address)": "2913",
						"gameActive()": "2554",
						"numPlayer()": "2424",
						"player_choices(address)": "2868",
						"players(uint256)": "5054",
						"revealMove(uint256,string)": "infinite",
						"revealed(address)": "2878",
						"reward()": "2426",
						"startTime()": "2514",
						"withdrawIfTimeout()": "infinite"
					},
					"internal": {
						"_findWinner()": "infinite",
						"_resetGame()": "infinite"
					}
				},
				"methodIdentifiers": {
					"addPlayer()": "27b5db8a",
					"commitMove(bytes32)": "a9ea37b6",
					"commits(address)": "7b43a8e6",
					"gameActive()": "f020044f",
					"numPlayer()": "90d5d0c3",
					"player_choices(address)": "ee10ff17",
					"players(uint256)": "f71d96cb",
					"revealMove(uint256,string)": "2f3e8363",
					"revealed(address)": "27c0583f",
					"reward()": "228cb733",
					"startTime()": "78e97925",
					"withdrawIfTimeout()": "aead4af2"
				}
			},
			"storageLayout": {
				"storage": [
					{
						"astId": 206,
						"contract": "Lab5_SmartContract/RPS.sol:RPS",
						"label": "numPlayer",
						"offset": 0,
						"slot": "0",
						"type": "t_uint256"
					},
					{
						"astId": 209,
						"contract": "Lab5_SmartContract/RPS.sol:RPS",
						"label": "reward",
						"offset": 0,
						"slot": "1",
						"type": "t_uint256"
					},
					{
						"astId": 211,
						"contract": "Lab5_SmartContract/RPS.sol:RPS",
						"label": "startTime",
						"offset": 0,
						"slot": "2",
						"type": "t_uint256"
					},
					{
						"astId": 214,
						"contract": "Lab5_SmartContract/RPS.sol:RPS",
						"label": "gameActive",
						"offset": 0,
						"slot": "3",
						"type": "t_bool"
					},
					{
						"astId": 218,
						"contract": "Lab5_SmartContract/RPS.sol:RPS",
						"label": "commits",
						"offset": 0,
						"slot": "4",
						"type": "t_mapping(t_address,t_bytes32)"
					},
					{
						"astId": 222,
						"contract": "Lab5_SmartContract/RPS.sol:RPS",
						"label": "player_choices",
						"offset": 0,
						"slot": "5",
						"type": "t_mapping(t_address,t_uint256)"
					},
					{
						"astId": 226,
						"contract": "Lab5_SmartContract/RPS.sol:RPS",
						"label": "revealed",
						"offset": 0,
						"slot": "6",
						"type": "t_mapping(t_address,t_bool)"
					},
					{
						"astId": 229,
						"contract": "Lab5_SmartContract/RPS.sol:RPS",
						"label": "players",
						"offset": 0,
						"slot": "7",
						"type": "t_array(t_address)dyn_storage"
					},
					{
						"astId": 237,
						"contract": "Lab5_SmartContract/RPS.sol:RPS",
						"label": "allowedAddresses",
						"offset": 0,
						"slot": "8",
						"type": "t_array(t_address)dyn_storage"
					}
				],
				"types": {
					"t_address": {
						"encoding": "inplace",
						"label": "address",
						"numberOfBytes": "20"
					},
					"t_array(t_address)dyn_storage": {
						"base": "t_address",
						"encoding": "dynamic_array",
						"label": "address[]",
						"numberOfBytes": "32"
					},
					"t_bool": {
						"encoding": "inplace",
						"label": "bool",
						"numberOfBytes": "1"
					},
					"t_bytes32": {
						"encoding": "inplace",
						"label": "bytes32",
						"numberOfBytes": "32"
					},
					"t_mapping(t_address,t_bool)": {
						"encoding": "mapping",
						"key": "t_address",
						"label": "mapping(address => bool)",
						"numberOfBytes": "32",
						"value": "t_bool"
					},
					"t_mapping(t_address,t_bytes32)": {
						"encoding": "mapping",
						"key": "t_address",
						"label": "mapping(address => bytes32)",
						"numberOfBytes": "32",
						"value": "t_bytes32"
					},
					"t_mapping(t_address,t_uint256)": {
						"encoding": "mapping",
						"key": "t_address",
						"label": "mapping(address => uint256)",
						"numberOfBytes": "32",
						"value": "t_uint256"
					},
					"t_uint256": {
						"encoding": "inplace",
						"label": "uint256",
						"numberOfBytes": "32"
					}
				}
			},
			"userdoc": {
				"kind": "user",
				"methods": {},
				"version": 1
			}
		}
	}
}